:020000040800F2
:100000000000022065330008892800088B280008BA
:100010008D2800088F2800089128000800000000A3
:10002000000000000000000000000000932800080D
:10003000952800080000000097280008992800086B
:10004000B5330008B5330008B5330008B5330008F0
:10005000B5330008B5330008B5330008B5330008E0
:10006000B5330008B5330008B5330008B5330008D0
:10007000B5330008B5330008B5330008B5330008C0
:10008000A1280008B5330008B5330008B5330008CF
:10009000B5330008B5330008B5330008B5330008A0
:1000A000B5330008B5330008B5330008B533000890
:1000B000B5330008B5330008B5330008B533000880
:1000C000B5330008B5330008B5330008B533000870
:1000D000B5330008B1280008C1280008B53300086E
:1000E000B5330008B5330008B5330008B533000850
:1000F000B5330008B5330008B5330008B533000840
:10010000B5330008B5330008B5330008B53300082F
:10011000B5330008B5330008B5330008D12800080E
:10012000B5330008B5330008B5330008B53300080F
:10013000B5330008B5330008B5330008B5330008FF
:10014000B5330008B5330008B5330008B5330008EF
:10015000B5330008B5330008B5330008E1280008BE
:10016000B5330008B5330008B5330008B5330008CF
:10017000B5330008B5330008B533000800000000AF
:08018000B5330008B533000897
:1001C00081F0004102E000BF83F0004330B54FEA08
:1001D00041044FEA430594EA050F08BF90EA020F75
:1001E0001FBF54EA000C55EA020C7FEA645C7FEA08
:1001F000655C00F0E2804FEA5454D4EB5555B8BF2B
:100200006D420CDD2C4480EA020281EA030382EA9B
:10021000000083EA010180EA020281EA0303362D2D
:1002200088BF30BD11F0004F4FEA01314FF4801C00
:100230004CEA113102D0404261EB410113F0004F12
:100240004FEA03334CEA133302D0524263EB4303C9
:1002500094EA050F00F0A780A4F10104D5F1200E67
:100260000DDB02FA0EFC22FA05F2801841F10001C2
:1002700003FA0EF2801843FA05F359410EE0A5F196
:1002800020050EF1200E012A03FA0EFC28BF4CF0C7
:10029000020C43FA05F3C01851EBE37101F000457D
:1002A00007D54FF0000EDCF1000C7EEB00006EEB8A
:1002B0000101B1F5801F1BD3B1F5001F0CD3490814
:1002C0005FEA30004FEA3C0C04F101044FEA44526B
:1002D00012F5800F80F09A80BCF1004F08BF5FEAF2
:1002E000500C50F1000041EB045141EA050130BDD2
:1002F0005FEA4C0C404141EB0101013C28BFB1F5E4
:10030000801FE9D291F0000F04BF01460020B1FA2E
:1003100081F308BF2033A3F10B03B3F120020CDA01
:100320000C3208DD02F1140CC2F10C0201FA0CF0DF
:1003300021FA02F10CE002F11402D8BFC2F1200C44
:1003400001FA02F120FA0CFCDCBF41EA0C019040FA
:10035000E41AA2BF01EB0451294330BD6FEA040443
:100360001F3C1CDA0C340EDC04F11404C4F120022E
:1003700020FA04F001FA02F340EA030021FA04F340
:1003800045EA030130BDC4F10C04C4F1200220FA97
:1003900002F001FA04F340EA0300294630BD21FAD5
:1003A00004F0294630BD94F0000F83F4801306BF9B
:1003B00081F480110134013D4EE77FEA645C18BF8F
:1003C0007FEA655C29D094EA050F08BF90EA020F26
:1003D00005D054EA000C04BF1946104630BD91EA1E
:1003E000030F1EBF0021002030BD5FEA545C05D121
:1003F0004000494128BF41F0004130BD14F5800460
:100400003CBF01F5801130BD01F0004545F0FE41D3
:1004100041F470014FF0000030BD7FEA645C1ABF08
:10042000194610467FEA655C1CBF0B46024650EA3F
:10043000013406BF52EA033591EA030F41F400216B
:1004400030BD00BF90F0000F04BF0021704730B5F1
:100450004FF4806404F132044FF000054FF00001C6
:1004600050E700BF90F0000F04BF0021704730B587
:100470004FF4806404F1320410F0004548BF40425C
:100480004FF000013EE700BF42004FEAE2014FEAB1
:1004900031014FEA02701FBF12F07F4393F07F4F8C
:1004A00081F06051704732F07F4208BF704793F08F
:1004B0007F4F04BF41F40021704730B54FF46074A2
:1004C00001F0004521F000411CE700BF50EA0102A5
:1004D00008BF704730B54FF000050AE050EA01024E
:1004E00008BF704730B511F0004502D5404261EBBE
:1004F00041014FF4806404F132045FEA915C3FF4FF
:10050000D8AE4FF003025FEADC0C18BF03325FEA9B
:10051000DC0C18BF033202EBDC02C2F1200300FA4C
:1005200003FC20FA02F001FA03FE40EA0E0021FA71
:1005300002F11444BDE600BF70B54FF0FF0C4CF45F
:10054000E06C1CEA11541DBF1CEA135594EA0C0F11
:1005500095EA0C0F00F0DEF82C4481EA030621EA4C
:100560004C5123EA4C5350EA013518BF52EA033587
:1005700041F4801143F4801338D0A0FB02CE4FF039
:100580000005E1FB02E506F00042E0FB03E54FF069
:100590000006E1FB03569CF0000F18BF4EF0010E61
:1005A000A4F1FF04B6F5007F64F5407404D25FEA5D
:1005B0004E0E6D4146EB060642EAC62141EA555110
:1005C0004FEAC52040EA5E504FEACE2EB4F1FD0C52
:1005D00088BFBCF5E06F1ED8BEF1004F08BF5FEAD0
:1005E000500E50F1000041EB045170BD06F0004682
:1005F00046EA010140EA020081EA0301B4EB5C042F
:10060000C2BFD4EB0C0541EA045170BD41F4801126
:100610004FF0000E013C00F3AB8014F1360FDEBF4B
:10062000002001F0004170BDC4F10004203C35DA27
:100630000C341BDC04F11404C4F1200500FA05F3AA
:1006400020FA04F001FA05F240EA020001F000424B
:1006500021F0004110EBD37021FA04F642EB0601C1
:100660005EEA430E08BF20EAD37070BDC4F10C04EB
:10067000C4F1200500FA04F320FA05F001FA04F2AF
:1006800040EA020001F0004110EBD37041F100019B
:100690005EEA430E08BF20EAD37070BDC4F12005A6
:1006A00000FA05F24EEA020E20FA04F301FA05F20E
:1006B00043EA020321FA04F001F0004121FA04F2B6
:1006C00020EA020000EBD3705EEA430E08BF20EA86
:1006D000D37070BD94F0000F0FD101F000464000C0
:1006E00041EB010111F4801F08BF013CF7D041EA42
:1006F000060195F0000F18BF704703F00046520046
:1007000043EB030313F4801F08BF013DF7D043EA16
:100710000603704794EA0C0F0CEA135518BF95EACC
:100720000C0F0CD050EA410618BF52EA4306D1D153
:1007300081EA030101F000414FF0000070BD50EA72
:10074000410606BF1046194652EA430619D094EAFC
:100750000C0F02D150EA013613D195EA0C0F05D1E6
:1007600052EA03361CBF104619460AD181EA03013A
:1007700001F0004141F0FE4141F470014FF00000F2
:1007800070BD41F0FE4141F4780170BD70B54FF08D
:10079000FF0C4CF4E06C1CEA11541DBF1CEA13550D
:1007A00094EA0C0F95EA0C0F00F0A7F8A4EB0504EF
:1007B00081EA030E52EA03354FEA013100F08880E6
:1007C0004FEA03334FF0805545EA131343EA1263AF
:1007D0004FEA022245EA111545EA10654FEA002664
:1007E0000EF000419D4208BF964244F1FD0404F51D
:1007F000407402D25B084FEA3202B61A65EB030579
:100800005B084FEA32024FF480104FF4002CB6EB35
:10081000020E75EB030E22BFB61A754640EA0C00B5
:100820005B084FEA3202B6EB020E75EB030E22BFF5
:10083000B61A754640EA5C005B084FEA3202B6EB36
:10084000020E75EB030E22BFB61A754640EA9C00F5
:100850005B084FEA3202B6EB020E75EB030E22BFC5
:10086000B61A754640EADC0055EA060E18D04FEA83
:10087000051545EA16754FEA06164FEAC30343EA23
:1008800052734FEAC2025FEA1C1CC0D111F4801FF0
:100890000BD141EA00014FF000004FF0004CB6E7E9
:1008A00011F4801F04BF01430020B4F1FD0C88BF88
:1008B000BCF5E06F3FF6AFAEB5EB030C04BFB6EB93
:1008C000020C5FEA500C50F1000041EB045170BD86
:1008D0000EF0004E4EEA113114EB5C04C2BFD4EBB3
:1008E0000C0541EA045170BD41F480114FF0000E37
:1008F000013C90E645EA060E8DE60CEA135594EAB3
:100900000C0F08BF95EA0C0F3FF43BAF94EA0C0FB5
:100910000AD150EA01347FF434AF95EA0C0F7FF42A
:1009200025AF104619462CE795EA0C0F06D152EA7E
:1009300003353FF4FDAE1046194622E750EA410662
:1009400018BF52EA43067FF4C5AE50EA41047FF473
:100950000DAF52EA43057FF4EBAE12E74FF0FF3CD8
:1009600006E000BF4FF0010C02E000BF4FF0010CA9
:100970004DF804CD4FEA410C7FEA6C5C4FEA430C22
:1009800018BF7FEA6C5C1BD001B050EA410C0CBF71
:1009900052EA430C91EA030F02BF90EA020F0020D3
:1009A000704710F1000F91EA030F58BF994208BF3A
:1009B00090422CBFD8176FEAE37040F001007047F7
:1009C0004FEA410C7FEA6C5C02D150EA013C07D14E
:1009D0004FEA430C7FEA6C5CD6D152EA033CD3D099
:1009E0005DF8040B704700BF8446104662468C4693
:1009F0001946634600E000BF01B5FFF7B7FF0028C6
:100A000048BF10F1000F01BD4DF808EDFFF7F4FFEE
:100A10000CBF012000205DF808FB00BF4DF808ED79
:100A2000FFF7EAFF34BF012000205DF808FB00BF9C
:100A30004DF808EDFFF7E0FF94BF012000205DF8BE
:100A400008FB00BF4DF808EDFFF7CEFF94BF012073
:100A500000205DF808FB00BF4DF808EDFFF7C4FF6C
:100A600034BF012000205DF808FB00BF4FEA410CB5
:100A70007FEA6C5C02D150EA013C0AD14FEA430C98
:100A80007FEA6C5C02D152EA033C02D14FF00000D5
:100A900070474FF0010070474FEA410212F5001213
:100AA00015D211D56FF47873B3EB625212D94FEAB5
:100AB000C12343F0004343EA505311F0004F23FA9F
:100AC00002F018BF404270474FF00000704750EAF4
:100AD000013005D111F0004008BF6FF000407047B1
:100AE0004FF00000704700BF4A0011D212F500120B
:100AF00011D20DD56FF47873B3EB62520ED44FEA76
:100B0000C12343F0004343EA505323FA02F07047F5
:100B10004FF00000704750EA013002D14FF0FF3033
:100B200070474FF00000704753B94AB9002908BF19
:100B300000281CBF4FF0FF314FF0FF3000F0E2B84B
:100B4000ADF1080C6DE904CE0BF0ACFCDDF804E06F
:100B5000DDE9022304B0704700F1340191E8380068
:100B60009C46A6464CF8045D90E8FF0FE54600BDA4
:100B700090EC210B704700BF80EC210B704700BF49
:100B800090EC200B704700BF80EC200B704700BF3B
:100B9000D0EC200B704700BFC0EC200B704700BFAB
:100BA000F0EC0201F0EC0211F0EC0221F0EC023169
:100BB000F0EC0241F0EC0251F0EC0261F0EC027159
:100BC000F0EC0281F0EC0291F0EC02A1F0EC02B149
:100BD000F0EC02C1F0EC02D1F0EC02E1F0EC02F139
:100BE000704700BFE0EC0201E0EC0211E0EC0221F2
:100BF000E0EC0231E0EC0241E0EC0251E0EC026199
:100C0000E0EC0271E0EC0281E0EC0291E0EC02A188
:100C1000E0EC02B1E0EC02C1E0EC02D1E0EC02E178
:100C2000E0EC02F1704700BFB0FC0181B0FC019123
:100C3000B0FC01A1B0FC01B1704700BFA0FC018174
:100C4000A0FC0191A0FC01A1A0FC01B1704700BF74
:100C5000EC4600B52DE900502DE9FF1F4FF00003D1
:100C60002DE90C0001A90BF0CFFEDDF840E012B039
:100C7000704700BFEC4600B52DE900502DE9FF1F7D
:100C80004FF000032DE90C0001A90BF0F9FEDDF88F
:100C900040E012B0704700BFEC4600B52DE90050AF
:100CA0002DE9FF1F4FF000032DE90C0001A90BF007
:100CB00007FFDDF840E012B0704700BFEC4600B51A
:100CC0002DE900502DE9FF1F4FF000032DE90C0026
:100CD00001AB0BF0CDFEDDF840E012B0704700BF75
:100CE000EC4600B52DE900502DE9FF1F4FF0000341
:100CF0002DE90C0001AA0BF03FFFDDF840E012B037
:100D0000704700BF704700BF0000000000000000F7
:100D100000000000000000000000000000000000D3
:100D200002780B78012A28BF9A4240F0D8806DE9FA
:100D3000044540EA0104CDE902676FF0000C4FEA78
:100D400044721AB380EA010414F0070F6BD100F06B
:100D5000070420F0070004F0030521F007014FEA23
:100D6000C505F0E8042314F0040FF1E804670CFA59
:100D700005F462EA040266EA04060BD063EA04039F
:100D8000624667EA0407664604E000BFF0E8042311
:100D9000F1E8046782FA4CF582EA0604A4FA8CF4BE
:100DA0006CBB83FA4CF583EA0705A5FA8CF595B977
:100DB00050E9022351E9026782FA4CF582EA0604FF
:100DC000A4FA8CF483FA4CF583EA0705A5FA8CF5AE
:100DD0002543DBD09CB92DBAB5FA85F424F007047D
:100DE00027FA04F1DDE9026723FA04F303F0FF00B8
:100DF00001F0FF01FDE80445A0EB0100704724BAB3
:100E0000B4FA84F424F0070426FA04F1DDE9026759
:100E100022FA04F202F0FF0001F0FF01FDE80445B0
:100E2000A0EB0100704714F0030F3CD110F0030455
:100E300028D150F8082B51F8083B82FA4CF582EA89
:100E40000305A5FA8CF55DB950F8042C51F8043C63
:100E500082FA4CF582EA0305A5FA8CF5002DE8D05C
:100E60002DBAB5FA85F424F0070423FA04F122FA26
:100E700004F202F0FF0001F0FF01FDE80445A0EBE1
:100E8000010070474FEAC40420F0030050F8082B1B
:100E900021F0030151F8083B0CFA04F462EA040261
:100EA00063EA0403C9E710F003041DD0A1EB0401B9
:100EB00020F00300E40750F8042B06D012D28B7800
:100EC0005FFAA2F4E41A06D12BB1CB785FFAB2F440
:100ED000E41A00D133B920465DF8104B7047A2EBFD
:100EE0000300704701F1040150F8042BCC0721F0F6
:100EF000030151F8043B48D824D222F07F4482FAFF
:100F00004CF594EA1325A5FA8CF50AD165B951F888
:100F1000043B84EA0204B4EB036F0ED150F8042BB7
:100F2000EBE74FEA132355E035F07F454DD10878C4
:100F3000FDE80445C0F1000070474FEA126203F07B
:100F4000FF0347E002EA1C4482FA4CF594EA134599
:100F5000A5FA8CF50AD165B951F8043B84EA02047C
:100F6000B4EB034F0CD150F8042BEBE74FEA1343DB
:100F700030E015EA1C4528D10B884FEA124229E0DF
:100F80004FEA124203EA1C4324E002F0FF0482FA13
:100F90004CF594EA1365A5FA8CF50AD165B951F8B8
:100FA000043B84EA0204B4EB032F09D150F8042B6C
:100FB000EBE74FEA13630DE015F0FF0F05D10B6867
:100FC0004FEA122223F07F4304E04FF00000FDE8D7
:100FD0000445704712BA1BBA82FA4CF482EA030441
:100FE000A4FA8CF5B5FA85F402FA04F203FA04F3D4
:100FF0004FEA1260FDE80445A0EB1360704700BFA4
:1010000001F0FF01102A2BDB10F0070F08D010F8B9
:10101000013B013A8B422DD010F0070F42B3F6D1BD
:10102000F0B441EA012141EA014122F007047FF0D6
:1010300000070023F0E80256083C85EA010586EA2D
:10104000010685FA47F5A3FA87F586FA47F6A5FA69
:1010500087F68EB9EED1F0BC01F0FF0102F0070275
:1010600032B110F8013B013A83EA010313B1F8D120
:101070000020704701387047002D06BF3546033801
:10108000073815F0010F07D1013015F4807F02BF3A
:10109000013015F4C03F0130F0BC0138704700BF8B
:1010A000844641EA000313F003036DD1403A41D373
:1010B00051F8043B40F8043B51F8043B40F8043B32
:1010C00051F8043B40F8043B51F8043B40F8043B22
:1010D00051F8043B40F8043B51F8043B40F8043B12
:1010E00051F8043B40F8043B51F8043B40F8043B02
:1010F00051F8043B40F8043B51F8043B40F8043BF2
:1011000051F8043B40F8043B51F8043B40F8043BE1
:1011100051F8043B40F8043B51F8043B40F8043BD1
:1011200051F8043B40F8043B51F8043B40F8043BC1
:10113000403ABDD2303211D351F8043B40F8043B61
:1011400051F8043B40F8043B51F8043B40F8043BA1
:1011500051F8043B40F8043B103AEDD20C3205D371
:1011600051F8043B40F8043B043AF9D2043208D069
:10117000D2071CBF11F8013B00F8013B01D30B88DB
:1011800003806046704700BF082A13D38B078DD0B9
:1011900010F003038AD0C3F10403D21ADB071CBF8B
:1011A00011F8013B00F8013B80D331F8023B20F8F5
:1011B000023B7BE7043AD9D3013A11F8013B00F82E
:1011C000013BF9D20B7803704B7843708B788370B6
:1011D00060467047000000000000000000000000B2
:1011E00000000000000000000000000000000000FF
:1011F00000000000000000000000000000000000EF
:1012000030B490F800F020F007016FF0000C10F0FF
:10121000070491F820F040F048804FF000046FF090
:101220000700D1E9002391F840F000F1080082FAAC
:101230004CF2A4FA8CF283FA4CF3A2FA8CF34BBB77
:10124000D1E9022382FA4CF200F10800A4FA8CF2F0
:1012500083FA4CF3A2FA8CF3E3B9D1E9042382FABE
:101260004CF200F10800A4FA8CF283FA4CF3A2FAD3
:101270008CF37BB9D1E9062301F1200182FA4CF20B
:1012800000F10800A4FA8CF283FA4CF3A2FA8CF372
:10129000002BC6D0002A04BF04301A4612BAB2FA94
:1012A00082F200EBD20030BC7047D1E9002304F099
:1012B0000305C4F100004FEAC50514F0040F91F8CE
:1012C00040F00CFA05F562EA05021CBF63EA05036B
:1012D00062464FF00004AAE70348044B834202D061
:1012E000034B03B118477047C8060020C80600200A
:1012F000000000000548064B1B1AD90F01EBA301A3
:10130000491002D0034B03B118477047C8060020AC
:10131000C80600200000000010B5064C237843B931
:10132000FFF7DAFF044B13B10448AFF30080012349
:10133000237010BDC8060020000000000C3B01080F
:1013400008B5054B1BB105490548AFF30080BDE862
:101350000840FFF7CFBF00BF00000000CC06002010
:101360000C3B0108F8B504460D46534801F0DAF885
:10137000002851D0264605F10047002200232046D0
:101380002946FFF769FBE8B90022002320462946D9
:10139000FFF744FB68BB0022002320462946FFF7E5
:1013A00033FB28B3454B1B680024DC63444D2246C5
:1013B0001021284602F0F6FB22462021284602F0A2
:1013C000F1FB15E03E4E01221021304602F0EAFB0F
:1013D00000222021304602F0E5FB384B1E682246F1
:1013E0002B4600203749FEF7EFFEFFF77DFBF06349
:1013F000F8BD334C00221021204602F0D3FB01221D
:101400002021204602F0CEFB2C4B1C68304639468A
:10141000FFF76AFBE063EBE7002200232046294642
:10142000FFF7FCFAF0B90022002320462946FFF717
:1014300013FB70BB0022002320462946FFF7E4FA85
:101440000028D5D01D4B1B680024DC631C4D2246B0
:101450001021284602F0A6FB22462021284602F051
:10146000A1FBC5E7164E00221021304602F09AFB80
:1014700001222021304602F095FB0022114B20462C
:101480002946FEF7A3FE0D4B1C68FFF72DFBE0631A
:10149000AEE70B4E01221021304602F083FB002202
:1014A0002021304602F07EFB044B1E682046294670
:1014B000FFF71AFBF0639BE7B80A00202015002015
:1014C0000000024000408F40F8B504460D465348E6
:1014D00001F028F8002851D0264605F100470022E7
:1014E000002320462946FFF7B7FAE8B90022002377
:1014F00020462946FFF792FA68BB002200232046C7
:101500002946FFF781FA28B3454C002210212046D6
:1015100002F048FB00222021204602F043FB414B11
:101520001B6800225A6315E03D4E0122102130460F
:1015300002F038FB00222021304602F033FB394B09
:101540001E6822462B4600203749FEF73DFEFFF776
:10155000CBFA7063F8BD324C00221021204602F015
:1015600021FB01222021204602F01CFB2D4B1C6890
:1015700030463946FFF7B8FA6063EBE700220023F4
:1015800020462946FFF74AFAF0B9002200232046F8
:101590002946FFF761FA70BB002200232046294646
:1015A000FFF732FA0028D5D01E4B1B6800245C637D
:1015B0001B4D22461021284602F0F4FA2246202133
:1015C000284602F0EFFAC5E7154E002210213046FA
:1015D00002F0E8FA01222021304602F0E3FA00226C
:1015E000114B20462946FEF7F1FD0E4B1C68FFF714
:1015F0007BFA6063AEE70A4E01221021304602F00A
:10160000D1FA00222021304602F0CCFA054B1E68A8
:1016100020462946FFF768FA70639BE7A809002077
:10162000000802402015002000408F40F8B5044615
:101630000D46534800F076FF002851D0264605F1AC
:1016400000470022002320462946FFF705FAE8B9A3
:101650000022002320462946FFF7E0F968BB00225C
:10166000002320462946FFF7CFF928B3454B1B68D6
:1016700000249C63444D22464021284602F092FA01
:1016800022468021284602F08DFA15E03E4E0122C6
:101690004021304602F086FA00228021304602F0D6
:1016A00081FA384B1E6822462B4600203749FEF748
:1016B0008BFDFFF719FAB063F8BD334C00224021CF
:1016C000204602F06FFA01228021204602F06AFAD9
:1016D0002C4B1C6830463946FFF706FAA063EBE74F
:1016E0000022002320462946FFF798F9F0B900228E
:1016F000002320462946FFF7AFF970BB00220023E4
:1017000020462946FFF780F90028D5D01D4B1B68DD
:1017100000249C631C4D22464021284602F042FAD8
:1017200022468021284602F03DFAC5E7164E0022E7
:101730004021304602F036FA01228021304602F084
:1017400031FA0022114B20462946FEF73FFD0D4B92
:101750001C68FFF7C9F9A063AEE70B4E01224021D8
:10176000304602F01FFA00228021304602F01AFAB9
:10177000044B1E6820462946FFF7B6F9B0639BE785
:10178000300A0020201500200018024000408F4041
:10179000F8B504460D46534800F0C4FE002851D069
:1017A000264605F100470022002320462946FFF780
:1017B00053F9E8B90022002320462946FFF72EF905
:1017C00068BB0022002320462946FFF71DF928B3F5
:1017D000454B1B6800241C64444D224602212846C8
:1017E00002F0E0F922460421284602F0DBF915E078
:1017F0003E4E01220221304602F0D4F9002204219B
:10180000304602F0CFF9384B1E6822462B460020A6
:101810003749FEF7D9FCFFF767F93064F8BD334C60
:1018200000220221204602F0BDF9012204212046B7
:1018300002F0B8F92C4B1C6830463946FFF754F9D2
:101840002064EBE70022002320462946FFF7E6F854
:10185000F0B90022002320462946FFF7FDF870BBAF
:101860000022002320462946FFF7CEF80028D5D0D5
:101870001D4B1B6800241C641C4D22460221284677
:1018800002F090F922460421284602F08BF9C5E7C0
:10189000164E00220221304602F084F90122042172
:1018A000304602F07FF90022114B20462946FEF710
:1018B0008DFC0D4B1C68FFF717F92064AEE70B4E4B
:1018C00001220221304602F06DF900220421304647
:1018D00002F068F9044B1E6820462946FFF704F918
:1018E00030649BE7200900202015002000040240FE
:1018F00000408F40F8B504460D4616461F46FFF7D8
:1019000097F8B0B120462946FFF7C6F8044606E02E
:10191000134B1B689C63052001F0A0FD0134204699
:10192000FEF7A0FD32463B46FFF782F80028EFD1D4
:10193000F8BD20462946FFF7AFF8044606E0084BFD
:101940001B689C63052001F089FD013C2046FEF7E1
:1019500089FD32463B46FFF775F80028EFD1E7E7EF
:1019600070130020F8B504460D4616461F46FFF7D3
:101970005FF8B0B120462946FFF78EF8044606E02E
:10198000134B1B685C63052001F068FD01342046A1
:10199000FEF768FD32463B46FFF74AF80028EFD1D4
:1019A000F8BD20462946FFF777F8044606E0084BC5
:1019B0001B685C63052001F051FD013C2046FEF7E9
:1019C00051FD32463B46FFF73DF80028EFD1E7E7EF
:1019D0007013002000000000012800D070474FF66F
:1019E000FF739942FAD12DE9F04F85B0504E304641
:1019F00000F058FD4F4C504D22462946304603F02A
:101A00002FFD4E4E304600F04DFD22462946304611
:101A100003F026FD4A4E304600F044FD224629469A
:101A2000304603F01DFD474E304600F03BFD224698
:101A30002946304603F014FD434D284600F08CFC47
:101A400022464249284603F00BFD414D284600F04E
:101A5000A9FA22463F49284603F002FD0FF2C809C1
:101A6000D9E90089DFF8F0B04FF0010ACDF808A0FD
:101A700000260027CDE9006742464B4651465846AE
:101A800000F077FA354D22462946584603F0E8FC27
:101A9000DFF8CCB002230293CDE9006742464B4603
:101AA0005146584600F065FA22462946584603F04A
:101AB000D7FCDFF8B0B003230293CDE900674246BC
:101AC0004B465146584600F054FA2246294658469D
:101AD00003F0C6FCDFF890904FF00008CDF80880C6
:101AE000CDE900670022214B4146484600F041FA0B
:101AF00022462946484603F0B3FCDFF87490CDF83F
:101B00000880CDE9006700221A4B4146484600F0A4
:101B100030FA22462946484603F0A2FC05B0BDE84B
:101B2000F08F00BFAFF3008065732D3852C10040C5
:101B3000B80A002000000020D3240008300A00204A
:101B4000A809002020090020A0080020F123000897
:101B5000B0070020F91F0008880700209F1F000819
:101B60006007002038070020100700200080764022
:101B7000E8060020000049402DE9F04F85B0DFF86D
:101B800068B151A5D5E90045CDE902450FF24019EC
:101B9000D9E90089CDE900894FA3D3E9002358464C
:101BA00000F09EFC0026514FCDE900674CA3D3E91D
:101BB0000023584600F0A5FC00220023584600F000
:101BC000B3FC4B49584600F0B9FC0121584600F0DF
:101BD000A7FCDFF820A1CDE90245CDE900893EA3AD
:101BE000D3E90023504600F07BFCCDE900673CA31D
:101BF000D3E90023504600F084FC00220023504625
:101C000000F092FC3C49504600F098FC0021504600
:101C100000F086FC394D2CA4D4E90034CDE902341F
:101C2000CDE900892CA3D3E90023284600F058FC15
:101C3000CDE900672AA3D3E90023284600F061FC20
:101C400000220023284600F06FFC2D49284600F0B2
:101C500075FC0121284600F063FC2A4C1AA3D3E945
:101C60000023CDE90223CDE900891BA3D3E900239A
:101C7000204600F035FCCDE9006719A3D3E9002325
:101C8000204600F03EFC00220023204600F04CFCE1
:101C90001D49204600F052FC0021204600F040FC87
:101CA0001A4E5946304600F0AAFB5146304600F025
:101CB000A0FB2946304600F09EFB2146304600F04E
:101CC0009CFB05B0BDE8F08FFCA9F1D24D62403F0E
:101CD000F168E388B5F8543FCDCCCCCCCCCC0440F3
:101CE0000000000000408FC02009002000408F400D
:101CF00091170008B80A002065130008300A002078
:101D00002D160008A8090020C9140008A00800200A
:101D100038B5194B1B68596A00245C62174D09B22B
:101D2000284600F00DFC284600F01DFC144B1B68F3
:101D3000596A5C62134D09B2284600F001FC28463E
:101D400000F011FC104B1B68596A5C620F4D09B220
:101D5000284600F0F5FB284600F005FC0C4B1B68FC
:101D6000596A5C620B4C09B2204600F0E9FB204640
:101D700000F0F9FB38BD00BFB81300202009002097
:101D8000D8140020300A002090140020A809002058
:101D900048140020B80A0020D0B506460F46064C6D
:101DA000204600F02EFB32463B46204600F034FB36
:101DB000204600F05CFBD0BDA008002030B593B0F9
:101DC0000D4800F034FC04460D460C4800F02FFC92
:101DD000CDE9000122462B46094902A80CF090FBF0
:101DE00002A8FFF70DFA4FF0FF3382B202A90548AF
:101DF00003F0D5F813B030BDC80A0020400A002017
:101E0000503B0108A016002008B50449044800F022
:101E1000C7F80449044800F0C3F808BDF5180008E5
:101E20001007002065190008E806002010B50446D8
:101E300002681D4B9A4204D022681C4B9A4225D05E
:101E400010BD1B4B01221A601A4B19781A4B1A68E5
:101E50001A4881541A6801321A601B68112B01DC80
:101E60000A2905D1144B00221A60154B01221A6071
:101E7000144A136801331360134A13680133136063
:101E800001220C49114803F0D8FAD5E7104B012282
:101E90001A60002304E00F4AD15C0F4AD154013389
:101EA000B3F5806FF7DBCBE700140140004400403E
:101EB000400B0020660B0020500B0020540B00202C
:101EC0004C0B0020480B0020440B0020C8150020BC
:101ED000680B00206C0F00206C0B0020F0B58FB059
:101EE00005460F460846FFF78BF90146C6B2FD23AB
:101EF0008DF8043000248DF80540F31C8DF8063071
:101F000001238DF807302D011D438DF8085023461D
:101F100006E003F138026A4412F8342C54400133CD
:101F2000042BF6D9002302E0FA5C54400133CDB211
:101F3000AB42F9D32A4639460DF10900FFF7B0F854
:101F400005F13D030DEB030505F8344C4FF0FF336D
:101F5000B21D01A9024803F022F80FB0F0BD00BF86
:101F6000E816002008B54FF6FF710120FFF734FD99
:101F700008BD30B400240025C0E90045C0E9024591
:101F800001240477002404620177C0E90023DDE91D
:101F90000223C0E90223049B036130BC70477047F1
:101FA0000162704770B5054600F0F8F80026C5F8E4
:101FB000A46000220023C5E92A2300220C4BC5E9B6
:101FC0002C2305F1B80C0B4C0FCCACE80F000FCC58
:101FD000ACE80F0094E803008CE80300C5F8E0606B
:101FE000C5F8E460C5F8E860C5F8EC60284670BD47
:101FF00000004E40283B010810B5044600F0CFF821
:10200000204610BD00B583B000210191094B1A6B29
:1020100042F400121A631B6B03F400130193019B3B
:102020000A46102001F082FA102001F08FFA03B066
:102030005DF804FB003802402DE9F04F8DB000241C
:102040000794089409940A940B9400944D4B1A6BCE
:1020500042F010021A631A6B02F010020092009A0A
:1020600001941A6B42F080021A631A6B02F080022C
:102070000192019A02941A6B42F004021A631A6BDD
:1020800002F004020292029A03941A6B42F00102D7
:102090001A631A6B02F001020392039A04941A6BFA
:1020A00042F002021A631A6B02F002020492049ACE
:1020B00005941A6B42F008021A631A6B02F00802C8
:1020C0000592059A06941A6B42F040021A631B6B44
:1020D00003F040030693069B2B4E224660213046B8
:1020E00001F060FDDFF8A4B022463621584601F029
:1020F00059FDDFF89CA022463021504601F052FDE8
:10210000DFF8908022463621404601F04BFD224FF9
:102110002246C021384601F045FD60230793012582
:10212000089509940A9407A9304601F041FC4FF044
:102130003609CDF81C900895022609960A9407A93D
:10214000584601F035FC30230793089509960A9408
:1021500007A9504601F02CFCCDF81C900895099673
:102160000A9407A9404601F023FCC0230793089571
:1021700009960A9407A9384601F01AFC0DB0BDE88B
:10218000F08F00BF003802400010024000080240FB
:1021900000000240000402400018024070477047EF
:1021A00008B50268034B9A4200D008BDFFF7B0FDA6
:1021B000FBE700BF0014004072B6FEE700B595B023
:1021C0003022002108A80CF069FB0023039304933C
:1021D00005930693079301931F4A116C41F08051B8
:1021E0001164126C02F080520192019A02931B4A10
:1021F000116841F480411160126802F48042029239
:10220000029A0222089201210B9110210C910E9248
:102210000F9308231093A82311931292042313936E
:1022200008A801F0C5FC98B90F2303930223049377
:10223000002305934FF4A05306934FF48053079364
:10224000052103A801F004FF20B915B05DF804FBD7
:10225000FFF7B2FFFFF7B0FF003802400070004008
:1022600008B501F0CFF8FFF7A9FFFFF7E5FEFFF78C
:10227000C9FE00F0EFFD00F0CDFB00F099FB00F08F
:10228000FBFB00F053FC00F029FC00F08DFE00F099
:10229000A5FE00F0BDFE00F07DFC00F06BFE00F03E
:1022A000EBFE00F0CFFE224C0021204602F0C4FBE2
:1022B0000421204602F0C0FB0821204602F0BCFBAE
:1022C0000C21204602F0B8FB1A4C0021204602F0F7
:1022D000B3FB0421204602F0AFFB0421164802F0B4
:1022E0002DFC0421154802F029FC0421144802F0B9
:1022F00025FC0421134802F021FC134802F044F8A5
:10230000FFF73AFCFFF780FD4FF47A7001F0A6F872
:102310000E490020FFF7E2FD41F2941001F09EF813
:1023200000200B49FFF738FDFFF748FDFCE700BF31
:102330002015002070130020D814002090140020D5
:1023400048140020B813002000140020603B01084E
:10235000008041400000000030B400220260426072
:102360008260C26000240025C0E90445C0E906453A
:10237000C0E90845C0E90A45C0E90C45C0E90E4579
:10238000C0E9104510A5D5E90045C0E91245012274
:1023900080F850200EA5D5E90045C0E916450EA5E8
:1023A000D5E90045C0E918450DA5D5E90045C0E9C6
:1023B0001A4500240C4DC0E91C4500240B4DC0E912
:1023C0001E4530BC704700BF0000000000E06F40B9
:1023D000E1B20A9B012EB23F22A81ABD1AA0843F87
:1023E000613255302AA9233F000024C00000244058
:1023F0007047016070474160704781607047C160FD
:10240000704700220023C0E90423C0E90623C0E985
:102410000823C0E90A237047D0B5044616461F4674
:10242000D0E90C01FDF7D2FEC4E90C0132463B466F
:10243000D4E90401FDF7CAFEC4E9040132463B4673
:10244000D4E90601FDF7C2FEC4E9060132463B4667
:10245000D4E90801FDF7BAFEC4E9080132463B465B
:10246000D4E90A01FDF7B2FEC4E90A01D0BD10B5F6
:102470000446C06818B1D4E90A2300F055F8206872
:1024800018B1D4E9042300F04FF8606818B1D4E91A
:10249000062300F049F8A06818B1D4E9082300F039
:1024A00043F810BD38B504460023037043608360D1
:1024B00000F11005284600F08DF80121284600F0B3
:1024C0009FF804E0284600F09AF802F0D1FF204679
:1024D00038BD10B50446103000F091F8204610BD0C
:1024E00010B500F11004204600F08DF8DDE902235C
:1024F000204600F08DF8DDE90423204600F08DF839
:1025000010BD2DE9004886B0DDE908BCCDE900BC6E
:1025100000F1100102A800F09CF806B0BDE80088A8
:10252000017070470078704738B5017811B103F138
:1025300000452B46103000F07DF838BD81607047B3
:1025400038B504460D460846FDF78CFF02460B469B
:1025500004F1100000F066F8237803B16D42606862
:102560002844606038BD38B5044600F1100528469F
:1025700000F05CF9A4681CB1284600F060F8A047A0
:1025800038BD2DE9F84316461F46089BD3E900895C
:10259000D3E9024522462B4640464946FEF734FA27
:1025A00090B932463B4640464946FEF755FA08B9CF
:1025B000B046B94642464B4620462946FEF72EFA1B
:1025C00020B944464D4601E034463D462046294662
:1025D000BDE8F88330B40122026000240025C0E980
:1025E0000245C0E90445C0E90645C0E91645C0E911
:1025F0001845C0E91A45C0E91C4530BC7047704712
:10260000016008467047C0E902231046194670472A
:10261000C0E90423104619467047C0E90623104656
:1026200019467047C0E90823104619467047D0E99B
:1026300008017047C0E90A23104619467047D0E9DF
:1026400014017047844658310FC98CE80F0060466A
:10265000704730B484B08446DDE90645CDE90023F7
:10266000CDE90245C1E91A23C1E91C4568310FC90A
:102670008CE80F00604604B030BC70478446683177
:102680000FC98CE80F00604670472DE9F04786B00F
:102690008246D0E91023C0E91223D0E90C23C0E917
:1026A0001023D0E90A01DAE90823FDF78DFDCAE914
:1026B0000C01DAE90245DAE90C01DAE91023FDF749
:1026C00083FD02460B4620462946FDF735FF0446AA
:1026D0000D46DAE90C23DAE90401FDF72DFF024685
:1026E0000B4620462946FDF771FD04460D46DAE902
:1026F0000667DAE90C89DAE9100102460B46FDF7B4
:1027000065FD02460B4640464946FDF75DFDDAE9A8
:102710001223FDF75BFD02460B4630463946FDF7B6
:102720000BFF02460B4620462946FDF74FFD0246A9
:102730000B46DAE91401FDF749FDCAE91401DAE9AB
:10274000146702AC51462046FFF798FF00943246CA
:102750003B465046FFF715FFCAE9140106B0BDE835
:10276000F0872DE9D0438AB00446D0E90C23C0E9B4
:102770001023D0E90A01D4E90823FDF725FDC4E9B7
:102780000C01D4E90C23D4E90E01FDF71FFDC4E9C7
:102790000E01D4E90E8902AE21463046FFF752FF02
:1027A000009642464B462046FFF7EBFEC4E90E0179
:1027B000D4E90C23D4E90201FDF7BEFE06460F461C
:1027C000D4E90E23D4E90401FDF7B6FE02460B4618
:1027D00030463946FDF7FAFC06460F46D4E906892D
:1027E000D4E90C01D4E91023FDF7EEFC02460B46B8
:1027F00040464946FDF7A0FE02460B4630463946A4
:10280000FDF7E4FCC4E91401D4E9148906AE2146BD
:102810003046FFF733FF009642464B462046FFF70F
:10282000B0FEC4E914010AB0BDE8D08310B5044677
:102830000368012B05D0022B06D02046FFF7FFFED0
:1028400010BDFFF722FFF8E7FFF78BFFF5E7000069
:1028500082B0002100910B4B5A6C42F480425A64C2
:102860005A6C02F480420092009A01911A6C42F074
:1028700080521A641B6C03F080530193019B02B0D9
:10288000704700BF00380240FEE7FEE7FEE7FEE7C4
:10289000FEE770477047704708B500F0CDFD08BDF2
:1028A00008B5024800F096FF08BD00BF681500207B
:1028B00008B5024802F064FC08BD00BFA016002065
:1028C00008B5024802F05CFC08BD00BF58160020A5
:1028D00008B5024801F0A1FD08BD00BF00140020AA
:1028E00008B5024802F04CFC08BD00BFC815002026
:1028F0000120704708B50CF00FF9162303604FF064
:10290000FF3008BD08B54FF0FF31FFF7F3FFFEE7DA
:1029100070B50C461646002506E0AFF30080214650
:1029200001F8010B01350C46B542F6DB304670BDAF
:1029300070B50C461646002504E014F8010BAFF301
:1029400000800135B542F8DB304670BD4FF0FF30F6
:1029500070474FF400534B600020704701207047D0
:102960000020704710B503460C4A0D490D48006819
:1029700040B10C4800680344521A934206D8094AF1
:10298000136010BD0748084C0460F2E70CF0C4F86F
:102990000C2303604FF0FF30F3E700BF000002207C
:1029A000000400006C130020B01A002070470000E3
:1029B00000B58DB02422002103A80BF06FFF002387
:1029C0000193029312484FF080420260436083609B
:1029D0004FF0FF32C260036183610323039301233D
:1029E0000593099303A901F08BFE50B900230193CD
:1029F000029301A9064802F007F928B90DB05DF865
:102A000004FBFFF7D9FBF1E7FFF7D6FBF6E700BFC2
:102A1000D814002000B58DB02422002103A80BF0AB
:102A20003DFF0023019302931148124A0260436064
:102A300083604FF6FF72C2600361836103230393D7
:102A400001230593099303A901F05AFE50B900230D
:102A50000193029301A9064802F0D6F828B90DB0F7
:102A60005DF804FBFFF7A8FBF1E7FFF7A5FBF6E72E
:102A7000901400200004004000B58DB024220021F5
:102A800003A80BF00BFF0023019302931148124A95
:102A90000260436083604FF6FF72C260036183612E
:102AA0000323039301230593099303A901F028FE4F
:102AB00050B900230193029301A9064802F0A4F83B
:102AC00028B90DB05DF804FBFFF776FBF1E7FFF7DF
:102AD00073FBF6E7481400200008004000B583B0FF
:102AE0000023009301930F480F4A02605322426073
:102AF000836040F2E732C260836101F0A9FD50B902
:102B00000023009301936946064802F07DF828B936
:102B100003B05DF804FBFFF74FFBF1E7FFF74CFB59
:102B2000F6E700BF001400200014004000B58DB08F
:102B30002422002103A80BF0B1FE0023019302938D
:102B40001248134A0260436083604FF6FF72C2600E
:102B50000361436183610323039301230593099375
:102B600003A901F0CDFD50B900230193029301A9FF
:102B7000064802F049F828B90DB05DF804FBFFF7EC
:102B80001BFBF1E7FFF718FBF6E700BFB8130020C7
:102B90000004014000B585B0002300930193029327
:102BA00003931048104A026040F24F124260836063
:102BB00042F20F72C2600361836101F049FD50B9B6
:102BC0004FF4805300936946064801F0A7FE28B9E8
:102BD00005B05DF804FBFFF7EFFAF1E7FFF7ECFA59
:102BE000F6E700BF701300200040014000B585B03B
:102BF00003681D4A934208D01C4A934212D01C4AD3
:102C0000934223D005B05DF804FB00230193194BD8
:102C10005A6C42F001025A645B6C03F001030193A9
:102C2000019BEFE700210291124B1A6C42F0200247
:102C30001A641B6C03F020030293029B0A463720A0
:102C400000F074FC372000F081FCDBE700230393E5
:102C5000084B5A6C42F480325A645B6C03F4803344
:102C60000393039BCEE700BF000001400014004027
:102C7000004001400038024070B58EB00023099337
:102C80000A930B930C930D930368B3F1804F0AD012
:102C9000514A93423ED0514A93425BD0504A9342AC
:102CA00079D00EB070BD0024009403F50E331A6C79
:102CB00042F001021A641A6C02F001020092009ABA
:102CC00001941A6B42F001021A631A6B02F00102BE
:102CD0000192019A02941A6B42F002021A631B6B72
:102CE00003F002030293029B4FF400430993022670
:102CF0000A9601250D9509A93A4800F059FE0823C6
:102D000009930A960B940C940D9509A9364800F086
:102D10004FFEC6E700210391344B1A6C42F00202C9
:102D20001A641A6C02F002020392039A04911A6B5D
:102D300042F001021A631B6B03F001030493049B2E
:102D4000C023099302230A930D9309A9254800F093
:102D50002FFEA6E700210591244B1A6C42F00402D5
:102D60001A641A6C02F004020592059A06911A6B15
:102D700042F008021A631B6B03F008030693069BDC
:102D80004FF44053099302230A930D9309A918485D
:102D900000F00EFE85E700210791144B5A6C42F0BB
:102DA00002025A645A6C02F002020792079A0891D2
:102DB0001A6B42F004021A631B6B03F004030893BE
:102DC000089BC023099302230A9303230D9309A9A7
:102DD000084800F0EDFD64E70004004000080040F2
:102DE000000401400000024000040240003802409C
:102DF000000C02400008024000B587B00023019398
:102E0000029303930493059302680F4B9A4202D0F6
:102E100007B05DF804FB002300930C4B1A6B42F0E3
:102E200010021A631B6B03F010030093009B4FF416
:102E3000D4430193022302930123059301A904487B
:102E400000F0B6FDE4E700BF00000140003802409A
:102E50000010024010B596B00024129413941494FC
:102E600015941094119409940A940B940C940D9455
:102E70000E940F942022214601A80BF00FFD3B4831
:102E80003B4B036007234360846040F2E733C36039
:102E900004614461846101F0DBFB00284BD14FF4F5
:102EA0008053129312A9314801F038FD002845D112
:102EB0002E4801F0F9FB002843D100231093119311
:102EC00010A92A4801F0A0FE00283DD160230993F3
:102ED00000220A920B920C920D920E920F9209A967
:102EE000224801F0A1FC002831D1042209A91F4881
:102EF00001F09AFC70BB082209A91C4801F094FC5F
:102F000058BB0C2209A9194801F08EFC40BB0023D4
:102F1000019302930393049305934FF40052069296
:102F2000089301A9114801F0B5FEE0B90F48FFF779
:102F300063FF16B010BDFFF73FF9B0E7FFF73CF9AC
:102F4000B6E7FFF739F9B8E7FFF736F9BEE7FFF75D
:102F500033F9CAE7FFF730F9CDE7FFF72DF9D0E7EE
:102F6000FFF72AF9D3E7FFF727F9DFE7201500205D
:102F70000000014008B50A480A4B03604FF4E133F2
:102F8000436000238360C36003610C22426183615C
:102F9000C36101F0D4FF00B908BDFFF70DF9FBE7ED
:102FA00030170020004C004008B50A480A4B036067
:102FB0004FF41653436000238360C36003610C2207
:102FC00042618361C36101F0BAFF00B908BDFFF738
:102FD000F3F8FBE7E81600200050004008B50A4867
:102FE0000A4B03604FF4E133436000238360C36006
:102FF00003610C2242618361C36101F0A0FF00B94B
:1030000008BDFFF7D9F8FBE7A0160020001001402B
:1030100008B50A480A4B03604FF4E13343600023CC
:103020008360C36003610C2242618361C36101F06C
:1030300086FF00B908BDFFF7BFF8FBE75816002070
:103040000044004008B50A480A4B03604FF4E133DE
:10305000436000238360C36003610C22426183618B
:10306000C36101F06CFF00B908BDFFF7A5F8FBE7ED
:10307000101600200048004008B50A480A4B0360BB
:103080004FF4E133436000238360C36003610C228B
:1030900042618361C36101F052FF00B908BDFFF7CF
:1030A0008BF8FBE7C815002000140140F0B593B081
:1030B00000230D930E930F931093119303689B4A73
:1030C000934214D004469A4A934234D0994A934288
:1030D00069D0994A934200F09280984A934200F056
:1030E000D480974A934200F0F48013B0F0BD0021E1
:1030F0000091944B1A6C42F400221A641A6C02F488
:1031000000220092009A01911A6B42F004021A63A5
:103110001B6B03F004030193019B4FF440630D9379
:1031200002230E9303231093082311930DA98648BD
:1031300000F03EFCD9E700240294824B1A6C42F462
:1031400080121A641A6C02F480120292029A03949A
:103150001A6B42F004021A631A6B02F00402039223
:10316000039A04941A6B42F008021A631B6B03F073
:1031700008030493049B4FF480530D9302270E978A
:1031800003261096082511950DA96F4800F010FC34
:1031900004230D930E970F94109611950DA96B486B
:1031A00000F006FCA1E700240594664B5A6C42F03F
:1031B00010025A645A6C02F010020592059A0694A5
:1031C0001A6B42F001021A631B6B03F001030693B2
:1031D000069B4FF4C0630D9302230E9303231093B9
:1031E000072311930DA95A4800F0E2FB224621461D
:1031F000252000F09BF9252000F0A8F975E70025AF
:103200000795504B1A6C42F400321A641A6C02F49F
:1032100000320792079A08951A6B42F001021A636E
:103220001B6B03F001030893089B0C230D930223EF
:103230000E9303231093072311930DA9444800F024
:10324000B7FB4448444B03604FF000634360856024
:10325000C5604FF480630361456185614FF48073FD
:10326000C3610562456200F0F1F958B9394BE36377
:103270009C6300221146262000F058F9262000F019
:1032800065F932E7FEF798FFF0E7002109912D4B31
:103290001A6C42F480221A641A6C02F48022099299
:1032A000099A0A911A6B42F002021A631B6B03F02F
:1032B00002030A930A9B4FF440630D9302230E937B
:1032C00003231093072311930DA9244800F070FBEA
:1032D0000BE700240B941B4B5A6C42F020025A64FB
:1032E0005A6C02F020020B920B9A0C941A6B42F06B
:1032F00040021A631B6B03F040030C930C9B4FF4CA
:1033000084430D9302230E930323109308231193F8
:103310000DA9134800F04CFB22462146472000F03F
:1033200005F9472000F012F9DFE600BF004C00402D
:1033300000500040001001400044004000480040A0
:10334000001401400038024000080240000C024016
:10335000000002406815002088600240000402401E
:1033600000180240DFF834D0FFF720FB0C480D496D
:103370000D4A002302E0D458C4500433C4188C42D0
:10338000F9D30A4A0A4C002301E013600432A24236
:10339000FBD30BF0C7FBFEF763FF70470000022072
:1033A00000000020C80600209C550108C806002027
:1033B000B01A0020FEE7000010B504460E4B1A7844
:1033C0004FF47A73B3FBF2F30C4A1068B0FBF3F0DE
:1033D00000F0C0F868B90F2C01D901200AE00022E2
:1033E00021464FF0FF3000F0A1F8054B1C60002093
:1033F00000E0012010BD00BF0800002004000020F4
:103400000C00002008B50B4B1A6842F400721A60D9
:103410001A6842F480621A601A6842F480721A6074
:10342000032000F071F80F20FFF7C6FFFFF710FA36
:10343000002008BD003C0240034A1168034B1B7882
:103440000B441360704700BF78170020080000206D
:10345000014B1868704700BF7817002038B5044644
:10346000FFF7F6FF0546B4F1FF3F02D0044B1B788F
:103470001C44FFF7EDFF401BA042FAD338BD00BF4C
:1034800008000020002807DB00F01F02400901238C
:103490009340024A42F82030704700BF00E100E04C
:1034A000002808DB0901C9B200F1604000F5614065
:1034B00080F80013704700F00F000901C9B2014BFA
:1034C0001954704714ED00E000B500F00700C0F19A
:1034D000070CBCF1040F28BF4FF0040C031D062B92
:1034E0000FD9C31E4FF0FF3E0EFA0CF021EA000187
:1034F00099400EFA03FE22EA0E0241EA02005DF84C
:1035000004FB0023EEE70000074AD36823F4E063DE
:103510001B041B0C000200F4E060034343F0BF6394
:1035200043F40033D360704700ED00E010B504466B
:10353000054BD868C0F30220FFF7C6FF01462046BE
:10354000FFF7AEFF10BD00BF00ED00E008B5FFF7CC
:1035500099FF08BD0138B0F1807F0BD24FF0E02316
:103560005861054AF02182F8231000209861072253
:103570001A6170470120704700ED00E010B4036845
:10358000D9B210390B4AA2FB014212090A4CA25CC3
:10359000C2655F2908D923F47F7323F00303043342
:1035A0008365806D10BC704723F47F7323F00303A1
:1035B0008365F6E7ABAAAAAAA03B0108836A8269E1
:1035C00092B9012B0AD0022B02D00BB10020704718
:1035D000C36A13F0807F28D100207047C36AB3F11B
:1035E000C07F24D000207047B2F5005F09D0022BC5
:1035F00025D9032B25D1C36A13F0807F23D1002066
:103600007047032B03D8DFE803F01404140A0020EA
:103610007047C36A13F0807F0DD100207047C36AE2
:10362000B3F1C07F09D0002070470120704701200E
:10363000704701207047012070470120704701202A
:1036400070470020704701207047000070B50446A5
:10365000FFF7FEFE002C5BD00546022384F83530D0
:10366000002384F834302268136823F001031360C8
:1036700023681A6812F0010F0AD0FFF7E9FE431B16
:10368000052BF5D920236365032084F8350070BD30
:103690001A68204911406268A0680243E06802434A
:1036A0002069024360690243A0690243E069024362
:1036B000206A02430A43616A04291ED01A60266800
:1036C000756925F00705636A1D43042B07D1A36ABA
:1036D0001D43E36A1BB12046FFF770FF90B9756187
:1036E0002046FFF74BFFE26D3F23934083600020AD
:1036F0006065012384F83530C9E7E16A206B014336
:103700000A43DBE740236365012084F83500BEE708
:103710000120BCE73F8010F070B50446866DFFF7CE
:1037200097FE94F83530DBB2022B06D08023636518
:10373000002384F83430012070BD054622681368E8
:1037400023F0160313602268536923F0800353614A
:10375000236CE3B12268136823F008031360226826
:10376000136823F00103136023681B6813F0010F33
:1037700011D0FFF76DFE431B052BF5D920236365A0
:10378000032084F83500002384F83430D4E7A36C98
:10379000002BDFD1E3E7E26D3F239340B3600123C9
:1037A00084F83530002084F83400C5E790F83530CF
:1037B000DBB2022B03D08023436501207047052331
:1037C00080F835300268136823F00103136000208D
:1037D00070470000F0B583B0044600230193724B9C
:1037E0001D68724BA3FB0535AD0A876D3E68C26D3F
:1037F00008239340334210D003681A6812F0040F74
:103800000BD01A6822F004021A60C26D082393409C
:10381000BB60436D43F001034365E26D01239340B8
:10382000334209D02268526912F0800F04D0BB6085
:10383000636D43F002036365E26D042393403342FA
:1038400009D02268126812F0020F04D0BB60636DC9
:1038500043F004036365E26D10239340334224D0A8
:103860002268126812F0080F1FD0BB6023681A6824
:1038700012F4802F0DD01B6813F4002F04D1236C99
:103880009BB12046984710E0A36C73B1204698473F
:103890000BE01A6812F4807F03D11A6822F0080244
:1038A0001A60236C0BB120469847E26D20239340A9
:1038B000334255D02268126812F0100F50D0BB600E
:1038C00094F83530DBB2052B0ED023681A6812F459
:1038D000802F33D01B6813F4002F2AD1636C002B88
:1038E0003ED0204698473BE02268136823F0160339
:1038F00013602268536923F080035361236CA3B1E2
:103900002268136823F008031360E26D3F2393409D
:10391000BB60012384F83530002384F83430236DF4
:10392000002B3FD0204698473CE0A36C002BE7D10A
:10393000EBE7E36BA3B12046984711E01A6812F455
:10394000807F09D11A6822F010021A60012384F8DE
:103950003530002384F83430E36B0BB120469847B0
:10396000636DFBB1636D13F0010F17D0052384F86D
:1039700035302268136823F001031360019B013383
:103980000193AB4204D823681B6813F0010FF5D1F3
:10399000012384F83530002384F83430E36C0BB114
:1039A0002046984703B0F0BD04000020B5814E1BAF
:1039B00000230F2B00F2EC8030B583B068E08568FF
:1039C0004FEA430E032404FA0EF425EA0405CC68FA
:1039D00004FA0EF42C438460446824EA02044A6822
:1039E000C2F300129A40224342605FE0DC080834D0
:1039F00050F8242003F00705AD004FF00F0E0EFA2B
:103A000005FE22EA0E0E0A69AA4042EA0E0240F8BA
:103A100024205FE0072200E0002202FA0EF22A438F
:103A200002345C4D45F824205B4A94686FEA0C022E
:103A300024EA0C05D1F804E01EF4801F01D04CEA02
:103A40000405554CA560E46802EA0405D1F804E0D9
:103A50001EF4001F01D04CEA04054F4CE560646879
:103A600002EA0405D1F804E01EF4003F01D04CEA5C
:103A70000405494C6560246822404D6815F4803F78
:103A800001D04CEA0402444C226001330F2B7DD854
:103A900001229A400C6804EA020C32EA0404F4D1D0
:103AA0004C6804F00304013C012C88D94A6802F0F8
:103AB0000302032A09D0C4685D000322AA4024EA55
:103AC00002048A68AA402243C2604A6802F00302E4
:103AD000022A8BD004684FEA430E032202FA0EF248
:103AE00024EA02044A6802F0030202FA0EF22243B8
:103AF00002604A6812F4403FC7D000220192274A70
:103B0000546C44F480445464526C02F48042019238
:103B1000019A9C08A51C1F4A52F8255003F0030E79
:103B20004FEA8E0E0F2202FA0EF225EA02051C4A17
:103B300090423FF471AF02F5806290421AD002F5D4
:103B40008062904218D002F58062904216D002F551
:103B50008062904214D002F58062904212D002F549
:103B60008062904210D002F5806290423FF452AFE2
:103B7000082252E7012250E702224EE703224CE7D7
:103B800004224AE7052248E7062246E703B030BD93
:103B9000704700BF00380140003C0140003802403F
:103BA000000002400AB181617047090481617047D9
:103BB000002800F0E08170B582B00446036813F07D
:103BC000010F3BD09F4B9B6803F00C03042B2CD0C0
:103BD0009C4B9B6803F00C03082B21D06368B3F562
:103BE000803F4FD0B3F5A02F52D0964B1A6822F4E5
:103BF00080321A601A6822F480221A606368002BEF
:103C000050D0FFF725FC05468E4B1B6813F4003F90
:103C100014D1FFF71DFC401B6428F5D90320B1E146
:103C2000884B5B6813F4800FD8D0864B1B6813F465
:103C3000003F03D06368002B00F09F81236813F0DE
:103C4000020F54D07F4B9B6813F00C0F3ED07D4B7E
:103C50009B6803F00C03082B33D0E368002B68D07B
:103C6000794B01221A60FFF7F3FB0546754B1B6881
:103C700013F0020F54D1FFF7EBFB401B0228F5D9DC
:103C800003207FE16F4A136843F480331360B5E784
:103C90006C4B1A6842F480221A601A6842F480322F
:103CA0001A60ABE7FFF7D4FB0546664B1B6813F4BD
:103CB000003FC3D0FFF7CCFB401B6428F5D903209D
:103CC00060E1604B5B6813F4800FC6D15D4B1B68ED
:103CD00013F0020F03D0E368012B40F05081594AE2
:103CE000136823F0F803216943EAC10313602368D2
:103CF00013F0080F42D063696BB3534B0122C3F832
:103D0000802EFFF7A5FB05464E4B5B6F13F0020FAD
:103D100034D1FFF79DFB401B0228F5D9032031E188
:103D2000484A136823F0F803216943EAC10313608A
:103D3000DDE7454B00221A60FFF78AFB0546414B41
:103D40001B6813F0020FD2D0FFF782FB401B022842
:103D5000F5D9032016E13C4B0022C3F8802EFFF773
:103D600077FB0546374B5B6F13F0020F06D0FFF76A
:103D70006FFB401B0228F5D9032003E1236813F0F1
:103D8000040F77D02F4B1B6C13F0805F33D10023CF
:103D900001932C4B1A6C42F080521A641B6C03F096
:103DA00080530193019B0125284B1B6813F4807FEE
:103DB00023D0A368012B34D0052B38D0214B1A6FA8
:103DC00022F001021A671A6F22F004021A67A36830
:103DD000002B3DD0FFF73CFB06461A4B1B6F13F040
:103DE000020F46D1FFF734FB801B41F28833984223
:103DF000F3D90320C6E00025D6E7144A136843F43C
:103E000080731360FFF724FB0646104B1B6813F406
:103E1000807FCED1FFF71CFB801B0228F5D9032041
:103E2000B0E0084A136F43F001031367CFE7054B77
:103E30001A6F42F004021A671A6F42F001021A6701
:103E4000C5E700BF00380240000047420070004054
:103E5000FFF7FEFA0646524B1B6F13F0020F08D015
:103E6000FFF7F6FA801B41F288339842F3D903201A
:103E700088E0EDB9A369002B00F08380484A92687E
:103E800002F00C02082A51D0022B17D0454B002219
:103E90001A66FFF7DDFA0446414B1B6813F0007FFA
:103EA00042D0FFF7D5FA001B0228F5D9032069E0BC
:103EB0003B4A136C23F080531364DBE7394B002239
:103EC0001A66FFF7C5FA0546354B1B6813F0007FED
:103ED00006D0FFF7BDFA401B0228F5D9032051E0B8
:103EE000E369226A1343626A43EA8213A26A5208B0
:103EF000013A43EA0243E26A43EA0263284A536012
:103F0000284B01221A66FFF7A3FA0446244B1B68CC
:103F100013F0007F06D1FFF79BFA001B0228F5D9AA
:103F200003202FE000202DE000202BE0012B2BD0E0
:103F30001B4B5B6803F48001E269914226D103F0D8
:103F40003F02216A8A4223D1616A47F6C0721A4051
:103F5000B2EB811F1ED103F44031A26A5208013A2C
:103F6000B1EB024F18D103F07063E26AB3EB026F5A
:103F700014D1002006E001207047012002E001205A
:103F800000E0002002B070BD0120FBE70120F9E74E
:103F90000120F7E70120F5E70120F3E70120F1E731
:103FA000003802400000474208B5264B9B6803F0EA
:103FB0000C03042B41D0082B41D1224B5A6802F04C
:103FC0003F025B6813F4800F12D01E4B5968C1F397
:103FD00088111D480023A1FB0001FCF7A5FD194B2A
:103FE0005B68C3F3014301335B00B0FBF3F027E0F0
:103FF000144B5868C0F388104FEA401CBCEB000C0F
:104000006EEB0E0E4FEA8E1343EA9C634FEA8C115F
:10401000B1EB0C0163EB0E03DB0043EA5173C90003
:1040200011EB000C43F10003990200234FEA8C20AE
:1040300041EA9C51FCF778FDD1E7034800E00348D2
:1040400008BD00BF0038024040787D010024F40024
:10405000002800F09B8070B50D4604464F4B1B684E
:1040600003F007038B4208D2CBB24C4A137013689B
:1040700003F007038B4240F08B80236813F0020F9C
:1040800017D013F0040F04D0454A936843F4E0536B
:104090009360236813F0080F04D0414A936843F4F7
:1040A000604393603E4A936823F0F003A1680B439A
:1040B0009360236813F0010F32D06368012B21D085
:1040C0009A1E012A25D9364A126812F0020F61D0D1
:1040D00033498A6822F0030213438B60FFF7B8F973
:1040E00006462F4B9B6803F00C036268B3EB820F0C
:1040F00016D0FFF7ADF9801B41F288339842F0D912
:10410000032042E0264A126812F4003FE0D1012069
:104110003BE0234A126812F0007FD9D1012034E03D
:104120001E4B1B6803F00703AB4207D9EAB21B4BD7
:104130001A701B6803F00703AB422DD1236813F0FC
:10414000040F06D0164A936823F4E053E1680B434A
:104150009360236813F0080F07D0114A936823F483
:104160006043216943EAC1039360FFF71DFF0C4BD5
:104170009B68C3F303130B4AD35CD8400A4B186007
:104180000A4B1868FFF718F9002070BD012070472E
:104190000120FAE70120F8E70120F6E7003C0240A1
:1041A00000380240903B0108040000200C00002071
:1041B000014B1868704700BF0400002008B5FFF7E6
:1041C000F7FF044B9B68C3F38223034AD35CD840B8
:1041D00008BD00BF00380240883B010808B5FFF762
:1041E000E7FF044B9B68C3F34233034AD35CD840D8
:1041F00008BD00BF00380240883B010830B4036AA4
:10420000026A22F0010202624268846924F0730C9F
:104210000C6844EA0C0423F0020C8B6843EA0C039C
:10422000114DA84203D005F58065A84205D123F0C1
:104230000803CD682B4323F004030B4DA84203D0A1
:1042400005F58065A84207D122F440724D6945EA20
:10425000020C8A6942EA0C02426084614A68426345
:10426000036230BC704700BF0000014030B4036AF5
:10427000026A22F4807202624268C46924F0730CFC
:104280000C6844EA0C0523F400738C6843EA0423A9
:10429000114CA04203D004F58064A04206D123F45F
:1042A0000063CC6843EA042323F480630A4CA042F1
:1042B00003D004F58064A04207D122F440524C6937
:1042C00042EA04128C6942EA04124260C5614A68FB
:1042D000C263036230BC70470000014030B4036A1F
:1042E000026A22F4805202624468C26922F4E64201
:1042F0000D6842EA052223F400538D6843EA053332
:10430000094DA84203D005F58065A84204D124F4E4
:1043100080444D6944EA85144460C2614A6802647D
:10432000036230BC704700BF0000014010B4036A54
:10433000046A24F001040462846924F0F00C4CEA5D
:10434000021223F00A030B438261036210BC704720
:1043500010B4036A046A24F010040462846924F42B
:10436000704C4CEA023223F0A00343EA011382614D
:10437000036210BC7047836823F070030B4343F063
:10438000070383607047000090F83D30DBB2012BDB
:1043900037D1022380F83D300268D36843F001032F
:1043A000D3600368194A934220D0B3F1804F1DD0E7
:1043B000A2F57C42934219D002F58062934215D057
:1043C00002F58062934211D002F5784293420DD0FB
:1043D00002F57052934209D0A2F59432934205D06F
:1043E0001A6842F001021A60002070479A6802F0D1
:1043F0000702062A07D01A6842F001021A6000205C
:104400007047012070470020704700BF0000014046
:104410007047704770477047704770B5044603682F
:10442000DE681D6915F0020F10D016F0020F0DD0D6
:104430006FF002021A610123037703689B6913F08E
:10444000030F5ED0FFF7E6FF0023237715F0040F7C
:1044500012D016F0040F0FD023686FF004021A6117
:104460000223237723689B6913F4407F4FD02046B3
:10447000FFF7D0FF0023237715F0080F12D016F0B6
:10448000080F0FD023686FF008021A610423237706
:104490002368DB6913F0030F40D02046FFF7BAFF13
:1044A0000023237715F0100F12D016F0100F0FD045
:1044B00023686FF010021A61082323772368DB69F1
:1044C00013F4407F31D02046FFF7A4FF0023237769
:1044D00015F0010F02D016F0010F2DD115F0800F4D
:1044E00002D016F0800F2FD115F0400F02D016F039
:1044F000400F31D115F0200F02D016F0200F33D12C
:1045000070BDFFF786FF2046FFF785FF9CE720463A
:10451000FFF77FFF2046FFF77EFFABE72046FFF760
:1045200078FF2046FFF777FFBAE72046FFF771FFD5
:104530002046FFF770FFC9E723686FF001021A6198
:104540002046FDF72DFEC9E723686FF080021A614F
:10455000204600F0C9FBC7E723686FF040021A61EC
:104560002046FFF759FFC5E723686FF020021A6164
:10457000204600F0B8FBC3E70368344A904212D0EB
:10458000B0F1804F0FD0A2F57C4290420BD002F5E3
:104590008062904207D002F58062904203D002F51B
:1045A0007842904203D123F070034A681343274AAC
:1045B00090422AD0B0F1804F27D0A2F57C429042A1
:1045C00023D002F5806290421FD002F580629042B3
:1045D0001BD002F57842904217D002F570529042FB
:1045E00013D002F5806290420FD002F580629042B3
:1045F0000BD0A2F59832904207D002F5806290422B
:1046000003D002F58062904203D123F44073CA685C
:10461000134323F080034A69134303608B68C3622A
:104620000B688362094B984203D003F5806398427C
:1046300001D10B69036301234361036913F0010F87
:1046400003D0036923F001030361704700000140B8
:1046500040B310B5044690F83D30F3B1022384F81E
:104660003D30214651F8040BFFF786FF012384F803
:10467000463084F83E3084F83F3084F8403084F887
:10468000413084F8423084F8433084F8443084F870
:10469000453084F83D30002010BD80F83C30FEF7F6
:1046A000A5FADBE70120704740B310B5044690F847
:1046B0003D30F3B1022384F83D30214651F8040B1C
:1046C000FFF75AFF012384F8463084F83E3084F81F
:1046D0003F3084F8403084F8413084F8423084F828
:1046E000433084F8443084F8453084F83D3000206D
:1046F00010BD80F83C30FFF78BFEDBE701207047F0
:10470000002856D070B50D46044690F83D30002B79
:104710004AD0022384F83D302268936823F4804312
:1047200023F007039360214651F8040BFFF724FFA1
:1047300021688B688A690E6A2868184322F44072DF
:1047400022F00302AB68D5F818C043EA0C231343E8
:1047500023F47C4323F0FC03EA68D5F81CC042EA4A
:104760000C221A432B6A1B03D5F810C043EA0C1322
:10477000134326F0AA066A686D6942EA05123243BD
:10478000886021688B6123681A62012384F84630AF
:1047900084F83E3084F83F3084F8423084F8433067
:1047A00084F83D30002070BD80F83C30FEF764FA9C
:1047B000AFE701207047000030B4036A026A22F0BC
:1047C000100202624468826922F4E6420D6842EAFD
:1047D000052223F020038D6843EA0513114DA842FA
:1047E00003D005F58065A84206D123F08003CD688B
:1047F00043EA051323F040030A4DA84203D005F510
:104800008065A84207D124F440644D6944EA8504D8
:104810008D6944EA8504446082614A688263036268
:1048200030BC70470000014038B590F83C30012B97
:1048300066D004460D46012380F83C300C2A5AD835
:10484000DFE802F0075959591B595959305959593C
:1048500044000068FFF7D2FC2268936943F0080324
:1048600093612268936923F004039361226893693A
:1048700029690B43936100203EE00068FFF79CFF2D
:104880002268936943F4006393612268936923F477
:104890008063936122689369296943EA01239361E4
:1048A000002029E00068FFF7E1FC2268D36943F0AB
:1048B0000803D3612268D36923F00403D36122681B
:1048C000D36929690B43D361002015E00068FFF725
:1048D00005FD2268D36943F40063D3612268D3697C
:1048E00023F48063D3612268D369296943EA0123F1
:1048F000D361002000E00120002384F83C3038BD63
:104900000220FCE710B4846824F47F4C42EA0322BE
:104910000A4342EA0C02826010BC704790F83C30B7
:10492000012B78D010B50446012380F83C300223D7
:1049300080F83D300268936823F47F4323F07703C7
:1049400093600B68602B4CD029D8402B54D00CD9E5
:10495000502B22D1CA6849680068FFF7E7FC502154
:104960002068FFF708FD002005E0202B0DD009D9B5
:10497000302B0AD00120012384F83D30002384F835
:104980003C3010BD0BB1102B05D119462068FFF744
:10499000F2FC0020EFE70120EDE70120EBE7B3F5A3
:1049A000805F34D0B3F5005F0CD1CB684A6889686A
:1049B0000068FFF7A7FF2268936843F48043936081
:1049C0000020D8E7702B24D1CB684A68896800683A
:1049D000FFF798FF2268936843F077039360002005
:1049E000C9E7CA6849680068FFF7B2FC602120681F
:1049F000FFF7C1FC0020BEE7CA6849680068FFF7FE
:104A000095FC40212068FFF7B6FC0020B3E70020AA
:104A1000B1E70120AFE70220704701F01F014FF01E
:104A2000010C0CFA01FC036A23EA0C030362036A1B
:104A30008A4013430362704710B5044608460029B4
:104A400042D194F83E30DBB2013B18BF0123002B6A
:104A50006ED1002851D1022384F83E300122014654
:104A60002068FFF7DAFF2368334A934203D002F548
:104A70008062934203D15A6C42F400425A64236824
:104A80002D4A934249D0B3F1804F46D0A2F57C42E3
:104A9000934242D002F5806293423ED002F580629A
:104AA00093423AD002F57842934236D002F57052E2
:104AB000934232D0A2F5943293422ED01A6842F03B
:104AC00001021A60002032E0042908D008290DD024
:104AD00094F84130DBB2013B18BF0123B7E794F8EB
:104AE0003F30DBB2013B18BF0123B0E794F8403000
:104AF000DBB2013B18BF0123A9E7042805D0082831
:104B000007D0022384F84130A8E7022384F83F301D
:104B1000A4E7022384F84030A0E79A6802F0070275
:104B2000062A07D01A6842F001021A60002010BD60
:104B30000120FCE70020FAE70000014038B50446F8
:104B400090F83E00C0B294F83F3094F84220D2B2C0
:104B500094F843C00D46B1B9012849D1012A48D182
:104B6000022384F83E3084F842307DB3042D39D0DE
:104B7000012200212068FFF750FF01220421206854
:104B8000FFF74BFF27E0DBB25FFA8CFC042912D061
:104B9000012833D1012B2CD1012A31D1BCF1010FD5
:104BA00030D1022384F83E3084F83F3084F842301C
:104BB00084F84330D9E7012B1CD1BCF1010F1BD184
:104BC000022384F83F3084F84330CEE701220021ED
:104BD0002068FFF722FF2268136843F00103136087
:104BE000002006E0012204212068FFF716FFF2E70B
:104BF000012038BD0120FCE71846FAE70120F8E75C
:104C00001846F6E71046F4E790F83C20012A3CD01D
:104C100010B40346012280F83C20022280F83D2097
:104C200002685068946820F0700C086840EA0C0034
:104C300050601A68164882421AD0B2F1804F17D0DD
:104C4000A0F57C40824213D000F5806082420FD0F4
:104C500000F5806082420BD000F57840824207D098
:104C600000F57050824203D0A0F59430824204D106
:104C700024F08004496821439160012283F83D209B
:104C8000002083F83C0010BC70470220704700BF32
:104C900000000140024690F83C30012B21D0012356
:104CA00080F83C30CB6823F440738868034323F4D6
:104CB00080634868034323F400630868034323F4D4
:104CC00080530869034323F400534869034323F4E2
:104CD0008043C9690B4311684B64002082F83C0093
:104CE00070470220704770477047026802F10C035A
:104CF00053E8003F23F490730C3242E8003100295E
:104D0000F3D1026802F1140353E8003F23F00103DA
:104D1000143242E800310029F3D1036B012B05D096
:104D2000202380F84230002303637047026802F1B9
:104D30000C0353E8003F23F010030C3242E800312B
:104D40000029F3D1ECE790F84130DBB2212B01D000
:104D5000022070478368B3F5805F17D0036A5A1C3E
:104D600002621A7803685A60C38C9BB2013B9BB203
:104D7000C3844BB90268D36823F08003D360026810
:104D8000D36843F04003D360002070470369002BD1
:104D9000E4D1036A1B880268C3F308035360036A03
:104DA00002330362E0E7000010B5044602681369AD
:104DB00023F44053C1680B431361836802691A43AB
:104DC00043691A43C3691A430168CB6823F4164345
:104DD00023F00C031343CB600268536923F4407340
:104DE00081690B4353610368314A934206D002F54F
:104DF0008062934202D0FFF7E1F901E0FFF7EEF99C
:104E0000E369B3F5004F29D00021031849411B186D
:104E100041F10001C90041EA5371DB0018186368D1
:104E20004FEA83024FEA937341F10001FBF77CFEE6
:104E3000204AA2FB00314909642303FB11031B0133
:104E40003233A2FB03235B0903F0F00202EB0112F1
:104E500003F00F03216813448B6010BD0023021878
:104E600043EB0301121841F10001C90041EA5271FC
:104E7000D200101841F10001626892185B41FBF703
:104E800053FE0C4AA2FB00314909642303FB1103C2
:104E9000DB003233A2FB03235B095A0002F4F872F1
:104EA00002EB011203F00703216813448B60D4E77F
:104EB000001001401F85EB512DE9F04383B00546FA
:104EC0000E4617469946DDF828802B681C6836EA9E
:104ED00004040CBF01240024BC4228D1B8F1FF3FD8
:104EE000F3D0FEF7B5FAA0EB0900404523D8B8F19E
:104EF000000F22D02B68DA6812F0040FE5D0802E64
:104F0000E3D0402EE1D01A6812F0080FDDD0002463
:104F100001941A6801925B680193019B2846FFF790
:104F2000E4FE08236B6485F84040012000E0002087
:104F300003B0BDE8F0830320FAE70320F8E760B38D
:104F400010B5044690F8413013B3242384F841305F
:104F50002268D36823F40053D3602046FFF724FF70
:104F60002268136923F4904313612268536923F084
:104F70002A0353612268D36843F40053D3600020AE
:104F80006064202384F8413084F84230606310BDAF
:104F900080F84030FEF78AF8D7E7012070472DE906
:104FA000F04182B01E4690F84130DBB2202B56D142
:104FB00004460D469046002955D00AB901204FE01D
:104FC00000234364212380F84130FEF741FA07466D
:104FD000A4F82480A4F82680A368B3F5805F02D0EB
:104FE0004FF0000814E023692BB34FF000080FE0E6
:104FF000202384F84130032032E038F8023B226855
:10500000C3F308035360E28C92B2013A92B2E28495
:10501000E38C9BB293B100963B4600228021204650
:10502000FFF74AFF0028E3D1002DE6D015F8012B49
:1050300023685A60E7E7A8460025E9E700963B4663
:10504000002240212046FFF737FF18B9202384F8BB
:10505000413005E0202384F84130032000E00220A5
:1050600002B0BDE8F0810120FAE7704708B5016899
:10507000CA6822F04002CA60202280F84120FFF76F
:10508000F4FF002008BD704708B5806B0023C3857E
:10509000C384FFF7F8FF08BD704790F84230DBB2D9
:1050A000222B69D18368B3F5805F4FD0826AB3F554
:1050B000805F04D0002B56D10369002B53D10368C5
:1050C0005B681370836A01338362C38D9BB2013BBB
:1050D0009BB2C385002B51D100B583B00268D36861
:1050E00023F02003D3600268D36823F48073D36075
:1050F0000268536923F001035361202380F8423092
:1051000000234363036B012B33D100230363026845
:1051100002F10C0353E8003F23F010030C3242E885
:1051200000310029F3D103681A6812F0100F06D07D
:10513000002201921A6801925B680193019B818DA4
:10514000FFF7AAFF002003B05DF804FB0269002A04
:10515000ACD1826A03685B68C3F308031380836A77
:1051600002338362B1E703685B6803F07F03137067
:10517000A8E7FCF75BFEE5E70220704700207047D8
:1051800010B582B0044602681368D068516913F004
:105190000F0F09D113F0200F0CD010F0200F09D001
:1051A0002046FFF77AFF16E011F0010115D110F447
:1051B000907F12D1216B012979D013F0800F03D099
:1051C00010F0800F40F0148113F0400F03D010F066
:1051D000400F40F0118102B010BD13F0010F06D056
:1051E00010F4807F03D0626C42F00102626413F01D
:1051F000040F04D019B1626C42F00202626413F031
:10520000020F04D019B1626C42F00402626413F020
:10521000080F07D010F0200F00D119B1626C42F0D6
:1052200008026264626C002AD5D013F0200F02D00D
:1052300010F0200F29D123685B6903F04003626CF2
:1052400012F0080F00D163B32046FFF74EFD23682C
:105250005B6913F0400F20D0226802F1140353E879
:10526000003F23F04003143242E800310029F3D11B
:10527000E36B73B1624A1A65E06BFEF797FA002898
:10528000A9D0E06B036D9847A5E72046FFF705FF1F
:10529000D1E72046FFF7F7FE9DE72046FFF7F3FE34
:1052A00099E72046FFF7EFFE0023636493E713F0CE
:1052B000100F82D010F0100F3FF47FAF0023019346
:1052C0001368019353680193019B536913F0400FD6
:1052D00052D0E26B13685B689BB2002B3FF47BAF4C
:1052E000A18D99427FF677AFE385D369B3F5807FCF
:1052F00037D0226802F10C0353E8003F23F4807397
:105300000C3242E800310029F3D1226802F1140383
:1053100053E8003F23F00103143242E80031002932
:10532000F3D1226802F1140353E8003F23F0400355
:10533000143242E800310029F3D1202384F84230AE
:1053400000232363226802F10C0353E8003F23F09B
:1053500010030C3242E800310029F3D1E06BFEF774
:10536000DBF902236363A18DE38D9BB2C91A89B275
:105370002046FFF791FE2EE7A18DE38D9BB2C91A5F
:1053800089B2E38D9BB2002B3FF425AF00293FF497
:1053900022AF226802F10C0353E8003F23F490731C
:1053A0000C3242E800300028F3D1226802F11403E5
:1053B00053E8003F23F00103143242E80030002894
:1053C000F3D1202384F8423000232363226802F1C2
:1053D0000C0353E8003F23F010030C3242E8003086
:1053E0000028F3D1022363632046FFF755FEF2E65F
:1053F0002046FFF7A8FCEEE62046FFF737FEEAE678
:105400008950000881628285C2850023436422237B
:1054100080F84230036923B10268D36843F4807393
:10542000D3600268536943F0010353610268D36893
:1054300043F02003D3600020704708B590F8423055
:10544000DBB2202B08D149B10AB9012008BD0023E5
:105450000363FFF7D7FFF9E70220F7E70120F5E73D
:1054600003460846194608F0C3BC00BF06F0B2BDAB
:105470001EB400F089F81EBCFBF7FCFBF0B5027807
:10548000472A83B00C461D4619D0244E00203368AD
:1054900001909B683046984778B1019B1B68019347
:1054A00002272368314620461E6901AA0123B0471E
:1054B00020BB0746384603B0F0BD0127F1E743782B
:1054C0004E2BE2D18378552BDFD1C378432BDCD12F
:1054D0000379462B17D0432BD7D143792B2BD4D12B
:1054E00083792B2BD1D1C379012BCED850F8206CE6
:1054F00012BF5830304656F8786CC8E7019B2B60D5
:10550000384603B0F0BD43794F2BBED18379522B7F
:10551000BBD1C0790028B8D1014EB8E7403C0108A2
:10552000143C010810B5044600F07AF8224612F83F
:105530002039472B04D0836823BB8260012010BD33
:1055400063784E2BF7D1A378552BF4D1E378432B16
:10555000F1D12379432BEED163792B2BEBD1A379B6
:105560002B2BE8D1E379012BE5D854F8043C013327
:10557000012B44F8043CE1D1836844F8083C826084
:10558000012010BD00F052FB08B500F049F8836817
:1055900083B393F82020472A04D00022826003F1CD
:1055A000200008BD93F821204E2AF6D193F822203E
:1055B000552AF2D193F82320432AEED193F82420E0
:1055C000432AEAD193F825202B2AE6D193F8262006
:1055D0002B2AE2D193F82720012ADED8DA69013A92
:1055E000DA61002ADBD19969816000229A6103F1B6
:1055F000200008BD00F01AFB704700BF004870474C
:10560000A83B010810B504210446FFF72FFF2046F0
:1056100010BD00BF704700BF004870477C170020D6
:10562000004870477C170020024A03490348FFF7EF
:1056300017BF00BF00000020155600087C1700208F
:10564000502870B51DD0844600F00F000C2855D8A6
:10565000DFE800F0074426071E545454542A22075A
:105660001E00104650F8046B4EB10CF07004102C64
:1056700008BF11460E441CF0800F18BF36681E602C
:1056800070BDD01C20F0030050F8046B1E6070BD8C
:10569000104650F8086BE7E7104630F9026BE3E775
:1056A000104630F8026BDFE700261046344610F84B
:1056B000015B05F07F0E0EFA04FE15F0800F46EA3E
:1056C0000E0604F10704F2D11F2CCDD86D06CBD500
:1056D0004FF0FF3505FA04F42643C6E700261046CE
:1056E000344610F8015B05F07F0E0EFA04FE2D061D
:1056F00046EA0E0604F10704F3D4B5E707F0ECFE22
:10570000FF2808B5034612D003F07003302B08467B
:1057100013D005D8202B09D1BDE8084007F0D9BE29
:10572000402B06D1BDE8084007F0C0BE03D80020DA
:1057300008BD502BFBD007F0CFFEBDE8084007F0B6
:10574000C5BE00BFF8B50C461546064608B107F0C1
:10575000ADFE286014F8017BFF2F28D16860204639
:1057600010F8013BFF2B32D0102300242B7522466A
:1057700010F8011B01F07F039340090644EA03047B
:1057800002F10702F4D40444EC6010F8013B6B759D
:105790000024224610F8011B01F07F0393401C43B4
:1057A0000B0602F10702F5D404442C61F8BD314622
:1057B0003846FFF7A5FF224601462B1D3846FFF766
:1057C0003FFF0446204610F8013BFF2BCCD12B7540
:1057D0000024D9E72DE9F04F00F0030495B0002331
:1057E000012C0A930F46164613D0022C08D13146DD
:1057F000384607F045FE40B9082015B0BDE8F08FE7
:10580000002C00F0938007F067FE092015B0BDE87A
:10581000F08F10F0080400F09A800EAA0292009215
:1058200044F0020203920E910C221946304607F012
:105830007FF9304607F040FE04900028D7D0029A46
:1058400004993046FFF77EFF9DF84C300693814661
:1058500031461846FFF754FF0DF134080023059038
:1058600010901946CDF800800F22304607F03AF923
:105870000D9BDDF848B023F00103D94503F1FF3556
:1058800033D29DF84DA00E9C00215046FFF738FF03
:105890004A4601460BAB5046FFF7D2FE0021814637
:1058A0005046FFF72DFF4A4601460CAB5046FFF726
:1058B000C7FE002181465046FFF722FF4A460146B7
:1058C00043465046FFF7BCFE81460020024619F8C9
:1058D000011B01F07F03934018430B0602F10702FE
:1058E000F5D40B9B2344AB4219D94FF0000AD146A3
:1058F0000123039AD10740F1818000231946CDF896
:10590000008030460D220A9C07F0ECF8049BC7E9A2
:105910000B390D9B3B62C7E9094A06206DE70C9ADB
:105920001344AB4274D8CB45AED8DEE702073FF54F
:105930005EAF012303930EAB0293029A0092002301
:105940000C22194630460E9707F0F2F871E70EABBD
:1059500000930D6A02930D2223462146304607F03C
:10596000C1F80E9B9D4202D002230393E5E7029B00
:105970000093214623460C2230460E9707F0D8F8B4
:10598000D7F83090D7E90A43B9F1000F3DD004931E
:10599000A2460DF13408BAF1000FC0F203810325CD
:1059A00000231A461946CDF8008030460D9707F0BF
:1059B000BFF8002319460122CDF8008030460D942F
:1059C00007F0B6F8002319460F22CDF800803046C4
:1059D00007F088F80D9ACDF8008002F0010200234C
:1059E00042EA09020D9230460F22194607F0A0F84C
:1059F000022D62D0072015B0BDE8F08F039A120780
:105A00005FD4012B18BF5446C5D1384606F0AAFB17
:105A10000D9B002B3FF4EBAE0F9A03EB020900281D
:105A200000F0E38001380BEB0004B9F1000F3FF404
:105A3000DEAE039B13F00803089300F0DB80754B88
:105A40003B60754B7B60DDF818B0079600230BF0C8
:105A50000702CDF818900992994600210A4614F8D9
:105A6000010B00F07F039340050641EA030102F1B8
:105A70000702F4D41F2A05D8400603D5012393401A
:105A80005B42194300258A4626462A4616F8010B32
:105A900000F07F0393401D43030602F10702F5D493
:105AA0001F2A18D8460616D5012393405B421D4392
:105AB00019BB4FF001092C44CFE73846FFF732FD00
:105AC00098E7012B00F0A380BAF1000FC0F29B8091
:105AD0005446032564E781B94FF00109002DEAD14E
:105AE0004B46DDE90696002B3FF481AE039BD807B9
:105AF0003FF57DAE0024022552E7002921DC6FF03E
:105B00004043119E5B1A56F8231006EB83060FB133
