:020000040800F2
:1000000000000220D5590008014E0008034E0008E8
:10001000054E0008074E0008094E000800000000C9
:100020000000000000000000000000000B4E00086F
:100030000D4E0008000000000F4E0008114E000891
:10004000255A0008255A0008255A0008255A000894
:10005000255A0008255A0008255A0008255A000884
:10006000255A0008255A0008255A0008255A000874
:10007000255A0008255A0008255A0008255A000864
:10008000194E0008255A0008255A0008255A00086C
:10009000255A0008255A0008255A0008255A000844
:1000A000255A0008255A0008255A0008255A000834
:1000B000255A0008255A0008255A0008255A000824
:1000C000255A0008255A0008255A0008255A000814
:1000D000255A0008255A0008294E0008255A00080C
:1000E000255A0008255A0008255A0008255A0008F4
:1000F000255A0008255A0008255A0008255A0008E4
:10010000255A0008255A0008255A0008255A0008D3
:10011000255A0008255A0008394E0008494E0008A3
:10012000255A0008255A0008255A0008255A0008B3
:10013000255A0008255A0008255A0008255A0008A3
:10014000255A0008255A0008255A0008255A000893
:10015000255A0008255A0008255A0008594E00085B
:10016000255A0008255A0008255A0008255A000873
:10017000255A0008255A0008255A000800000000EA
:08018000255A0008255A000869
:1001C00081F0004102E000BF83F0004330B54FEA08
:1001D00041044FEA430594EA050F08BF90EA020F75
:1001E0001FBF54EA000C55EA020C7FEA645C7FEA08
:1001F000655C00F0E2804FEA5454D4EB5555B8BF2B
:100200006D420CDD2C4480EA020281EA030382EA9B
:10021000000083EA010180EA020281EA0303362D2D
:1002200088BF30BD11F0004F4FEA01314FF4801C00
:100230004CEA113102D0404261EB410113F0004F12
:100240004FEA03334CEA133302D0524263EB4303C9
:1002500094EA050F00F0A780A4F10104D5F1200E67
:100260000DDB02FA0EFC22FA05F2801841F10001C2
:1002700003FA0EF2801843FA05F359410EE0A5F196
:1002800020050EF1200E012A03FA0EFC28BF4CF0C7
:10029000020C43FA05F3C01851EBE37101F000457D
:1002A00007D54FF0000EDCF1000C7EEB00006EEB8A
:1002B0000101B1F5801F1BD3B1F5001F0CD3490814
:1002C0005FEA30004FEA3C0C04F101044FEA44526B
:1002D00012F5800F80F09A80BCF1004F08BF5FEAF2
:1002E000500C50F1000041EB045141EA050130BDD2
:1002F0005FEA4C0C404141EB0101013C28BFB1F5E4
:10030000801FE9D291F0000F04BF01460020B1FA2E
:1003100081F308BF2033A3F10B03B3F120020CDA01
:100320000C3208DD02F1140CC2F10C0201FA0CF0DF
:1003300021FA02F10CE002F11402D8BFC2F1200C44
:1003400001FA02F120FA0CFCDCBF41EA0C019040FA
:10035000E41AA2BF01EB0451294330BD6FEA040443
:100360001F3C1CDA0C340EDC04F11404C4F120022E
:1003700020FA04F001FA02F340EA030021FA04F340
:1003800045EA030130BDC4F10C04C4F1200220FA97
:1003900002F001FA04F340EA0300294630BD21FAD5
:1003A00004F0294630BD94F0000F83F4801306BF9B
:1003B00081F480110134013D4EE77FEA645C18BF8F
:1003C0007FEA655C29D094EA050F08BF90EA020F26
:1003D00005D054EA000C04BF1946104630BD91EA1E
:1003E000030F1EBF0021002030BD5FEA545C05D121
:1003F0004000494128BF41F0004130BD14F5800460
:100400003CBF01F5801130BD01F0004545F0FE41D3
:1004100041F470014FF0000030BD7FEA645C1ABF08
:10042000194610467FEA655C1CBF0B46024650EA3F
:10043000013406BF52EA033591EA030F41F400216B
:1004400030BD00BF90F0000F04BF0021704730B5F1
:100450004FF4806404F132044FF000054FF00001C6
:1004600050E700BF90F0000F04BF0021704730B587
:100470004FF4806404F1320410F0004548BF40425C
:100480004FF000013EE700BF42004FEAE2014FEAB1
:1004900031014FEA02701FBF12F07F4393F07F4F8C
:1004A00081F06051704732F07F4208BF704793F08F
:1004B0007F4F04BF41F40021704730B54FF46074A2
:1004C00001F0004521F000411CE700BF50EA0102A5
:1004D00008BF704730B54FF000050AE050EA01024E
:1004E00008BF704730B511F0004502D5404261EBBE
:1004F00041014FF4806404F132045FEA915C3FF4FF
:10050000D8AE4FF003025FEADC0C18BF03325FEA9B
:10051000DC0C18BF033202EBDC02C2F1200300FA4C
:1005200003FC20FA02F001FA03FE40EA0E0021FA71
:1005300002F11444BDE600BF70B54FF0FF0C4CF45F
:10054000E06C1CEA11541DBF1CEA135594EA0C0F11
:1005500095EA0C0F00F0DEF82C4481EA030621EA4C
:100560004C5123EA4C5350EA013518BF52EA033587
:1005700041F4801143F4801338D0A0FB02CE4FF039
:100580000005E1FB02E506F00042E0FB03E54FF069
:100590000006E1FB03569CF0000F18BF4EF0010E61
:1005A000A4F1FF04B6F5007F64F5407404D25FEA5D
:1005B0004E0E6D4146EB060642EAC62141EA555110
:1005C0004FEAC52040EA5E504FEACE2EB4F1FD0C52
:1005D00088BFBCF5E06F1ED8BEF1004F08BF5FEAD0
:1005E000500E50F1000041EB045170BD06F0004682
:1005F00046EA010140EA020081EA0301B4EB5C042F
:10060000C2BFD4EB0C0541EA045170BD41F4801126
:100610004FF0000E013C00F3AB8014F1360FDEBF4B
:10062000002001F0004170BDC4F10004203C35DA27
:100630000C341BDC04F11404C4F1200500FA05F3AA
:1006400020FA04F001FA05F240EA020001F000424B
:1006500021F0004110EBD37021FA04F642EB0601C1
:100660005EEA430E08BF20EAD37070BDC4F10C04EB
:10067000C4F1200500FA04F320FA05F001FA04F2AF
:1006800040EA020001F0004110EBD37041F100019B
:100690005EEA430E08BF20EAD37070BDC4F12005A6
:1006A00000FA05F24EEA020E20FA04F301FA05F20E
:1006B00043EA020321FA04F001F0004121FA04F2B6
:1006C00020EA020000EBD3705EEA430E08BF20EA86
:1006D000D37070BD94F0000F0FD101F000464000C0
:1006E00041EB010111F4801F08BF013CF7D041EA42
:1006F000060195F0000F18BF704703F00046520046
:1007000043EB030313F4801F08BF013DF7D043EA16
:100710000603704794EA0C0F0CEA135518BF95EACC
:100720000C0F0CD050EA410618BF52EA4306D1D153
:1007300081EA030101F000414FF0000070BD50EA72
:10074000410606BF1046194652EA430619D094EAFC
:100750000C0F02D150EA013613D195EA0C0F05D1E6
:1007600052EA03361CBF104619460AD181EA03013A
:1007700001F0004141F0FE4141F470014FF00000F2
:1007800070BD41F0FE4141F4780170BD70B54FF08D
:10079000FF0C4CF4E06C1CEA11541DBF1CEA13550D
:1007A00094EA0C0F95EA0C0F00F0A7F8A4EB0504EF
:1007B00081EA030E52EA03354FEA013100F08880E6
:1007C0004FEA03334FF0805545EA131343EA1263AF
:1007D0004FEA022245EA111545EA10654FEA002664
:1007E0000EF000419D4208BF964244F1FD0404F51D
:1007F000407402D25B084FEA3202B61A65EB030579
:100800005B084FEA32024FF480104FF4002CB6EB35
:10081000020E75EB030E22BFB61A754640EA0C00B5
:100820005B084FEA3202B6EB020E75EB030E22BFF5
:10083000B61A754640EA5C005B084FEA3202B6EB36
:10084000020E75EB030E22BFB61A754640EA9C00F5
:100850005B084FEA3202B6EB020E75EB030E22BFC5
:10086000B61A754640EADC0055EA060E18D04FEA83
:10087000051545EA16754FEA06164FEAC30343EA23
:1008800052734FEAC2025FEA1C1CC0D111F4801FF0
:100890000BD141EA00014FF000004FF0004CB6E7E9
:1008A00011F4801F04BF01430020B4F1FD0C88BF88
:1008B000BCF5E06F3FF6AFAEB5EB030C04BFB6EB93
:1008C000020C5FEA500C50F1000041EB045170BD86
:1008D0000EF0004E4EEA113114EB5C04C2BFD4EBB3
:1008E0000C0541EA045170BD41F480114FF0000E37
:1008F000013C90E645EA060E8DE60CEA135594EAB3
:100900000C0F08BF95EA0C0F3FF43BAF94EA0C0FB5
:100910000AD150EA01347FF434AF95EA0C0F7FF42A
:1009200025AF104619462CE795EA0C0F06D152EA7E
:1009300003353FF4FDAE1046194622E750EA410662
:1009400018BF52EA43067FF4C5AE50EA41047FF473
:100950000DAF52EA43057FF4EBAE12E74FF0FF3CD8
:1009600006E000BF4FF0010C02E000BF4FF0010CA9
:100970004DF804CD4FEA410C7FEA6C5C4FEA430C22
:1009800018BF7FEA6C5C1BD001B050EA410C0CBF71
:1009900052EA430C91EA030F02BF90EA020F0020D3
:1009A000704710F1000F91EA030F58BF994208BF3A
:1009B00090422CBFD8176FEAE37040F001007047F7
:1009C0004FEA410C7FEA6C5C02D150EA013C07D14E
:1009D0004FEA430C7FEA6C5CD6D152EA033CD3D099
:1009E0005DF8040B704700BF8446104662468C4693
:1009F0001946634600E000BF01B5FFF7B7FF0028C6
:100A000048BF10F1000F01BD4DF808EDFFF7F4FFEE
:100A10000CBF012000205DF808FB00BF4DF808ED79
:100A2000FFF7EAFF34BF012000205DF808FB00BF9C
:100A30004DF808EDFFF7E0FF94BF012000205DF8BE
:100A400008FB00BF4DF808EDFFF7CEFF94BF012073
:100A500000205DF808FB00BF4DF808EDFFF7C4FF6C
:100A600034BF012000205DF808FB00BF4FEA410CB5
:100A70007FEA6C5C02D150EA013C0AD14FEA430C98
:100A80007FEA6C5C02D152EA033C02D14FF00000D5
:100A900070474FF0010070474FEA410212F5001213
:100AA00015D211D56FF47873B3EB625212D94FEAB5
:100AB000C12343F0004343EA505311F0004F23FA9F
:100AC00002F018BF404270474FF00000704750EAF4
:100AD000013005D111F0004008BF6FF000407047B1
:100AE0004FF00000704700BF4A0011D212F500120B
:100AF00011D20DD56FF47873B3EB62520ED44FEA76
:100B0000C12343F0004343EA505323FA02F07047F5
:100B10004FF00000704750EA013002D14FF0FF3033
:100B200070474FF00000704753B94AB9002908BF19
:100B300000281CBF4FF0FF314FF0FF3000F0E2B84B
:100B4000ADF1080C6DE904CE0EF0F0FDDDF804E027
:100B5000DDE9022304B0704700F1340191E8380068
:100B60009C46A6464CF8045D90E8FF0FE54600BDA4
:100B700090EC210B704700BF80EC210B704700BF49
:100B800090EC200B704700BF80EC200B704700BF3B
:100B9000D0EC200B704700BFC0EC200B704700BFAB
:100BA000F0EC0201F0EC0211F0EC0221F0EC023169
:100BB000F0EC0241F0EC0251F0EC0261F0EC027159
:100BC000F0EC0281F0EC0291F0EC02A1F0EC02B149
:100BD000F0EC02C1F0EC02D1F0EC02E1F0EC02F139
:100BE000704700BFE0EC0201E0EC0211E0EC0221F2
:100BF000E0EC0231E0EC0241E0EC0251E0EC026199
:100C0000E0EC0271E0EC0281E0EC0291E0EC02A188
:100C1000E0EC02B1E0EC02C1E0EC02D1E0EC02E178
:100C2000E0EC02F1704700BFB0FC0181B0FC019123
:100C3000B0FC01A1B0FC01B1704700BFA0FC018174
:100C4000A0FC0191A0FC01A1A0FC01B1704700BF74
:100C5000EC4600B52DE900502DE9FF1F4FF00003D1
:100C60002DE90C0001A90FF013F8DDF840E012B0F7
:100C7000704700BFEC4600B52DE900502DE9FF1F7D
:100C80004FF000032DE90C0001A90FF03DF8DDF84D
:100C900040E012B0704700BFEC4600B52DE90050AF
:100CA0002DE9FF1F4FF000032DE90C0001A90FF003
:100CB0004BF8DDF840E012B0704700BFEC4600B5DD
:100CC0002DE900502DE9FF1F4FF000032DE90C0026
:100CD00001AB0FF011F8DDF840E012B0704700BF33
:100CE000EC4600B52DE900502DE9FF1F4FF0000341
:100CF0002DE90C0001AA0FF083F8DDF840E012B0F6
:100D0000704700BF704700BF0000000000000000F7
:100D100000000000000000000000000000000000D3
:100D200002780B78012A28BF9A4240F0D8806DE9FA
:100D3000044540EA0104CDE902676FF0000C4FEA78
:100D400044721AB380EA010414F0070F6BD100F06B
:100D5000070420F0070004F0030521F007014FEA23
:100D6000C505F0E8042314F0040FF1E804670CFA59
:100D700005F462EA040266EA04060BD063EA04039F
:100D8000624667EA0407664604E000BFF0E8042311
:100D9000F1E8046782FA4CF582EA0604A4FA8CF4BE
:100DA0006CBB83FA4CF583EA0705A5FA8CF595B977
:100DB00050E9022351E9026782FA4CF582EA0604FF
:100DC000A4FA8CF483FA4CF583EA0705A5FA8CF5AE
:100DD0002543DBD09CB92DBAB5FA85F424F007047D
:100DE00027FA04F1DDE9026723FA04F303F0FF00B8
:100DF00001F0FF01FDE80445A0EB0100704724BAB3
:100E0000B4FA84F424F0070426FA04F1DDE9026759
:100E100022FA04F202F0FF0001F0FF01FDE80445B0
:100E2000A0EB0100704714F0030F3CD110F0030455
:100E300028D150F8082B51F8083B82FA4CF582EA89
:100E40000305A5FA8CF55DB950F8042C51F8043C63
:100E500082FA4CF582EA0305A5FA8CF5002DE8D05C
:100E60002DBAB5FA85F424F0070423FA04F122FA26
:100E700004F202F0FF0001F0FF01FDE80445A0EBE1
:100E8000010070474FEAC40420F0030050F8082B1B
:100E900021F0030151F8083B0CFA04F462EA040261
:100EA00063EA0403C9E710F003041DD0A1EB0401B9
:100EB00020F00300E40750F8042B06D012D28B7800
:100EC0005FFAA2F4E41A06D12BB1CB785FFAB2F440
:100ED000E41A00D133B920465DF8104B7047A2EBFD
:100EE0000300704701F1040150F8042BCC0721F0F6
:100EF000030151F8043B48D824D222F07F4482FAFF
:100F00004CF594EA1325A5FA8CF50AD165B951F888
:100F1000043B84EA0204B4EB036F0ED150F8042BB7
:100F2000EBE74FEA132355E035F07F454DD10878C4
:100F3000FDE80445C0F1000070474FEA126203F07B
:100F4000FF0347E002EA1C4482FA4CF594EA134599
:100F5000A5FA8CF50AD165B951F8043B84EA02047C
:100F6000B4EB034F0CD150F8042BEBE74FEA1343DB
:100F700030E015EA1C4528D10B884FEA124229E0DF
:100F80004FEA124203EA1C4324E002F0FF0482FA13
:100F90004CF594EA1365A5FA8CF50AD165B951F8B8
:100FA000043B84EA0204B4EB032F09D150F8042B6C
:100FB000EBE74FEA13630DE015F0FF0F05D10B6867
:100FC0004FEA122223F07F4304E04FF00000FDE8D7
:100FD0000445704712BA1BBA82FA4CF482EA030441
:100FE000A4FA8CF5B5FA85F402FA04F203FA04F3D4
:100FF0004FEA1260FDE80445A0EB1360704700BFA4
:1010000001F0FF01102A2BDB10F0070F08D010F8B9
:10101000013B013A8B422DD010F0070F42B3F6D1BD
:10102000F0B441EA012141EA014122F007047FF0D6
:1010300000070023F0E80256083C85EA010586EA2D
:10104000010685FA47F5A3FA87F586FA47F6A5FA69
:1010500087F68EB9EED1F0BC01F0FF0102F0070275
:1010600032B110F8013B013A83EA010313B1F8D120
:101070000020704701387047002D06BF3546033801
:10108000073815F0010F07D1013015F4807F02BF3A
:10109000013015F4C03F0130F0BC0138704700BF8B
:1010A000844641EA000313F003036DD1403A41D373
:1010B00051F8043B40F8043B51F8043B40F8043B32
:1010C00051F8043B40F8043B51F8043B40F8043B22
:1010D00051F8043B40F8043B51F8043B40F8043B12
:1010E00051F8043B40F8043B51F8043B40F8043B02
:1010F00051F8043B40F8043B51F8043B40F8043BF2
:1011000051F8043B40F8043B51F8043B40F8043BE1
:1011100051F8043B40F8043B51F8043B40F8043BD1
:1011200051F8043B40F8043B51F8043B40F8043BC1
:10113000403ABDD2303211D351F8043B40F8043B61
:1011400051F8043B40F8043B51F8043B40F8043BA1
:1011500051F8043B40F8043B103AEDD20C3205D371
:1011600051F8043B40F8043B043AF9D2043208D069
:10117000D2071CBF11F8013B00F8013B01D30B88DB
:1011800003806046704700BF082A13D38B078DD0B9
:1011900010F003038AD0C3F10403D21ADB071CBF8B
:1011A00011F8013B00F8013B80D331F8023B20F8F5
:1011B000023B7BE7043AD9D3013A11F8013B00F82E
:1011C000013BF9D20B7803704B7843708B788370B6
:1011D00060467047000000000000000000000000B2
:1011E00000000000000000000000000000000000FF
:1011F00000000000000000000000000000000000EF
:1012000030B490F800F020F007016FF0000C10F0FF
:10121000070491F820F040F048804FF000046FF090
:101220000700D1E9002391F840F000F1080082FAAC
:101230004CF2A4FA8CF283FA4CF3A2FA8CF34BBB77
:10124000D1E9022382FA4CF200F10800A4FA8CF2F0
:1012500083FA4CF3A2FA8CF3E3B9D1E9042382FABE
:101260004CF200F10800A4FA8CF283FA4CF3A2FAD3
:101270008CF37BB9D1E9062301F1200182FA4CF20B
:1012800000F10800A4FA8CF283FA4CF3A2FA8CF372
:10129000002BC6D0002A04BF04301A4612BAB2FA94
:1012A00082F200EBD20030BC7047D1E9002304F099
:1012B0000305C4F100004FEAC50514F0040F91F8CE
:1012C00040F00CFA05F562EA05021CBF63EA05036B
:1012D00062464FF00004AAE74FEA4102B2F1E04350
:1012E00024BFB3F5001CDCF1FE5C0DD901F0004C0D
:1012F0004FEAC0024CEA5070B2F1004F40EB83005D
:1013000008BF20F00100704711F0804F21D113F188
:101310003872BCBF01F00040704741F480114FEAC1
:101320005252C2F11802C2F1200C10FA0CF320FA4A
:1013300002F018BF40F001004FEAC1234FEAD32367
:1013400003FA0CFC40EA0C0023FA02F34FEA4303D1
:10135000CCE77FEA625307D150EA01331EBF4FF05A
:10136000FE4040F44000704701F0004040F0FE4075
:1013700040F40000704700BF0348044B834202D092
:10138000034B03B118477047C8060020C806002069
:10139000000000000548064B1B1AD90F01EBA30102
:1013A000491002D0034B03B118477047C80600200C
:1013B000C80600200000000010B5064C237843B991
:1013C000FFF7DAFF044B13B10448AFF300800123A9
:1013D000237010BDC806002000000000DCB1010829
:1013E00008B5054B1BB105490548AFF30080BDE8C2
:1013F0000840FFF7CFBF00BF00000000CC06002070
:10140000DCB10108F8B504460D46534803F00EFB65
:10141000002851D0264605F100470022002320462F
:101420002946FFF719FBE8B9002200232046294688
:10143000FFF7F4FA48BB0022002320462946FFF7B5
:10144000E3FA08B3454B1B680024DC63444D224695
:101450001021284604F028FF22462021284604F0C7
:1014600023FF11E03E4C01221021204604F01CFF16
:1014700000222021204604F017FF384B1C6830461C
:101480003946FFF731FBE063F8BD354E00221021ED
:10149000304604F009FF01222021304604F004FF09
:1014A0002E4B1E6822462B4600202E49FEF78CFE4E
:1014B000FFF71AFBF063E7E70022002320462946E6
:1014C000FFF7ACFAF0B90022002320462946FFF7C7
:1014D000C3FA50BB0022002320462946FFF794FAA6
:1014E0000028D1D01D4B1B680024DC631C4D224614
:1014F0001021284604F0D8FE22462021284604F078
:10150000D3FEC1E7164E00221021304604F0CCFE77
:1015100001222021304604F0C7FE104B1E682046F1
:101520002946FFF7E1FAF063AEE70D4E01221021E4
:10153000304604F0B9FE00222021304604F0B4FE0B
:101540000022084B20462946FEF740FE034B1C684C
:10155000FFF7CAFAE06397E7C00A00207815002079
:101560000000024000408F40F8B504460D46534845
:1015700003F05CFA002851D0264605F1004700220E
:10158000002320462946FFF767FAE8B90022002326
:1015900020462946FFF742FA48BB00220023204696
:1015A0002946FFF731FA08B3454C002210212046A6
:1015B00004F07AFE00222021204604F075FE414B03
:1015C0001B6800225A6311E03D4C01221021204685
:1015D00004F06AFE00222021204604F065FE394B0B
:1015E0001C6830463946FFF77FFA6063F8BD344E19
:1015F00000221021304604F057FE012220213046FF
:1016000004F052FE2F4B1E6822462B4600202E4926
:10161000FEF7DAFDFFF768FA7063E7E700220023C0
:1016200020462946FFF7FAF9F0B9002200232046A8
:101630002946FFF711FA50BB002200232046294615
:10164000FFF7E2F90028D1D01E4B1B6800245C6331
:101650001B4D22461021284604F026FE224620215A
:10166000284604F021FEC1E7154E00221021304625
:1016700004F01AFE01222021304604F015FE114B21
:101680001E6820462946FFF72FFA7063AEE70C4E1E
:1016900001221021304604F007FE002220213046AE
:1016A00004F002FE0022084B20462946FEF78EFD7C
:1016B000044B1C68FFF718FA606397E7B009002035
:1016C000000802407815002000408F40F8B504461D
:1016D0000D46534803F0AAF9002851D0264605F1DB
:1016E00000470022002320462946FFF7B5F9E8B954
:1016F0000022002320462946FFF790F948BB00222C
:10170000002320462946FFF77FF908B3454B1B68A5
:1017100000249C63444D22464021284604F0C4FD29
:1017200022468021284604F0BFFD11E03E4C0122F4
:101730004021204604F0B8FD00228021204604F01C
:10174000B3FD384B1C6830463946FFF7CDF9A0632E
:10175000F8BD354E00224021304604F0A5FD01229F
:101760008021304604F0A0FD2E4B1E6822462B46F9
:1017700000202E49FEF728FDFFF7B6F9B063E7E732
:101780000022002320462946FFF748F9F0B900223D
:10179000002320462946FFF75FF950BB00220023B3
:1017A00020462946FFF730F90028D1D01D4B1B6891
:1017B00000249C631C4D22464021284604F074FD01
:1017C00022468021284604F06FFDC1E7164E002214
:1017D0004021304604F068FD01228021304604F0AB
:1017E00063FD104B1E6820462946FFF77DF9B06364
:1017F000AEE70D4E01224021304604F055FD002297
:101800008021304604F050FD0022084B2046294636
:10181000FEF7DCFC034B1C68FFF766F9A06397E753
:10182000380A0020781500200018024000408F4040
:10183000F8B504460D46534803F0F8F8002851D097
:10184000264605F100470022002320462946FFF7DF
:1018500003F9E8B90022002320462946FFF7DEF805
:1018600048BB0022002320462946FFF7CDF808B3E5
:10187000454B1B6800241C64444D22460221284627
:1018800004F012FD22460421284604F00DFD11E06B
:101890003E4C01220221204604F006FD00220421D4
:1018A000204604F001FD384B1C6830463946FFF7EE
:1018B0001BF92064F8BD354E00220221304604F0A9
:1018C000F3FC01220421304604F0EEFC2E4B1E688E
:1018D00022462B4600202E49FEF776FCFFF704F93E
:1018E0003064E7E70022002320462946FFF796F8F8
:1018F000F0B90022002320462946FFF7ADF850BB7F
:101900000022002320462946FFF77EF80028D1D088
:101910001D4B1B6800241C641C4D224602212846D6
:1019200004F0C2FC22460421284604F0BDFCC1E7B5
:10193000164E00220221304604F0B6FC012204219A
:10194000304604F0B1FC104B1E6820462946FFF7D4
:10195000CBF83064AEE70D4E01220221304604F090
:10196000A3FC00220421304604F09EFC0022084B18
:1019700020462946FEF72AFC034B1C68FFF7B4F803
:10198000206497E728090020781500200004024011
:1019900000408F40F8B504460D4616461F46FFF737
:1019A00047F8B0B120462946FFF776F8044606E02E
:1019B000134B1B689C63052004F088F80134204613
:1019C000FEF750FD32463B46FFF732F80028EFD1D4
:1019D000F8BD20462946FFF75FF8044606E0084BAD
:1019E0001B689C63052004F071F8013C2046FEF75B
:1019F00039FD32463B46FFF725F80028EFD1E7E7EF
:101A000080130020F8B504460D4616461F46FFF722
:101A10000FF8B0B120462946FFF73EF8044606E02D
:101A2000134B1B685C63052004F050F8013420461A
:101A3000FEF718FD32463B46FEF7FAFF0028EFD1CD
:101A4000F8BD20462946FFF727F8044606E0084B74
:101A50001B685C63052004F039F8013C2046FEF762
:101A600001FD32463B46FEF7EDFF0028EFD1E7E7E8
:101A70008013002000000000012800D070474FF6BE
:101A8000FF739942FAD12DE9F04F85B0504E3046A0
:101A900002F08CFF4F4C504D22462946304606F04E
:101AA00089FA4E4E304602F081FF224629463046E2
:101AB00006F080FA4A4E304602F078FF2246294668
:101AC000304606F077FA474E304602F06FFF224666
:101AD0002946304606F06EFA434D284602F094FC43
:101AE00022464249284606F065FA414D284601F053
:101AF00049FE22463F49284606F05CFA0FF2C80923
:101B0000D9E90089DFF8F0B04FF0010ACDF808A05C
:101B100000260027CDE9006742464B46514658460D
:101B200001F011FC354D22462946584606F042FA8E
:101B3000DFF8CCB002230293CDE9006742464B4662
:101B40005146584601F0FFFB22462946584606F00A
:101B500031FADFF8B0B003230293CDE900674246C3
:101B60004B465146584601F0EEFB22462946584660
:101B700006F020FADFF890904FF00008CDF80880CA
:101B8000CDE900670022214B4146484601F0DBFBCE
:101B900022462946484606F00DFADFF87490CDF843
:101BA0000880CDE9006700221A4B4146484601F003
:101BB000CAFB22462946484606F0FCF905B0BDE8B6
:101BC000F08F00BFAFF3008065732D3852C1004025
:101BD000C00A002000000020DB490008380A00206D
:101BE000B009002028090020A8080020A14400080E
:101BF000B8070020D9370008880700207333000891
:101C00006007002038070020100700200080764081
:101C1000E8060020000049402DE9F04F85B06A4CED
:101C200061A3D3E90023CDE902230FF28419D9E996
:101C30000089CDE9008960A3D3E90023204602F0A2
:101C4000D3FE0026614FCDE900675DA3D3E90023F1
:101C5000204602F0DAFE00220023204602F0E8FED1
:101C60005B49204602F0EEFE0121204602F0DCFE38
:101C7000DFF860B14CA3D3E90023CDE90223CDE91D
:101C800000894DA3D3E90023584602F0ADFECDE90B
:101C900000674BA3D3E90023584602F0B6FE0022AA
:101CA0000023584602F0C4FE4B49584602F0CAFED3
:101CB0000021584602F0B8FEDFF820A13AA3D3E98C
:101CC0000023CDE90223CDE900893BA3D3E900231A
:101CD000504602F089FECDE9006739A3D3E900231D
:101CE000504602F092FE00220023504602F0A0FE71
:101CF0003B49504602F0A6FE0121504602F094FEF8
:101D0000384D29A3D3E90023CDE90223CDE9008989
:101D100029A3D3E90023284602F066FECDE9006737
:101D200027A3D3E90023284602F06FFE00220023F8
:101D3000284602F07DFE2C49284602F083FE002151
:101D4000284602F071FE294F2146384602F0AFFBCB
:101D50005946384602F0A5FB5146384602F0A3FB2F
:101D60002946384602F0A1FB214E5946304601F083
:101D70008CFD5146304601F08EFD2946304601F07B
:101D800087FD2146304601F089FD3946304601F095
:101D900079FD304601F062FD164BC3E9000105B044
:101DA000BDE8F08FAFF30080333333333333C33FB9
:101DB0004B598638D60510407B14AE47E1FA3340C4
:101DC0000000000000408FC02809002000408F4024
:101DD00031180008C00A002005140008380A002045
:101DE000CD160008B009002069150008A8080020D9
:101DF000B8070020B007002038B5194B1B68596A96
:101E000000245C62174D09B2284602F01DFE2846E8
:101E100002F033FE144B1B68596A5C62134D09B221
:101E2000284602F011FE284602F027FE104B1B68E0
:101E3000596A5C620F4D09B2284602F005FE284639
:101E400002F01BFE0C4B1B68596A5C620B4C09B21A
:101E5000204602F0F9FD204602F00FFE38BD00BF1B
:101E6000C81300202809002030150020380A00205F
:101E7000E8140020B0090020A0140020C00A0020AF
:101E800030B583B004460D461046194600220A4B71
:101E9000FEF77CFC06A3D3E90023FEF74DFBCDE95A
:101EA000000122462B46054802F02AFB03B030BD54
:101EB00000000000004CED4000003E40A80800205B
:101EC00008B518B1034801F0DFFF08BD014802F072
:101ED00007F8FAE7B807002008B50449044801F0FC
:101EE0004CFA0449044801F048FA08BD9519000865
:101EF00010070020051A0008E80600200000000076
:101F000030B583B00024224DCDE9004518A3D3E9B4
:101F10000023204801F088FACDE9004516A3D3E953
:101F200000231D4801F080FACDE9004514A3D3E950
:101F300000231A4801F078FA4FF4FA7003F0C6FD56
:101F40004FF4B473009310A3D3E90023144801F0B5
:101F500017FAB42300930022124B134801F010FA31
:101F60004FF4487003F0B2FD03B030BDAFF3008012
:101F70007889C9C25472F53F82110127B8440340E1
:101F800065732D3852C100409A9999999999654085
:101F900000408F406007002088070020380700209D
:101FA0001007002000805640E806002000000000D6
:101FB00030B583B00024204DCDE9004518A3D3E906
:101FC00000231E4801F030FACDE9004516A3D3E9FD
:101FD00000231B4801F028FACDE9004514A3D3E9FA
:101FE0000023184801F020FA4FF4FA7003F06EFD58
:101FF0004FF4B473009300220023134801F0C0F99A
:10200000B42300930022114B114801F0B9F94FF4A9
:10201000487003F05BFD03B030BD00BFAFF300803C
:102020007889C9C25472F53F82110127B844034030
:1020300065732D3852C1004000408F40600700207A
:102040008807002038070020100700200080564035
:10205000E806002010B5044602681D4B9A4204D0E1
:1020600022681C4B9A4225D010BD1B4B01221A60DE
:102070001A4B19781A4B1A681A4881541A68013297
:102080001A601B68112B01DC0A2905D1144B0022B0
:102090001A60154B01221A60144A13680133136049
:1020A000134A13680133136001220C49114805F0EB
:1020B00008FFD5E7104B01221A60002304E00F4A05
:1020C000D15C0F4AD1540133B3F5806FF7DBCBE716
:1020D0000014014000440040480B00206E0B00201B
:1020E000580B00205C0B0020540B0020500B0020EC
:1020F0004C0B002020160020740B00207C0F0020C9
:102100007C0B0020F0B58FB005460F460846FFF760
:1021100077F80146C6B2FD238DF8043000248DF80F
:102120000540F31C8DF8063001238DF807302D0192
:102130001D438DF80850234606E003F138026A4437
:1021400012F8342C54400133042BF6D9002302E05A
:10215000FA5C54400133CDB2AB42F9D32A4639463A
:102160000DF10900FEF79CFF05F13D030DEB0305A2
:1021700005F8344C4FF0FF33B21D01A9024805F0B9
:10218000A0FA0FB0F0BD00BF4017002000B58FB01F
:102190004FF47A73322201A9124805F0F8FAA8B96F
:1021A000114901A810F02EF880B10DF102020F497B
:1021B0000FF054FCBDF802305A2B0AD80C4900200D
:1021C000FFF7A0FF4FF4FA6003F080FC0FB05DF85A
:1021D00004FB08490020FFF795FF4FF4FA6003F075
:1021E00075FCF3E76816002020B201082CB2010844
:1021F0003CB2010858B201082DE9F04F87B0002425
:10220000554DCDE900454CA3D3E90023534801F0D7
:102210000BF9CDE900454AA3D3E90023504801F06A
:1022200003F9CDE9004548A3D3E900234D4801F067
:10223000FBF84FF4E16003F049FC4FF4B4730093F2
:1022400043A3D3E90023484801F09AF8B42300934C
:102250000022464B464801F093F84FF4FA7003F021
:1022600035FC0025434B1D600BE0012224E0002AD1
:1022700040F07381404B1B68012B23D0002D40F0B0
:1022800095803C4B1B68B3F5487F00F366813B4B60
:1022900000221A603A4C01223A49204605F011FE0C
:1022A0004FF4FA6003F012FC204605F01FFB364B9A
:1022B0001B68002BD9D00022002BD8D0324B002134
:1022C0001960D4E72C490020086030490978352985
:1022D000D4D12E4949783529D0D12C49897835294E
:1022E000CCD12A49C9783529C8D12849097C38294F
:1022F000C4D12649C97B3829C0D12449897B3829D2
:10230000BCD12249497B3829B8D12049C87A302824
:1023100008D03028B2D11D4B1B7B343BDBB2012BE4
:10232000ACD81AE1097B3139C9B20129F1D81D466F
:10233000EFE700BFAFF300807889C9C25472F53F60
:10234000223265D7406E0240A53D393CBDA6FC3F18
:102350003333333333B3544000408F4060070020A1
:102360008807002038070020100700200080564012
:10237000E8060020500B0020540B00204C0B0020DE
:10238000201600206E0B0020480B00205C0B002064
:10239000131D8349C85C02F118036B4403F8080C51
:1023A00002F10800095C03F8041C0132022AEFDD87
:1023B00004A80EF0DDF9054605A80EF0D9F904468B
:1023C000C5F1A000FEF74EF865A3D3E90023FEF7A0
:1023D000B3F806460F46DFF8CC91484600F0CAFF36
:1023E00002460B4630463946FDF7F0FE02460B46E4
:1023F0004FF4B47ACDF800A0484600F0C1FF642045
:1024000003F064FBA4F17800FEF72CF856A3D3E99F
:102410000023FEF791F80022634BFEF7B7F954A3AF
:10242000D3E90023FEF788F805460E465F4C2046A8
:1024300000F0A0FFCDE902562A463346FDF7C4FE60
:1024400002460B4600265A4FCDE90067204600F0B1
:10245000EBFF4FF47A7003F039FB564D4FF0B408A0
:10246000CDF800800022544B284600F089FF4FF43D
:10247000FA7003F02BFBDFF844B1CDE900673EA30F
:10248000D3E90023584600F0CFFFDDE902233CA149
:10249000D1E90001FDF798FE02460B46CDE9006741
:1024A000204600F0C1FFCDE9006737A3D3E9002340
:1024B000434800F0B9FF40F2DC5003F007FBCDF8D1
:1024C000008000223F4B284600F05AFF4FF49660F0
:1024D00003F0FCFA204600F04DFF2DA3D3E90023C2
:1024E000FDF774FE02460B46CDE90067204600F07A
:1024F0009BFF4FF47A7003F0E9FACDE9006726A359
:10250000D3E90023584600F08FFFCDE900671EA3F2
:10251000D3E900232A4800F087FF40F2DC5003F0A3
:10252000D5FAFFF733FECDF800A00022002348467D
:1025300000F026FF4FF47A7003F0C8FACDF800805F
:102540000022214B284600F01BFF4FF47A7003F065
:10255000BDFA1E4A13780133137007B0BDE8F08F3F
:10256000EC51B81E85EBB13FB81E85EB51B8BE3FAC
:10257000182D4454FB210940C452C987C997014012
:10258000B1BF43DEE46C014065732D3852C1004099
:10259000A6BA225B9F20C83F182D4454FB21F93F67
:1025A0005C0B002010070020008066408807002098
:1025B00000408F40E80600200000494060070020EE
:1025C000380700200000324000805640700B002089
:1025D0002DE9F04F87B000245D4DCDE9004554A3AF
:1025E000D3E900235B4800F01FFFCDE9004552A36B
:1025F000D3E90023584800F017FFCDE9004550A368
:10260000D3E90023554800F00FFF4FF4E16003F0D9
:102610005DFA4FF4B47300934BA3D3E90023504801
:1026200000F0AEFEB423009300224E4B4E4800F063
:10263000A7FE4FF4FA7003F049FA4C4B00221A60DF
:102640000CE0012225E0002A40F08481484B1B6801
:10265000012B24D01346002B40F0A480434B1B6871
:10266000B3F5487F00F37681424B00221A60424C5A
:1026700001224249204605F024FC4FF4FA6003F0A1
:1026800025FA204605F032F93D4B1B68002BD8D0C7
:102690000022002BD7D03A4B00211960D3E73449F0
:1026A0000020086037490978352901D01346D2E760
:1026B00034494978352901D01346CCE73149897826
:1026C000352901D01346C6E72E49C978352901D0EE
:1026D0001346C0E72B49097C382901D01346BAE7D5
:1026E0002849C97B382901D01346B4E72549897B9D
:1026F000382901D01346AEE72249497B382901D059
:102700001346A8E71F49C87A302809D01346302855
:10271000A1D11C49097B3439C9B201299BD819E1DF
:10272000097B3139C9B20129F1D91346EFE700BF5E
:102730007889C9C25472F53F223265D7406E024093
:10274000A53D393CBDA6FC3FCDCCCCCCCC4C70409B
:1027500000408F40600700208807002038070020D5
:102760001007002000805640E8060020500B002093
:10277000540B00204C0B0020201600206E0B002074
:10278000480B00205C0B0020131D8749C85C02F138
:1027900018036B4403F8080C02F10800095C03F805
:1027A000041C0132022AEFDD04A80DF0E1FF05460A
:1027B00005A80DF0DDFF0446C5F1A000FDF752FEAF
:1027C00067A3D3E90023FDF7B7FE06460F46DFF8FF
:1027D000DC91484600F0CEFD02460B4630463946B5
:1027E000FDF7F4FC02460B464FF4B47ACDF800A096
:1027F000484600F0C5FD642003F068F9A4F17800B4
:10280000FDF730FE58A3D3E90023FDF795FE002223
:10281000674BFDF7BBFF56A3D3E90023FDF78CFE02
:1028200005460E46634C204600F0A4FDCDE9025655
:102830002A463346FDF7C8FC02460B4600265E4F8B
:10284000CDE90067204600F0EFFD4FF47A7003F009
:102850003DF95A4D4FF0B408CDF800800022584B96
:10286000284600F08DFD4FF4487003F02FF9DFF893
:1028700054B1CDE9006740A3D3E90023584600F0E6
:10288000D3FDDDE902233EA1D1E90001FDF79CFC67
:1028900002460B46CDE90067204600F0C5FDCDE9B4
:1028A000006739A3D3E90023474800F0BDFD4FF48A
:1028B000FA6003F00BF9CDF800800022434B284664
:1028C00000F05EFD40F2E24003F000F9204600F027
:1028D00051FD2FA3D3E90023FDF778FC02460B46F8
:1028E000CDE90067204600F09FFD4FF47A7003F0B9
:1028F000EDF8CDE9006728A3D3E90023584600F09E
:1029000093FDCDE9006720A3D3E900232E4800F012
:102910008BFD40F2E24003F0D9F8FFF737FCCDF829
:1029200000A01FA3D3E90023484600F029FD40F290
:10293000E24003F0CBF8CDF800800022244B28467B
:1029400000F01EFD40F2E24003F0C0F8214A137887
:102950000133137007B0BDE8F08F00BFAFF3008004
:10296000EC51B81E85EBB13FB81E85EB51B8BE3FA8
:10297000182D4454FB210940C452C987C99701400E
:10298000E801187EEC7FFF3F65732D3852C100408F
:10299000A6BA225B9F20C83F182D4454FB21F93F63
:1029A000CDCCCCCCCC0C76405C0B002010070020AA
:1029B000008066408807002000408F40E806002025
:1029C0000000494060070020380700200000324026
:1029D00000805640700B002000B58FB04FF47A7322
:1029E000322201A9124804F0D2FEA8B9114901A867
:1029F0000FF008FC80B10DF102020F490FF02EF824
:102A0000BDF80230502B0AD80C490020FFF77AFBA2
:102A10004FF4FA6003F05AF80FB05DF804FB084970
:102A20000020FFF76FFB4FF4FA6003F04FF8F3E775
:102A30006816002020B201082CB2010874B2010807
:102A400090B20108000000002DE9F04F85B000248D
:102A50005B4DCDE9004552A3D3E90023594800F06E
:102A6000E3FCCDE9004550A3D3E90023564800F02C
:102A7000DBFCCDE900454EA3D3E90023534800F029
:102A8000D3FC4FF4B47300934BA3D3E90023504815
:102A900000F076FCB423009300224E4B4E4800F029
:102AA0006FFC4FF4FA6003F011F84C4B00221A60EF
:102AB0000CE0012225E0002A40F06D81484B1B68A4
:102AC000012B24D01346002B40F0A480434B1B68FD
:102AD000B3F5487F00F35F81424B00221A60424CFD
:102AE00001224249204605F0ECF940F6B83002F0E8
:102AF000EDFF204604F0FAFE3D4B1B68002BD8D0BA
:102B00000022002BD7D03A4B00211960D3E734497B
:102B10000020086037490978352901D01346D2E7EB
:102B200034494978352901D01346CCE731498978B1
:102B3000352901D01346C6E72E49C978352901D079
:102B40001346C0E72B49097C382901D01346BAE760
:102B50002849C97B382901D01346B4E72549897B28
:102B6000382901D01346AEE72249497B382901D0E4
:102B70001346A8E71F49C87A302809D013463028E1
:102B8000A1D11C49097B3439C9B201299BD802E182
:102B9000097B3139C9B20129F1D91346EFE700BFEA
:102BA0009EAFD4151EC80540B9D0BEE5A1D1FC3FEB
:102BB000041DD58B347DED3F3333333333B3544071
:102BC00000408F4060070020880700203807002061
:102BD0001007002000805640E8060020500B00201F
:102BE000540B00204C0B0020201600206E0B002000
:102BF000480B00205C0B0020131D7B49C85C02F1D0
:102C000010036B4403F8080C02F10800095C03F898
:102C1000041C0132022AEFDD02A80DF0A9FD0546D1
:102C200003A80DF0A5FD0446C5F1A000FDF71AFCB0
:102C30005BA3D3E90023FDF77FFC804689466B4FF9
:102C4000384600F097FB02460B4640464946FDF7E2
:102C5000BDFA02460B464FF4B479CDF800903846E1
:102C600000F08EFB642002F031FFA4F17800FDF744
:102C7000F9FB4DA3D3E90023FDF75EFC00225C4B7A
:102C8000FDF784FD4AA3D3E90023FDF755FC8246F6
:102C90008B46584E304600F06DFB52465B46FDF7C2
:102CA00093FA02460B460024534DCDE900453046C9
:102CB00000F0BAFB4FF47A7002F008FF52465B4610
:102CC0003DA1D1E90001FDF77FFA02460B46CDE9AF
:102CD0000045304600F0A8FBDFF820B1CDE9004503
:102CE00037A3D3E90023584600F09EFBDFF810A17C
:102CF000CDE9004534A3D3E90023504600F094FB0E
:102D000040F2DC5002F0E2FE4FF0B408CDF8008053
:102D100000223C4B3C4800F033FB4FF47A7002F049
:102D2000D5FE0022394BCDE9002329A3D3E90023A6
:102D3000304600F079FBCDE9004527A3D3E9002315
:102D4000584600F071FBCDE9004525A3D3E90023E7
:102D5000504600F069FB4FF4E16002F0B7FEFFF768
:102D60003BFECDF8009000220023384600F008FB1F
:102D700040F2E24002F0AAFECDF800800022244B8F
:102D8000214800F0FDFA40F2E24002F09FFE214AA5
:102D900013780133137005B0BDE8F08FAFF30080F6
:102DA000EC51B81E85EBB13FB81E85EB51B8BE3F64
:102DB000182D4454FB2109409C32EBF63B4E0A404F
:102DC0003E534FA7C477F93F65732D3852C1F03F8A
:102DD000E0F09C762F1BF43FE0F09C762F1B044024
:102DE00065732D3852C100405C0B00201007002095
:102DF000008066406007002000408F408807002068
:102E00003807002000002E40E806002000409F40C8
:102E1000008056406F0B00202DE9F04F85B0002454
:102E20005B4DCDE9004552A3D3E90023594800F09A
:102E3000FBFACDE9004550A3D3E90023564800F042
:102E4000F3FACDE900454EA3D3E90023534800F03F
:102E5000EBFA4FF4B47300934BA3D3E9002350482B
:102E600000F08EFAB423009300224E4B4E4800F03F
:102E700087FA4FF4FA6002F029FE4C4B00221A60E8
:102E80000CE0012225E0002A40F06E81484B1B68CF
:102E9000012B24D01346002B40F0A480434B1B6829
:102EA000B3F5487F00F36081424B00221A60424C28
:102EB00001224249204605F004F840F6B83002F0FD
:102EC00005FE204604F012FD3D4B1B68002BD8D0B8
:102ED0000022002BD7D03A4B00211960D3E73449A8
:102EE0000020086037490978352901D01346D2E718
:102EF00034494978352901D01346CCE731498978DE
:102F0000352901D01346C6E72E49C978352901D0A5
:102F10001346C0E72B49097C382901D01346BAE78C
:102F20002849C97B382901D01346B4E72549897B54
:102F3000382901D01346AEE72249497B382901D010
:102F40001346A8E71F49C87A302809D0134630280D
:102F5000A1D11C49097B3439C9B201299BD803E1AD
:102F6000097B3139C9B20129F1D91346EFE700BF16
:102F70009EAFD4151EC80540041DD58B347DFD3F82
:102F80005069EB31C728EE3FCDCCCCCCCC6C704037
:102F900000408F406007002088070020380700208D
:102FA0001007002000805640E8060020500B00204B
:102FB000540B00204C0B0020201600206E0B00202C
:102FC000480B00205C0B0020131D7D49C85C02F1FA
:102FD00010036B4403F8080C02F10800095C03F8C5
:102FE000041C0132022AEFDD02A80DF0C1FB0546E8
:102FF00003A80DF0BDFB0446C5F1A000FDF732FAB1
:103000005BA3D3E90023FDF797FA804689466D4F0D
:10301000384600F0AFF902460B4640464946FDF7F8
:10302000D5F802460B464FF4B479CDF800903846F7
:1030300000F0A6F9642002F049FDA4F17800FDF744
:1030400011FA4DA3D3E90023FDF776FA00225E4B77
:10305000FDF79CFB4AA3D3E90023FDF76DFA8246F6
:103060008B465A4E304600F085F952465B46FDF7D6
:10307000ABF802460B460024554DCDE900453046DD
:1030800000F0D2F94FF47A7002F020FD52465B4610
:103090003DA1D1E90001FDF797F802460B46CDE9C5
:1030A0000045304600F0C0F9DFF828B1CDE9004511
:1030B00037A3D3E90023584600F0B6F9DFF818A18A
:1030C000CDE9004534A3D3E90023504600F0ACF924
:1030D00040F2DC5002F0FAFC4FF0B408CDF800806A
:1030E00000223E4B3E4800F04BF94FF47A7002F05C
:1030F000EDFC00223B4BCDE9002329A3D3E90023BB
:10310000304600F091F9CDE9004527A3D3E900232B
:10311000584600F089F9CDE9004525A3D3E90023FD
:10312000504600F081F940F6340002F0CFFCFFF782
:1031300053FCCDF8009020A3D3E90023384600F0DB
:103140001FF940F2E24002F0C1FCCDF800800022FD
:10315000254B234800F014F940F2E24002F0B6FC9F
:10316000224A13780133137005B0BDE8F08F00BF19
:10317000EC51B81E85EBB13FB81E85EB51B8BE3F90
:10318000182D4454FB210940FEF3941F4C990A402A
:10319000AFC570A02079FA3FE801187EEC7FEF3FC1
:1031A000E0F09C762F1BF43FE0F09C762F1B044050
:1031B00065732D3852C10040CDCCCCCCCC0C7640C0
:1031C0005C0B002010070020008066406007002094
:1031D00000408F40880700203807002000002E4064
:1031E000E806002000409F40008056406F0B002002
:1031F0002DE9F84300244A4D00224A4B2046294637
:10320000FEF73EFEFEF77CFEFFF71EFCFEF778FEA3
:10321000FFF7DEF9FEF774FE0026434F32463B46C9
:1032200020462946FEF72CFEFEF76AFEFEF7E4FF75
:10323000FEF766FEFFF7F0FDFEF762FE32463B4604
:1032400020462946FEF71CFEFEF75AFEFFF7FCFB60
:10325000FEF756FEFFF7BCF9FEF7AAFE4FF0000896
:10326000DFF8C89042464B4620462946FEF708FE46
:103270000020FEF725FE00222D4B20462946FEF7B2
:10328000FFFD0020FEF71CFE00222A4B20462946A7
:10329000FEF7F6FDFEF734FEFFF7D6FBFEF730FE35
:1032A000FFF796F9FEF72CFE32463B4620462946AC
:1032B000FEF7E6FDFEF724FEFEF79EFFFEF720FE7A
:1032C000FFF7AAFDFEF71CFE32463B462046294684
:1032D000FEF7D6FDFEF714FEFFF7B6FBFEF710FE75
:1032E000FFF776F9FEF70CFE42464B46204629468C
:1032F000FEF7C6FD0120FEF7E3FD07A3D3E9002397
:1033000020462946FEF7BCFD0120FEF7D9FDBDE8A9
:10331000F88300BFAFF300800000000000C05E40F3
:1033200000004940000048400000594000004A4069
:10333000000058400000344008B54FF6FF710120EE
:10334000FEF79AFB08BD30B400240025C0E9004513
:10335000C0E9024501240477002404620177C0E932
:103360000023DDE90223C0E90223049B036130BC92
:1033700070477047D0E90001704701627047000054
:103380002DE9F047824614461D460898FDF76AF875
:1033900006460F4602460B4620462946FDF7F6F93B
:1033A0000022104BFDF7C8F800220F4BFCF70EFF70
:1033B0008046894632463B46DAE90001FDF7E6F9E8
:1033C0000022084BFDF7B8F80022074BFCF7FEFE81
:1033D000DAF8206016B142464B46B047CAE90045CC
:1033E000BDE8F08700408F4000406F4038B515467B
:1033F0001C460BF0E5FFFDF74FFB03122B7020700E
:1034000038BD9DF800C008440244002104E0585C27
:10341000024492B20131C9B26145F8D3D0B2C0437F
:10342000C0B270470000000010B588B00446DDE966
:103430000A01C4E90023C4E902010DF112030DF1F0
:103440001302FFF7D3FF0022294BD4E90001FDF757
:1034500073F823A3D3E90023FDF798F922A3D3E956
:103460000023FDF793F904AB0DF11102FFF7BEFF46
:1034700055238DF814308DF81530207C8DF816000A
:1034800007218DF8171001228DF818209DF810E003
:103490008DF819E09DF811C08DF81AC09DF8124002
:1034A0008DF81B409DF813308DF81C308DF80CE022
:1034B0008DF80DC08DF80E408DF80F300423009369
:1034C00003ABFFF79EFF8DF81D004FF0FF330A227C
:1034D00005A9084804F0F5F808B010BDAFF3008066
:1034E000182D4454FB210940B81E85EB51B8CE3F3E
:1034F0000080664088170020F0B585B005460FC8EB
:1035000004AC04E90F00A5F1100409E0D4E900239C
:10351000C5E90023D4E90223C5E902232546103C6E
:10352000DDE90267D4E9022330463946FDF776FA31
:103530000028EBD1DDE90023C5E90023C5E90267D6
:1035400005B0F0BD38B50D46044605E04FF000016A
:103550002046FFF7D1FF1034AC42F7D138BD2DE93A
:10356000F04106460C4617464D1E05EBD5756D100D
:103570000EE006EB0414D8E90023C4E90023D8E9DF
:103580000201C4E902016B1E03EBD3732C465D10EC
:10359000BC4209DD06EB0518DDE90823D8E9020184
:1035A000FDF73CFA0028E4D106EB0416DDE906231A
:1035B000C6E90023DDE90823C6E90223BDE8F0815E
:1035C0002DE9F04389B005460F4616460C460CE03F
:1035D00005EB081105EB0414D1E90023C4E900232D
:1035E000D1E90223C4E902234446731E03EBD373DB
:1035F000B4EB630F12DA631C4FEA430905EB431384
:1036000009F1FF3805EB0811D3E90223D1E90201E2
:10361000FDF722FA0028DBD1C846D9E716F0010FE2
:1036200005D1023E06EBD676B4EB660F0DD007ABA4
:10363000049310AB0FCB8DE80F003A462146284685
:10364000FFF78DFF09B0BDE8F083611C4900013927
:1036500005EB011005EB0414D0E90023C4E90023B5
:10366000D0E90223C4E902230C46E0E7091A102935
:1036700021DDF0B58BB0054616460F11BC1E04EBDC
:10368000D474641000E0013C05EB04130DF1180C38
:103690000FCB8CE80F0033788DF810309CE80F00CA
:1036A0008DE80F003A4621462846FFF789FF002C97
:1036B000E9D10BB0F0BD704770B58AB004460D4635
:1036C00096461E460DF1180C0FCA8CE80F00D4E97F
:1036D0000023CEE90023D4E90223CEE902232D1BE7
:1036E00033788DF810309CE80F008DE80F002A1118
:1036F00000212046FFF764FF0AB070BD2DE9F041BC
:1037000082B00646884617468DF8043001AAFFF7B6
:10371000ADFF444601E005F110042546BC420ED23F
:10372000D6E90223D4E90201FDF778F90028F2D0A6
:1037300001AB224641463046FFF7BEFFEBE702B041
:10374000BDE8F08170B505460C46164606E0103C13
:103750003346224621462846FFF7AEFF611B10295B
:10376000F5DC70BD30B583B004460D468DF80430ED
:10377000DBB2FFF7C3FF01AA29462046FFF7E2FFAD
:1037800003B030BD70B5054600F0BAFC0026C5F8A0
:10379000A46000220023C5E92A2300220C4BC5E9BE
:1037A0002C2305F1B80C0B4C0FCCACE80F000FCC60
:1037B000ACE80F0094E803008CE80300C5F8E06073
:1037C000C5F8E460C5F8E860C5F8EC60284670BD4F
:1037D00000004E40F8B1010810B5044600F091FC1D
:1037E000204610BD0000000010B504464FF4806272
:1037F0001149124804F0CAFB114B01221A60114B07
:103800001B689342F2D11049204600F0B9FC002811
:10381000ECD00C4B00221A60204600F06FFC40698F
:10382000FCF732FE02A3D3E900230BF09DFD10BD8F
:10383000182D4454FB2119407C0F0020B0160020A5
:10384000780B0020740B00207C0B0020D0F8A40023
:1038500018B108B501F02AF808BD704708B5FFF7A0
:10386000C3FF08BDD0F8A40058B12DE9004882B0CC
:10387000DDE904BCCDE900BC01F034F802B0BDE8DC
:1038800000887047C0F8A4107047C0F8E010704777
:10389000C0F8E8107047C0F8E4107047C0F8EC10AA
:1038A000704710B504460068A168091A08B104F011
:1038B00087FB204610BD40681038704710B584B0B3
:1038C0008446019144680368E31A18116FF0784E3A
:1038D000AEEB23138B4210D30390814210D803AB7D
:1038E0001B681844DCF80030E41AB0EB241F09D33D
:1038F000B0F1006F09D204B010BD104605F0EEF82B
:1039000001ABEDE76FF07840F5E76FF07840F2E754
:1039100008B5B1F1006F03D2080104F05BFF08BDE8
:10392000B1F1805F01D305F0B1F805F09FF8000018
:103930002DE9F04F83B007460E4693469A46234A38
:103940000121FFF7BBFFD7F800907D683446A6EB56
:103950000906019088B1014600223846FFF7D8FFDA
:1039600080464644DBE90023C6E90023DAE9002368
:10397000C6E902234646CC4609E04FF00008F0E7CE
:103980009CE80F0086E80F000CF1100C1036A445DF
:10399000F6D1103605E094E80F0086E80F001034E9
:1039A0001036A542F7D1B968A1EB0901B9F1000FB2
:1039B00002D0484604F004FBC7F800807E60019BFB
:1039C00008EB0313BB6003B0BDE8F08FACB2010895
:1039D00038B50446456883689D420ED0D1E90001A0
:1039E000C5E90001D2E90023C5E902236368103369
:1039F00063602046FFF75FFF38BD13460A4629463D
:103A0000FFF796FFF5E730B4D0E90045D1E9002390
:103A1000C0E90023C1E90045D0E90245D1E902230C
:103A2000C0E90223C1E9024530BC7047F8B507463A
:103A30000E4614461D46D1E90223D4E90201FDF7E2
:103A40000BF8E0B1D5E90223D4E90201FCF7E6FF67
:103A500058B9D5E90223D6E90201FCF7DFFF48B1E6
:103A600029463846FFF7CFFFF8BD21463846FFF715
:103A7000CAFFF9E731463846FFF7C5FFF4E7D5E955
:103A80000223D6E90201FCF7C9FF58B9D5E90223A0
:103A9000D4E90201FCF7C2FF48B129463846FFF7D6
:103AA000B2FFE1E731463846FFF7ADFFDCE72146DC
:103AB0003846FFF7A8FFD7E770B505460C4616460F
:103AC00000E01035D6E90223D5E90201FCF7A6FF94
:103AD0000028F6D1103C00E0103CD4E90223D6E9DE
:103AE0000201FCF79BFF0028F6D1A54205D2214632
:103AF0002846FFF788FF1035E4E7284670BDF0B58B
:103B000083B004460D4616460B1AD90F01EB23115C
:103B1000491000F110078DF80020A5F1100300EB0B
:103B200001123946FFF782FF3346224629463846BE
:103B3000FFF7C2FF03B0F0BD2DE9F04106460C4689
:103B400015461F46A11BB1F5807F14DD6DB1013D07
:103B50003A4621463046FFF7D2FF80463B462A468A
:103B60002146FFF7E9FF4446ECE73B462246214663
:103B70003046FFF7F7FDBDE8F081704738B50546E0
:103B80000C46FFF7FAFF201A284438BD03461046BA
:103B9000CB1A1B11002B0DDD30B471E9044560E92F
:103BA0000445D1E90245C0E90245013B002BF4DCA4
:103BB00030BC7047704770B50E461446FFF7DDFF06
:103BC00005463046FFF7D9FF06462046FFF7D5FFEA
:103BD000024631462846FFF7D9FF01462046FFF747
:103BE000CDFF70BD08B5FFF7E6FF08BD884231D0B4
:103BF0002DE9F04385B006460F4600F1100406E0BB
:103C00004FF000012046FFF777FC05F11004254630
:103C1000A7421CD0D4E90289D6E90223404649468E
:103C2000FCF7FCFE0028EBD095E80F000DF1100C1E
:103C30000CE90F0005F1100221463046FFF7D2FFD4
:103C4000DDE90023C6E90023C6E90289DDE705B006
:103C5000BDE8F083704770B50C4615460B1AB3F5F6
:103C6000807F0ADD00F580763146FFF7BFFF2A46E8
:103C700021463046FFF766FC70BDFFF7B7FFFBE754
:103C8000814214D070B504460D461646091A091132
:103C9000B1FA81F1C1F11F0113464A002946FFF72D
:103CA0004BFF324629462046FFF7D5FF70BD7047CF
:103CB0002DE9F04FBDB08046104619466AA3D3E9FE
:103CC0000023FCF783FA68A5D5E9004522462B4678
:103CD0000BF04AFB22462B46FCF778FA06460F46C5
:103CE000D8E93223CDE90223D8E93023CDE90023F6
:103CF000D8E92E23022110A800F00BFFD8E93623C3
:103D0000CDE90023D8E9342310A92EA800F041FF03
:103D1000D8E92C01024601F10043CDE9000110A9C8
:103D200032A800F052FF32463B4610A800F029FFAF
:103D30007FE004460D464FF00009514BC3F8009058
:103D4000CDE9064548A3D3E90023FCF73FFACDE9C6
:103D5000080147A3D3E9002320462946FCF736FA99
:103D6000CDE90A01CDF83490CDF83890CDF83C90EB
:103D700032463B4620462946FCF726FA369021F08B
:103D80000043379336AA06A90DA8FFF721FE324655
:103D90003B46DDE90801FCF717FA389021F00043B3
:103DA000399338AA08A90DA8FFF712FE32463B4600
:103DB000DDE90A01FCF708FA3A9021F000433B9351
:103DC0003AAA0AA90DA8FFF703FE4FF000020E99C8
:103DD0000D98FFF755FF0D9BD3E9004532463B4652
:103DE00020462946FCF7F0F921F0004B22A3D3E945
:103DF00000235946FCF712FEF8B922462B4610A8BC
:103E000000F0BAFE10A800F0CDFF10A800F0BEFE32
:103E1000049001F10043059310A800F0B7FECDE92E
:103E20000001DDE904234046FFF71CFD0DA8FFF764
:103E300038FD4046FFF7D8FC7BE70DA8FFF731FDC2
:103E40004046FFF703FD10A800F083FE3DB0BDE83B
:103E5000F08F0DA8FFF725FD10A800F07AFE04F002
:103E6000B1F8F9E7AFF30080182D4454FB21194055
:103E7000182D4454FB212940FCA9F1D24D62803F0A
:103E8000740B00200000000010B504464FF480625F
:103E90000F49104804F07AF80F4B01221A600F4BBB
:103EA0001B68012BFBD10D4B00221A602046FFF747
:103EB0009BFC05A3D3E90023FCF786F902460B46D9
:103EC0002046FFF7F5FE10BD182D4454FB21F93FA5
:103ED0007C0F0020B0160020780B0020740B00200F
:103EE00010B504464FF480620F49104804F04EF8B4
:103EF0000F4B01221A600F4B1B68012BFBD10D4B9E
:103F000000221A602046FFF76FFC05A3D3E90023C7
:103F1000FCF75CF902460B462046FFF7C9FE10BDD0
:103F2000182D4454FB21F93F7C0F0020B0160020CF
:103F3000780B0020740B002000B583B000210191A4
:103F4000094B1A6B42F400121A631B6B03F4001343
:103F50000193019B0A46102001F020FE102001F081
:103F60002DFE03B05DF804FB003802402DE9F04F50
:103F70008DB000240794089409940A940B9400943B
:103F8000454B1A6B42F010021A631A6B02F01002D2
:103F90000092009A01941A6B42F080021A631A6B25
:103FA00002F080020192019A02941A6B42F004021C
:103FB0001A631A6B02F004020292029A03941A6BBB
:103FC00042F001021A631A6B02F001020392039A93
:103FD00004941A6B42F002021A631A6B02F0020296
:103FE0000492049A05941A6B42F008021A631A6B41
:103FF00002F008020592059A06941A6B42F04002FC
:104000001A631B6B03F040030693069BDFF88CB02A
:1040100022463621584602F047F9DFF884A02246AE
:104020003021504602F040F9DFF8788022463621F0
:10403000404602F039F91C4F2246C021384602F0B2
:1040400033F94FF03609CDF81C9001260896022569
:1040500009950A9407A9584602F02CF830230793D3
:10406000089609950A9407A9504602F023F8CDF85E
:104070001C90089609950A9407A9404602F01AF880
:10408000C0230793089609950A9407A9384602F0B9
:1040900011F80DB0BDE8F08F003802400008024072
:1040A0000000024000040240001802408446002341
:1040B000184605E01CF803205040034A105C013309
:1040C0009942F7DC704700BFC8B40108844600235A
:1040D000184699420FDD10B41CF8032082EA102222
:1040E000054C34F8122082EA002080B20133994254
:1040F000F2DC10BC70477047C8B20108343070471A
:104100007047704710B50B461146402B04D0412B29
:1041100017D0422B2FD010BD134630321C68D3F875
:1041200004E0D3F808C0D9680460C0F804E0C0F81F
:1041300008C0C160103310309342EFD11B68036098
:10414000E9E7134634302032D3F800E0D3F804C056
:104150009C68D968C0F800E0C0F804C08460C16001
:10416000103310309342EFD119685A689B68016090
:1041700042608360CFE744226030FCF791FFCAE7DA
:104180002DE9F84306460D46002400E00134B4F55D
:104190007F7F17DA04212819FFF788FF2B5DFC2B9E
:1041A000F4D12B191B798342F0D1012363B9042187
:1041B0002846FFF77BFF2B78FC2B0CD000242046F1
:1041C000BDE8F8830023F1E7C4F580622919284689
:1041D000FCF766FFEBE72B79834201D00024EEE782
:1041E00095F80190AF786B79AC7944EA032405F136
:1041F000070839464046FFF769FF844209D000248A
:1042000007F10801C7F57E7229442846FCF748FFEC
:10421000D5E73B46424649463046FFF773FF012447
:10422000EEE7000010B504460268094B9A4204D03C
:104230002268084B9A4203D010BDFDF7DDFDF7E779
:10424000054B1B680022DA635A639A631A64F3E72A
:1042500000140040001000407815002072B6FEE700
:1042600000B595B03022002108A80DF0D1FD002343
:104270000393049305930693079301931F4A116CCC
:1042800041F080511164126C02F080520192019A47
:1042900002931B4A116841F480411160126802F4D4
:1042A00080420292029A0222089201210B9110216F
:1042B0000C910E920F9308231093A823119312923E
:1042C0000423139308A801F0F5FF98B90F23039373
:1042D00002230493002305934FF4A05306934FF455
:1042E00080530793052103A802F034FA20B915B0D2
:1042F0005DF804FBFFF7B2FFFFF7B0FF00380240A4
:104300000070004008B501F0B5FBFFF7A9FFFFF70B
:104310002DFEFFF711FE01F089F800F037FE00F0E6
:1043200003FE00F065FE00F0E5FE00F0BBFE01F0CC
:104330007BF901F093F901F0ABF901F007F901F015
:1043400059F901F0D9F901F0BDF900F083FE41F20D
:10435000883001F0BBFB234B1A68D36823F020039D
:10436000D360214C0021204602F0E8FE04212046C3
:1043700002F0E4FE0821204602F0E0FE0C21204677
:1043800002F0DCFE194C0021204602F0D7FE042189
:10439000204602F0D3FE0421154802F051FF04210B
:1043A000144802F04DFF0421134802F049FF042194
:1043B000124802F045FF124802F068FBFDF72CFCA2
:1043C000FDF78AFD4FF4FA7001F080FB0D490020E3
:1043D000FDF798FE41F2941001F078FBFEF708FF1C
:1043E000FEE700BFB01600207815002080130020E3
:1043F00030150020E8140020A0140020C81300206D
:1044000010140020C8B5010830B4002202604260D8
:104410008260C26000240025C0E90445C0E9064569
:10442000C0E90845C0E90A45C0E90C45C0E90E45A8
:10443000C0E9104510A5D5E90045C0E912450122A3
:1044400080F850200EA5D5E90045C0E916450EA517
:10445000D5E90045C0E918450DA5D5E90045C0E9F5
:104460001A4500240C4DC0E91C4500240B4DC0E941
:104470001E4530BC704700BF0000000000E06F40E8
:104480005D8AABCABE2BB23F7B14AE47E17A843F54
:10449000F168E388B5F8243F000024C00000244000
:1044A0007047016070474160704781607047C1602C
:1044B000704700220023C0E90423C0E90623C0E9B5
:1044C0000823C0E90A23704710B50446C06818B134
:1044D000D4E90A2300F0ACFA206818B1D4E9042327
:1044E00000F0A6FA606818B1D4E9062300F0A0FA3B
:1044F000A06818B1D4E9082300F09AFA10BD0000B2
:104500002DE9F047ADF5247D824690469946DDE9D8
:10451000AC67D0E91A23CDE90223D0E91823CDE90D
:104520000023D0E91623022166A800F0F2FADAE9A6
:104530001A23CDE90223DAE91823CDE90023DAE9C9
:104540001623022148A800F0E4FADAE91A23CDE99B
:104550000223DAE91823CDE90023DAE91623022140
:104560002AA800F0D6FADAE91A23CDE90223DAE91B
:104570001823CDE90023DAE9162302210CA800F064
:10458000C8FA0022002340464946FCF747FA50B9D2
:10459000DAE91E23CDE90023DAE91C2366A984A801
:1045A00000F0F7FA03E009F100439946F0E7DAE991
:1045B0001E23CDE90023DAE91C2348A988A800F0CE
:1045C000E8FADAE91E23CDE90023DAE91C232AA957
:1045D0008CA800F0DEFADAE91E23CDE90023DAE93F
:1045E0001C230CA990A800F0D4FA00220023CDE9E6
:1045F0000623CDF8188009F100430793CDE900891F
:10460000DDE9062366A994A800F0DFFACDE9008968
:10461000DDE9062348A998A800F0D7FACDE900897A
:10462000DDE906232AA99CA800F0CFFACDE900898C
:10463000DDE906230CA9A0A800F0C7FADAF80C00FF
:1046400000F017FADAF8040000F013FADAF80800BC
:1046500000F00FFADAF8000000F00BFA0021DAF8A7
:10466000000000F0E1F90021DAF8080000F0DCF9C0
:104670000121DAF8040000F0D7F90121DAF80C0082
:1046800000F0D2F932463B4666A800F07AFA32468C
:104690003B4648A800F075FA32463B462AA800F08F
:1046A00070FA32463B460CA800F06BFA7CA3D3E9C3
:1046B000002330463946FBF73FFFFCF7EDF9804613
:1046C000C6E0FBF7CFFE32463B46FBF77DFD21F00F
:1046D00000450022744B2946FCF7A0F938B9B8F11F
:1046E000000F46DDDAF80C0000F0C1F948E0DAF816
:1046F000080000F0BCF9FBF7B5FE32463B46FBF77D
:1047000063FD049021F0004305930022664BDDE930
:104710000401FCF783F90028E1D0DAF8040000F086
:10472000A6F9FBF79FFE32463B46FBF74DFD08908E
:1047300021F00043099300225B4BDDE90801FCF7FF
:104740006DF90028CBD0DAF80C0000F090F9FBF7F7
:1047500089FE32463B46FBF737FD0A9021F00043C5
:104760000B930022504BDDE90A01FCF757F90028B2
:10477000B5D05046FFF79DFE5046FFF7A5FE6CE012
:10478000FBF770FE02460B4666A800F0F5F966A836
:1047900000F008FBDAF8080000F069F9FBF762FEA8
:1047A00002460B462AA800F0E7F92AA800F0FAFA18
:1047B000DAF8040000F05BF9FBF754FE02460B4602
:1047C00048A800F0D9F948A800F0ECFADAF800009F
:1047D00000F04DF9FBF746FE02460B460CA800F030
:1047E000CBF90CA800F0DEFA5046FFF762FE66A88F
:1047F00000F0CCF902460B46DAE90A01FBF7E6FCC9
:10480000CAE90A012AA800F0C1F902460B46DAE912
:104810000801FBF7DBFCCAE9080148A800F0B6F97B
:1048200002460B46DAE90601FBF7D0FCCAE90601AD
:104830000CA800F0ABF902460B46DAE90401FBF7DD
:10484000C5FCCAE904015046FFF73EFE08F1FF38F7
:10485000DAF8000000F00BF933E70CA800F079F962
:104860002AA800F076F948A800F073F966A800F0CD
:1048700070F90DF5247DBDE8F0870CA800F069F90A
:104880002AA800F066F948A800F063F966A800F0CD
:1048900060F903F097FBF3E7F5E7F7E7AFF3008084
:1048A000CDCCCCCCCCCCE43F0000144010B50446B9
:1048B000FFF7FFFD2046FFF707FE206810B100213B
:1048C00000F0B2F8A06810B1002100F0ADF8606807
:1048D00010B1012100F0A8F8E06810B1012100F04A
:1048E000A3F810BD2DE9D043044616461F46DDE966
:1048F00006890022002330463946FCF78FF898B924
:104900000022002340464946FCF788F868BBC4E90A
:104910000467C4E90867C4E90689C4E90A8920462E
:10492000FFF7D2FDBDE8D083002200234046494670
:10493000FCF792F80028E3D007F100431F462068F7
:1049400010B1012100F070F8A06810B1012100F051
:104950006BF8E06810B1012100F066F8606800288B
:10496000D5D0012100F060F8D1E7002200233046C5
:104970003946FCF771F80028C9D009F1004399467F
:10498000206810B1002100F04FF8A06810B100219C
:1049900000F04AF8E06810B1002100F045F86068C6
:1049A0000028B4D0002100F03FF8B0E738B5044645
:1049B000002303704360836000F11005284600F077
:1049C00093F80121284600F0C5F804E0284600F0DD
:1049D000C0F803F0F7FA204638BD10B50446103091
:1049E00000F0B7F8204610BD10B500F110042046C5
:1049F00000F0B3F8DDE90223204600F0B3F8DDE96A
:104A00000423204600F0B3F810BD2DE9004886B01D
:104A1000DDE908BCCDE900BC00F1100102A800F0FE
:104A2000D4F806B0BDE80088017070470078704780
:104A300038B5017811B103F100452B46103000F074
:104A4000A0F838BD8160704738B504460D46084669
:104A5000FBF708FD02460B4604F1100000F08CF84D
:104A6000237803B16D4260682844606038BD4068B7
:104A70007047034600205860704738B5044600F17F
:104A80001005284600F08EF9A4681CB1284600F0F5
:104A90007DF8A04738BD2DE9F84316461F46089B10
:104AA000D3E90089D3E9024522462B4640464946D0
:104AB000FBF7AAFF90B932463B4640464946FBF712
:104AC000CBFF08B9B046B94642464B462046294678
:104AD000FBF7A4FF20B944464D4601E034463D466D
:104AE00020462946BDE8F88330B401220260002444
:104AF0000025C0E90245C0E90445C0E90645C0E912
:104B00001645C0E91845C0E91A45C0E91C4530BC46
:104B1000704730B40124046000240025C0E9024538
:104B2000C0E90445C0E90645C0E91645C0E9184595
:104B3000C0E91A45C0E91C450160C0E90223DDE96E
:104B40000223C0E90423DDE90423C0E9062330BCC5
:104B500070477047016008467047C0E9022310465D
:104B600019467047C0E90423104619467047C0E94A
:104B70000623104619467047C0E908231046194617
:104B80007047C0E90A23104619467047D0E914015E
:104B9000704730B484B08446DDE90645CDE9002392
:104BA000CDE90245C1E91623C1E9184558310FC9BD
:104BB0008CE80F00604604B030BC70478446583122
:104BC0000FC98CE80F006046704730B484B084464B
:104BD000DDE90645CDE90023CDE90245C1E91A2307
:104BE000C1E91C4568310FC98CE80F00604604B06C
:104BF00030BC7047844668310FC98CE80F006046AE
:104C000070472DE9F04786B08246D0E91023C0E90D
:104C10001223D0E90C23C0E91023D0E90A01DAE914
:104C20000823FBF7D1FACAE90C01DAE90245DAE90F
:104C30000C01DAE91023FBF7C7FA02460B462046BF
:104C40002946FBF779FC04460D46DAE90C23DAE93C
:104C50000401FBF771FC02460B4620462946FBF790
:104C6000B5FA04460D46DAE90667DAE90C89DAE9AD
:104C7000100102460B46FBF7A9FA02460B464046D6
:104C80004946FBF7A1FADAE91223FBF79FFA02463D
:104C90000B4630463946FBF74FFC02460B46204692
:104CA0002946FBF793FA02460B46DAE91401FBF7B3
:104CB0008DFACAE91401DAE9146702AC51462046BC
:104CC000FFF798FF009432463B465046FFF7E3FE5D
:104CD000CAE9140106B0BDE8F0872DE9D0438AB0D7
:104CE0000446D0E90C23C0E91023D0E90A01D4E935
:104CF0000823FBF769FAC4E90C01D4E90C23D4E9D1
:104D00000E01FBF763FAC4E90E01D4E90E8902AE85
:104D100021463046FFF752FF009642464B4620465A
:104D2000FFF7B9FEC4E90E01D4E90C23D4E902016E
:104D3000FBF702FC06460F46D4E90E23D4E9040132
:104D4000FBF7FAFB02460B4630463946FBF73EFAC4
:104D500006460F46D4E90689D4E90C01D4E91023AC
:104D6000FBF732FA02460B4640464946FBF7E4FBA6
:104D700002460B4630463946FBF728FAC4E91401CF
:104D8000D4E9148906AE21463046FFF733FF00967A
:104D900042464B462046FFF77EFEC4E914010AB0A6
:104DA000BDE8D08310B504460368012B05D0022B63
:104DB00006D02046FFF7EAFE10BDFFF722FFF8E716
:104DC000FFF78BFFF5E7000082B0002100910B4B4D
:104DD0005A6C42F480425A645A6C02F48042009247
:104DE000009A01911A6C42F080521A641B6C03F015
:104DF00080530193019B02B0704700BF003802400E
:104E0000FEE7FEE7FEE7FEE7FEE770477047704704
:104E100008B500F049FE08BD08B5024801F05CF88D
:104E200008BD00BFC015002008B5024802F090FE82
:104E300008BD00BFB016002008B5024801F06FFEA3
:104E400008BD00BF5814002008B5024801F067FEF5
:104E500008BD00BF1014002008B5024802F078FE1B
:104E600008BD00BF201600200120704708B50DF0D6
:104E700029FB162303604FF0FF3008BD08B54FF043
:104E8000FF31FFF7F3FFFEE770B50C46164600252D
:104E900006E0AFF30080214601F8010B01350C4616
:104EA000B542F6DB304670BD70B50C46164600259F
:104EB00004E014F8010BAFF300800135B542F8DBD4
:104EC000304670BD4FF0FF3070474FF400534B60D9
:104ED00000207047012070470020704710B503463E
:104EE0000C4A0D490D48006840B10C480068034465
:104EF000521A934206D8094A136010BD0748084C5D
:104F00000460F2E70DF0DEFA0C2303604FF0FF308F
:104F1000F3E700BF00000220000400007C13002023
:104F2000201B00207047000000B58DB02422002116
:104F300003A80CF06DFF00230193029312484FF079
:104F400080420260436083604FF0FF32C2600361C1
:104F500083610323039301230593099303A901F0BC
:104F600051FF50B900230193029301A9064802F0B2
:104F7000CDF928B90DB05DF804FBFFF76FF9F1E743
:104F8000FFF76CF9F6E700BF3015002000B58DB0D3
:104F90002422002103A80CF03BFF0023019302937D
:104FA0001148124A0260436083604FF6FF72C2608C
:104FB000036183610323039301230593099303A9E9
:104FC00001F020FF50B900230193029301A9064884
:104FD00002F09CF928B90DB05DF804FBFFF73EF92B
:104FE000F1E7FFF73BF9F6E7E81400200004004082
:104FF00000B58DB02422002103A80CF009FF002386
:10500000019302931148124A0260436083604FF695
:10501000FF72C2600361836103230393012305933D
:10502000099303A901F0EEFE50B900230193029306
:1050300001A9064802F06AF928B90DB05DF804FB31
:10504000FFF70CF9F1E7FFF709F9F6E7A0140020E4
:105050000008004000B583B00023009301930F487F
:105060000F4A026040F63302426083604FF6FF72DF
:10507000C260836101F06EFE50B90023009301937A
:105080006946064802F042F928B903B05DF804FB0E
:10509000FFF7E4F8F1E7FFF7E1F8F6E7581400202E
:1050A0000010004000B583B00023009301930F4827
:1050B0000F4A026053224260836040F2E732C260CE
:1050C000836101F047FE50B90023009301936946C4
:1050D000064802F01BF928B903B05DF804FBFFF79E
:1050E000BDF8F1E7FFF7BAF8F6E700BF10140020AB
:1050F0000014004000B58DB02422002103A80CF05C
:1051000087FE0023019302931248134A0260436012
:1051100083604FF6FF72C2600361436183610323C2
:10512000039301230593099303A901F06BFE50B982
:1051300000230193029301A9064802F0E7F828B979
:105140000DB05DF804FBFFF789F8F1E7FFF786F88B
:10515000F6E700BFC81300200004014000B585B089
:105160000368284A93420BD0274A934215D0274A16
:10517000934226D0264A934237D005B05DF804FB0F
:1051800000230093234B5A6C42F001025A645B6C7B
:1051900003F001030093009BEFE7002101911D4BF9
:1051A0001A6C42F010021A641B6C03F01003019396
:1051B000019B0A46362000F0F1FC362000F0FEFC90
:1051C000DBE700210291134B1A6C42F020021A64B3
:1051D0001B6C03F020030293029B0A46372000F069
:1051E000DDFC372000F0EAFCC7E700230393094BFE
:1051F0005A6C42F480325A645B6C03F4803303933C
:10520000039BBAE70000014000100040001400407A
:10521000004001400038024070B58EB00023099371
:105220000A930B930C930D930368B3F1804F0AD04C
:10523000514A93423ED0514A93425BD0504A9342E6
:1052400079D00EB070BD0024009403F50E331A6CB3
:1052500042F001021A641A6C02F001020092009AF4
:1052600001941A6B42F001021A631A6B02F00102F8
:105270000192019A02941A6B42F002021A631B6BAC
:1052800003F002030293029B4FF4004309930226AA
:105290000A9601250D9509A93A4800F00BFF08234D
:1052A00009930A960B940C940D9509A9364800F0C1
:1052B00001FFC6E700210391344B1A6C42F0020251
:1052C0001A641A6C02F002020392039A04911A6B98
:1052D00042F001021A631B6B03F001030493049B69
:1052E000C023099302230A930D9309A9254800F0CE
:1052F000E1FEA6E700210591244B1A6C42F004025E
:105300001A641A6C02F004020592059A06911A6B4F
:1053100042F008021A631B6B03F008030693069B16
:105320004FF44053099302230A930D9309A9184897
:1053300000F0C0FE85E700210791144B5A6C42F043
:1053400002025A645A6C02F002020792079A08910C
:105350001A6B42F004021A631B6B03F004030893F8
:10536000089BC023099302230A9303230D9309A9E1
:10537000084800F09FFE64E7000400400008004079
:1053800000040140000002400004024000380240D6
:10539000000C02400008024000B589B000230393CE
:1053A000049305930693079303681C4A934205D020
:1053B0001B4A93421AD009B05DF804FB0023019305
:1053C000184B1A6B42F010021A631B6B03F01003A8
:1053D0000193019B4FF4D4430393022304930123CD
:1053E000079303A9104800F065FEE4E70023029349
:1053F0000C4B1A6B42F010021A631B6B03F0100384
:105400000293029B602303930223049303230793D5
:1054100003A9054800F04EFECDE700BF00000140A3
:1054200000400140003802400010024010B596B024
:1054300000241294139414941594109411940994C4
:105440000A940B940C940D940E940F9420222146F0
:1054500001A80CF0DDFC3B483B4B03600723436095
:10546000846040F2E733C36004614461846101F009
:1054700071FC00284BD14FF48053129312A931488C
:1054800001F0CEFD002845D12E4801F08FFC002808
:1054900043D100231093119310A92A4801F036FF3D
:1054A00000283DD16023099300220A920B920C92AE
:1054B0000D920E920F9209A9224801F037FD0028A3
:1054C00031D1042209A91F4801F030FD70BB082228
:1054D00009A91C4801F02AFD58BB0C2209A919484A
:1054E00001F024FD40BB0023019302930393049336
:1054F00005934FF400520692089301A9114801F058
:105500004BFFE0B90F48FFF747FF16B010BDFEF79D
:10551000A5FEB0E7FEF7A2FEB6E7FEF79FFEB8E7EE
:10552000FEF79CFEBEE7FEF799FECAE7FEF796FE81
:10553000CDE7FEF793FED0E7FEF790FED3E7FEF748
:105540008DFEDFE7781500200000014000B58DB02A
:105550000023089309930A930B93019302930393F7
:1055600004930593069307932048214A026040F272
:105570004F124260836042F20F72C2600361836126
:1055800001F0E8FB18BB4FF48053089308A91748B3
:1055900001F046FDF0B9154801F008FCE8B96023B8
:1055A0000193002202920392059201A90F4801F093
:1055B000BDFCA8B904220DEB02010C4801F0B6FCB9
:1055C00088B90A48FFF7E8FE0DB05DF804FBFEF766
:1055D00045FED8E7FEF742FEDDE7FEF73FFEDEE7D9
:1055E000FEF73CFEE6E7FEF739FEEAE7801300200F
:1055F0000040014008B50A480A4B03604FF4E1330C
:10560000436000238360C36003610C2242618361B5
:10561000C36102F026F800B908BDFEF71FFEFBE7E4
:1056200088170020004C004008B50A480A4B036068
:105630004FF41653436000238360C36003610C2260
:1056400042618361C36102F00CF800B908BDFEF746
:1056500005FEFBE7401700200050004008B50A484F
:105660000A4B03604FF4E133436000238360C3605F
:1056700003610C2242618361C36101F0F2FF00B952
:1056800008BDFEF7EBFDFBE7F81600200010014017
:1056900008B50A480A4B03604FF4E1334360002326
:1056A0008360C36003610C2242618361C36101F0C6
:1056B000D8FF00B908BDFEF7D1FDFBE7B01600200A
:1056C0000044004008B50A480A4B03604FF4E13338
:1056D000436000238360C36003610C2242618361E5
:1056E000C36101F0BEFF00B908BDFEF7B7FDFBE7DF
:1056F000681600200048004008B50A480A4B0360BD
:105700004FF4E133436000238360C36003610C22E4
:1057100042618361C36101F0A4FF00B908BDFEF7D7
:105720009DFDFBE72016002000140140F0B593B06A
:1057300000230D930E930F93109311930368974AD0
:10574000934214D00446964A934234D0954A9342E9
:1057500069D0954A934200F08A80944A934200F0BF
:10576000CC80934A934200F0EC8013B0F0BD00214E
:105770000091904B1A6C42F400221A641A6C02F4E5
:1057800000220092009A01911A6B42F004021A63FF
:105790001B6B03F004030193019B4FF440630D93D3
:1057A00002230E9303231093082311930DA982481B
:1057B00000F080FCD9E7002402947E4B1A6C42F47E
:1057C00080121A641A6C02F480120292029A0394F4
:1057D0001A6B42F004021A631A6B02F0040203927D
:1057E000039A04941A6B42F008021A631B6B03F0CD
:1057F00008030493049B4FF480530D9302270E97E4
:1058000003261096082511950DA96B4800F052FC4F
:1058100004230D930E970F94109611950DA96748C8
:1058200000F048FCA1E700210591624B5A6C42F060
:1058300010025A645A6C02F010020592059A069101
:105840001A6B42F001021A631B6B03F0010306930B
:10585000069B4FF4C0630D9302230E930323109312
:10586000072311930DA9564800F024FC7DE700257D
:105870000795504B1A6C42F400321A641A6C02F409
:1058800000320792079A08951A6B42F001021A63D8
:105890001B6B03F001030893089B0C230D93022359
:1058A0000E9303231093072311930DA9444800F08E
:1058B00001FC4448444B03604FF000634360856043
:1058C000C5604FF480630361456185614FF4807367
:1058D000C3610562456200F007FA58B9394BE363CA
:1058E0009C6300221146262000F058F9262000F083
:1058F00065F93AE7FEF7B2FCF0E7002109912D4B7C
:105900001A6C42F480221A641A6C02F48022099202
:10591000099A0A911A6B42F002021A631B6B03F098
:1059200002030A930A9B4FF440630D9302230E93E4
:1059300003231093072311930DA9244800F0BAFB09
:1059400013E700240B941B4B5A6C42F020025A645C
:105950005A6C02F020020B920B9A0C941A6B42F0D4
:1059600040021A631B6B03F040030C930C9B4FF433
:1059700084430D9302230E93032310930823119362
:105980000DA9134800F096FB22462146472000F05F
:1059900005F9472000F012F9E7E600BF004C00408F
:1059A000005000400010014000440040004800400A
:1059B000001401400038024000080240000C024080
:1059C00000000240C0150020886002400004024030
:1059D00000180240DFF834D0FFF7A4FA0C480D4954
:1059E0000D4A002302E0D458C4500433C4188C423A
:1059F000F9D30A4A0A4C002301E013600432A242A0
:105A0000FBD30CF065FDFEF77DFC70470000022023
:105A100000000020C806002008400208C806002038
:105A20001C1B0020FEE7000010B504460E4B1A7840
:105A30004FF47A73B3FBF2F30C4A1068B0FBF3F047
:105A400000F0C0F868B90F2C01D901200AE000224B
:105A500021464FF0FF3000F0A1F8054B1C600020FC
:105A600000E0012010BD00BF08000020040000205D
:105A70000C00002008B50B4B1A6842F400721A6043
:105A80001A6842F480621A601A6842F480721A60DE
:105A9000032000F071F80F20FFF7C6FFFFF794F91D
:105AA000002008BD003C0240034A1168034B1B78EC
:105AB0000B441360704700BFD0170020080000207F
:105AC000014B1868704700BFD017002038B5044656
:105AD000FFF7F6FF0546B4F1FF3F02D0044B1B78F9
:105AE0001C44FFF7EDFF401BA042FAD338BD00BFB6
:105AF00008000020002807DB00F01F0240090123F6
:105B00009340024A42F82030704700BF00E100E0B5
