:020000040800F2
:10000000000002206D610008995500089B5500080A
:100010009D5500089F550008A155000800000000EC
:10002000000000000000000000000000A3550008D0
:10003000A555000800000000A7550008A9550008B4
:10004000BD610008BD610008BD610008BD61000818
:10005000BD610008BD610008BD610008BD61000808
:10006000BD610008BD610008BD610008BD610008F8
:10007000BD610008BD610008BD610008BD610008E8
:10008000B1550008BD610008BD610008BD610008F0
:10009000BD610008BD610008BD610008BD610008C8
:1000A000BD610008BD610008BD610008BD610008B8
:1000B000BD610008BD610008BD610008BD610008A8
:1000C000BD610008BD610008BD610008BD61000898
:1000D000BD610008BD610008C1550008BD61000890
:1000E000BD610008BD610008BD610008BD61000878
:1000F000BD610008BD610008BD610008BD61000868
:10010000BD610008BD610008BD610008BD61000857
:10011000BD610008BD610008D1550008E155000827
:10012000BD610008BD610008BD610008BD61000837
:10013000BD610008BD610008BD610008BD61000827
:10014000BD610008BD610008BD610008BD61000817
:10015000BD610008BD610008BD610008F1550008DF
:10016000BD610008BD610008BD610008BD610008F7
:10017000BD610008BD610008BD610008000000000D
:08018000BD610008BD6100082B
:1001C00081F0004102E000BF83F0004330B54FEA08
:1001D00041044FEA430594EA050F08BF90EA020F75
:1001E0001FBF54EA000C55EA020C7FEA645C7FEA08
:1001F000655C00F0E2804FEA5454D4EB5555B8BF2B
:100200006D420CDD2C4480EA020281EA030382EA9B
:10021000000083EA010180EA020281EA0303362D2D
:1002200088BF30BD11F0004F4FEA01314FF4801C00
:100230004CEA113102D0404261EB410113F0004F12
:100240004FEA03334CEA133302D0524263EB4303C9
:1002500094EA050F00F0A780A4F10104D5F1200E67
:100260000DDB02FA0EFC22FA05F2801841F10001C2
:1002700003FA0EF2801843FA05F359410EE0A5F196
:1002800020050EF1200E012A03FA0EFC28BF4CF0C7
:10029000020C43FA05F3C01851EBE37101F000457D
:1002A00007D54FF0000EDCF1000C7EEB00006EEB8A
:1002B0000101B1F5801F1BD3B1F5001F0CD3490814
:1002C0005FEA30004FEA3C0C04F101044FEA44526B
:1002D00012F5800F80F09A80BCF1004F08BF5FEAF2
:1002E000500C50F1000041EB045141EA050130BDD2
:1002F0005FEA4C0C404141EB0101013C28BFB1F5E4
:10030000801FE9D291F0000F04BF01460020B1FA2E
:1003100081F308BF2033A3F10B03B3F120020CDA01
:100320000C3208DD02F1140CC2F10C0201FA0CF0DF
:1003300021FA02F10CE002F11402D8BFC2F1200C44
:1003400001FA02F120FA0CFCDCBF41EA0C019040FA
:10035000E41AA2BF01EB0451294330BD6FEA040443
:100360001F3C1CDA0C340EDC04F11404C4F120022E
:1003700020FA04F001FA02F340EA030021FA04F340
:1003800045EA030130BDC4F10C04C4F1200220FA97
:1003900002F001FA04F340EA0300294630BD21FAD5
:1003A00004F0294630BD94F0000F83F4801306BF9B
:1003B00081F480110134013D4EE77FEA645C18BF8F
:1003C0007FEA655C29D094EA050F08BF90EA020F26
:1003D00005D054EA000C04BF1946104630BD91EA1E
:1003E000030F1EBF0021002030BD5FEA545C05D121
:1003F0004000494128BF41F0004130BD14F5800460
:100400003CBF01F5801130BD01F0004545F0FE41D3
:1004100041F470014FF0000030BD7FEA645C1ABF08
:10042000194610467FEA655C1CBF0B46024650EA3F
:10043000013406BF52EA033591EA030F41F400216B
:1004400030BD00BF90F0000F04BF0021704730B5F1
:100450004FF4806404F132044FF000054FF00001C6
:1004600050E700BF90F0000F04BF0021704730B587
:100470004FF4806404F1320410F0004548BF40425C
:100480004FF000013EE700BF42004FEAE2014FEAB1
:1004900031014FEA02701FBF12F07F4393F07F4F8C
:1004A00081F06051704732F07F4208BF704793F08F
:1004B0007F4F04BF41F40021704730B54FF46074A2
:1004C00001F0004521F000411CE700BF50EA0102A5
:1004D00008BF704730B54FF000050AE050EA01024E
:1004E00008BF704730B511F0004502D5404261EBBE
:1004F00041014FF4806404F132045FEA915C3FF4FF
:10050000D8AE4FF003025FEADC0C18BF03325FEA9B
:10051000DC0C18BF033202EBDC02C2F1200300FA4C
:1005200003FC20FA02F001FA03FE40EA0E0021FA71
:1005300002F11444BDE600BF70B54FF0FF0C4CF45F
:10054000E06C1CEA11541DBF1CEA135594EA0C0F11
:1005500095EA0C0F00F0DEF82C4481EA030621EA4C
:100560004C5123EA4C5350EA013518BF52EA033587
:1005700041F4801143F4801338D0A0FB02CE4FF039
:100580000005E1FB02E506F00042E0FB03E54FF069
:100590000006E1FB03569CF0000F18BF4EF0010E61
:1005A000A4F1FF04B6F5007F64F5407404D25FEA5D
:1005B0004E0E6D4146EB060642EAC62141EA555110
:1005C0004FEAC52040EA5E504FEACE2EB4F1FD0C52
:1005D00088BFBCF5E06F1ED8BEF1004F08BF5FEAD0
:1005E000500E50F1000041EB045170BD06F0004682
:1005F00046EA010140EA020081EA0301B4EB5C042F
:10060000C2BFD4EB0C0541EA045170BD41F4801126
:100610004FF0000E013C00F3AB8014F1360FDEBF4B
:10062000002001F0004170BDC4F10004203C35DA27
:100630000C341BDC04F11404C4F1200500FA05F3AA
:1006400020FA04F001FA05F240EA020001F000424B
:1006500021F0004110EBD37021FA04F642EB0601C1
:100660005EEA430E08BF20EAD37070BDC4F10C04EB
:10067000C4F1200500FA04F320FA05F001FA04F2AF
:1006800040EA020001F0004110EBD37041F100019B
:100690005EEA430E08BF20EAD37070BDC4F12005A6
:1006A00000FA05F24EEA020E20FA04F301FA05F20E
:1006B00043EA020321FA04F001F0004121FA04F2B6
:1006C00020EA020000EBD3705EEA430E08BF20EA86
:1006D000D37070BD94F0000F0FD101F000464000C0
:1006E00041EB010111F4801F08BF013CF7D041EA42
:1006F000060195F0000F18BF704703F00046520046
:1007000043EB030313F4801F08BF013DF7D043EA16
:100710000603704794EA0C0F0CEA135518BF95EACC
:100720000C0F0CD050EA410618BF52EA4306D1D153
:1007300081EA030101F000414FF0000070BD50EA72
:10074000410606BF1046194652EA430619D094EAFC
:100750000C0F02D150EA013613D195EA0C0F05D1E6
:1007600052EA03361CBF104619460AD181EA03013A
:1007700001F0004141F0FE4141F470014FF00000F2
:1007800070BD41F0FE4141F4780170BD70B54FF08D
:10079000FF0C4CF4E06C1CEA11541DBF1CEA13550D
:1007A00094EA0C0F95EA0C0F00F0A7F8A4EB0504EF
:1007B00081EA030E52EA03354FEA013100F08880E6
:1007C0004FEA03334FF0805545EA131343EA1263AF
:1007D0004FEA022245EA111545EA10654FEA002664
:1007E0000EF000419D4208BF964244F1FD0404F51D
:1007F000407402D25B084FEA3202B61A65EB030579
:100800005B084FEA32024FF480104FF4002CB6EB35
:10081000020E75EB030E22BFB61A754640EA0C00B5
:100820005B084FEA3202B6EB020E75EB030E22BFF5
:10083000B61A754640EA5C005B084FEA3202B6EB36
:10084000020E75EB030E22BFB61A754640EA9C00F5
:100850005B084FEA3202B6EB020E75EB030E22BFC5
:10086000B61A754640EADC0055EA060E18D04FEA83
:10087000051545EA16754FEA06164FEAC30343EA23
:1008800052734FEAC2025FEA1C1CC0D111F4801FF0
:100890000BD141EA00014FF000004FF0004CB6E7E9
:1008A00011F4801F04BF01430020B4F1FD0C88BF88
:1008B000BCF5E06F3FF6AFAEB5EB030C04BFB6EB93
:1008C000020C5FEA500C50F1000041EB045170BD86
:1008D0000EF0004E4EEA113114EB5C04C2BFD4EBB3
:1008E0000C0541EA045170BD41F480114FF0000E37
:1008F000013C90E645EA060E8DE60CEA135594EAB3
:100900000C0F08BF95EA0C0F3FF43BAF94EA0C0FB5
:100910000AD150EA01347FF434AF95EA0C0F7FF42A
:1009200025AF104619462CE795EA0C0F06D152EA7E
:1009300003353FF4FDAE1046194622E750EA410662
:1009400018BF52EA43067FF4C5AE50EA41047FF473
:100950000DAF52EA43057FF4EBAE12E74FF0FF3CD8
:1009600006E000BF4FF0010C02E000BF4FF0010CA9
:100970004DF804CD4FEA410C7FEA6C5C4FEA430C22
:1009800018BF7FEA6C5C1BD001B050EA410C0CBF71
:1009900052EA430C91EA030F02BF90EA020F0020D3
:1009A000704710F1000F91EA030F58BF994208BF3A
:1009B00090422CBFD8176FEAE37040F001007047F7
:1009C0004FEA410C7FEA6C5C02D150EA013C07D14E
:1009D0004FEA430C7FEA6C5CD6D152EA033CD3D099
:1009E0005DF8040B704700BF8446104662468C4693
:1009F0001946634600E000BF01B5FFF7B7FF0028C6
:100A000048BF10F1000F01BD4DF808EDFFF7F4FFEE
:100A10000CBF012000205DF808FB00BF4DF808ED79
:100A2000FFF7EAFF34BF012000205DF808FB00BF9C
:100A30004DF808EDFFF7E0FF94BF012000205DF8BE
:100A400008FB00BF4DF808EDFFF7CEFF94BF012073
:100A500000205DF808FB00BF4DF808EDFFF7C4FF6C
:100A600034BF012000205DF808FB00BF4FEA410CB5
:100A70007FEA6C5C02D150EA013C0AD14FEA430C98
:100A80007FEA6C5C02D152EA033C02D14FF00000D5
:100A900070474FF0010070474FEA410212F5001213
:100AA00015D211D56FF47873B3EB625212D94FEAB5
:100AB000C12343F0004343EA505311F0004F23FA9F
:100AC00002F018BF404270474FF00000704750EAF4
:100AD000013005D111F0004008BF6FF000407047B1
:100AE0004FF00000704700BF4A0011D212F500120B
:100AF00011D20DD56FF47873B3EB62520ED44FEA76
:100B0000C12343F0004343EA505323FA02F07047F5
:100B10004FF00000704750EA013002D14FF0FF3033
:100B200070474FF00000704753B94AB9002908BF19
:100B300000281CBF4FF0FF314FF0FF3000F0E2B84B
:100B4000ADF1080C6DE904CE0FF052F9DDF804E0C8
:100B5000DDE9022304B0704700F1340191E8380068
:100B60009C46A6464CF8045D90E8FF0FE54600BDA4
:100B700090EC210B704700BF80EC210B704700BF49
:100B800090EC200B704700BF80EC200B704700BF3B
:100B9000D0EC200B704700BFC0EC200B704700BFAB
:100BA000F0EC0201F0EC0211F0EC0221F0EC023169
:100BB000F0EC0241F0EC0251F0EC0261F0EC027159
:100BC000F0EC0281F0EC0291F0EC02A1F0EC02B149
:100BD000F0EC02C1F0EC02D1F0EC02E1F0EC02F139
:100BE000704700BFE0EC0201E0EC0211E0EC0221F2
:100BF000E0EC0231E0EC0241E0EC0251E0EC026199
:100C0000E0EC0271E0EC0281E0EC0291E0EC02A188
:100C1000E0EC02B1E0EC02C1E0EC02D1E0EC02E178
:100C2000E0EC02F1704700BFB0FC0181B0FC019123
:100C3000B0FC01A1B0FC01B1704700BFA0FC018174
:100C4000A0FC0191A0FC01A1A0FC01B1704700BF74
:100C5000EC4600B52DE900502DE9FF1F4FF00003D1
:100C60002DE90C0001A90FF075FBDDF840E012B092
:100C7000704700BFEC4600B52DE900502DE9FF1F7D
:100C80004FF000032DE90C0001A90FF09FFBDDF8E8
:100C900040E012B0704700BFEC4600B52DE90050AF
:100CA0002DE9FF1F4FF000032DE90C0001A90FF003
:100CB000ADFBDDF840E012B0704700BFEC4600B578
:100CC0002DE900502DE9FF1F4FF000032DE90C0026
:100CD00001AB0FF073FBDDF840E012B0704700BFCE
:100CE000EC4600B52DE900502DE9FF1F4FF0000341
:100CF0002DE90C0001AA0FF0E5FBDDF840E012B091
:100D0000704700BF704700BF0000000000000000F7
:100D100000000000000000000000000000000000D3
:100D200002780B78012A28BF9A4240F0D8806DE9FA
:100D3000044540EA0104CDE902676FF0000C4FEA78
:100D400044721AB380EA010414F0070F6BD100F06B
:100D5000070420F0070004F0030521F007014FEA23
:100D6000C505F0E8042314F0040FF1E804670CFA59
:100D700005F462EA040266EA04060BD063EA04039F
:100D8000624667EA0407664604E000BFF0E8042311
:100D9000F1E8046782FA4CF582EA0604A4FA8CF4BE
:100DA0006CBB83FA4CF583EA0705A5FA8CF595B977
:100DB00050E9022351E9026782FA4CF582EA0604FF
:100DC000A4FA8CF483FA4CF583EA0705A5FA8CF5AE
:100DD0002543DBD09CB92DBAB5FA85F424F007047D
:100DE00027FA04F1DDE9026723FA04F303F0FF00B8
:100DF00001F0FF01FDE80445A0EB0100704724BAB3
:100E0000B4FA84F424F0070426FA04F1DDE9026759
:100E100022FA04F202F0FF0001F0FF01FDE80445B0
:100E2000A0EB0100704714F0030F3CD110F0030455
:100E300028D150F8082B51F8083B82FA4CF582EA89
:100E40000305A5FA8CF55DB950F8042C51F8043C63
:100E500082FA4CF582EA0305A5FA8CF5002DE8D05C
:100E60002DBAB5FA85F424F0070423FA04F122FA26
:100E700004F202F0FF0001F0FF01FDE80445A0EBE1
:100E8000010070474FEAC40420F0030050F8082B1B
:100E900021F0030151F8083B0CFA04F462EA040261
:100EA00063EA0403C9E710F003041DD0A1EB0401B9
:100EB00020F00300E40750F8042B06D012D28B7800
:100EC0005FFAA2F4E41A06D12BB1CB785FFAB2F440
:100ED000E41A00D133B920465DF8104B7047A2EBFD
:100EE0000300704701F1040150F8042BCC0721F0F6
:100EF000030151F8043B48D824D222F07F4482FAFF
:100F00004CF594EA1325A5FA8CF50AD165B951F888
:100F1000043B84EA0204B4EB036F0ED150F8042BB7
:100F2000EBE74FEA132355E035F07F454DD10878C4
:100F3000FDE80445C0F1000070474FEA126203F07B
:100F4000FF0347E002EA1C4482FA4CF594EA134599
:100F5000A5FA8CF50AD165B951F8043B84EA02047C
:100F6000B4EB034F0CD150F8042BEBE74FEA1343DB
:100F700030E015EA1C4528D10B884FEA124229E0DF
:100F80004FEA124203EA1C4324E002F0FF0482FA13
:100F90004CF594EA1365A5FA8CF50AD165B951F8B8
:100FA000043B84EA0204B4EB032F09D150F8042B6C
:100FB000EBE74FEA13630DE015F0FF0F05D10B6867
:100FC0004FEA122223F07F4304E04FF00000FDE8D7
:100FD0000445704712BA1BBA82FA4CF482EA030441
:100FE000A4FA8CF5B5FA85F402FA04F203FA04F3D4
:100FF0004FEA1260FDE80445A0EB1360704700BFA4
:1010000001F0FF01102A2BDB10F0070F08D010F8B9
:10101000013B013A8B422DD010F0070F42B3F6D1BD
:10102000F0B441EA012141EA014122F007047FF0D6
:1010300000070023F0E80256083C85EA010586EA2D
:10104000010685FA47F5A3FA87F586FA47F6A5FA69
:1010500087F68EB9EED1F0BC01F0FF0102F0070275
:1010600032B110F8013B013A83EA010313B1F8D120
:101070000020704701387047002D06BF3546033801
:10108000073815F0010F07D1013015F4807F02BF3A
:10109000013015F4C03F0130F0BC0138704700BF8B
:1010A000844641EA000313F003036DD1403A41D373
:1010B00051F8043B40F8043B51F8043B40F8043B32
:1010C00051F8043B40F8043B51F8043B40F8043B22
:1010D00051F8043B40F8043B51F8043B40F8043B12
:1010E00051F8043B40F8043B51F8043B40F8043B02
:1010F00051F8043B40F8043B51F8043B40F8043BF2
:1011000051F8043B40F8043B51F8043B40F8043BE1
:1011100051F8043B40F8043B51F8043B40F8043BD1
:1011200051F8043B40F8043B51F8043B40F8043BC1
:10113000403ABDD2303211D351F8043B40F8043B61
:1011400051F8043B40F8043B51F8043B40F8043BA1
:1011500051F8043B40F8043B103AEDD20C3205D371
:1011600051F8043B40F8043B043AF9D2043208D069
:10117000D2071CBF11F8013B00F8013B01D30B88DB
:1011800003806046704700BF082A13D38B078DD0B9
:1011900010F003038AD0C3F10403D21ADB071CBF8B
:1011A00011F8013B00F8013B80D331F8023B20F8F5
:1011B000023B7BE7043AD9D3013A11F8013B00F82E
:1011C000013BF9D20B7803704B7843708B788370B6
:1011D00060467047000000000000000000000000B2
:1011E00000000000000000000000000000000000FF
:1011F00000000000000000000000000000000000EF
:1012000030B490F800F020F007016FF0000C10F0FF
:10121000070491F820F040F048804FF000046FF090
:101220000700D1E9002391F840F000F1080082FAAC
:101230004CF2A4FA8CF283FA4CF3A2FA8CF34BBB77
:10124000D1E9022382FA4CF200F10800A4FA8CF2F0
:1012500083FA4CF3A2FA8CF3E3B9D1E9042382FABE
:101260004CF200F10800A4FA8CF283FA4CF3A2FAD3
:101270008CF37BB9D1E9062301F1200182FA4CF20B
:1012800000F10800A4FA8CF283FA4CF3A2FA8CF372
:10129000002BC6D0002A04BF04301A4612BAB2FA94
:1012A00082F200EBD20030BC7047D1E9002304F099
:1012B0000305C4F100004FEAC50514F0040F91F8CE
:1012C00040F00CFA05F562EA05021CBF63EA05036B
:1012D00062464FF00004AAE70348044B834202D061
:1012E000034B03B118477047C8060020C80600200A
:1012F000000000000548064B1B1AD90F01EBA301A3
:10130000491002D0034B03B118477047C8060020AC
:10131000C80600200000000010B5064C237843B931
:10132000FFF7DAFF044B13B10448AFF30080012349
:10133000237010BDC806002000000000AC75010835
:1013400008B5054B1BB105490548AFF30080BDE862
:101350000840FFF7CFBF00BF00000000CC06002010
:10136000AC750108F8B504460D46534803F02AFF52
:10137000002851D0264605F10047002200232046D0
:101380002946FFF769FBE8B90022002320462946D9
:10139000FFF744FB48BB0022002320462946FFF705
:1013A00033FB08B3454B1B680024DC63444D2246E5
:1013B0001021284605F044FB22462021284605F04E
:1013C0003FFB11E03E4C01221021204605F038FB86
:1013D00000222021204605F033FB384B1C683046A4
:1013E0003946FFF781FBE063F8BD354E002210213E
:1013F000304605F025FB01222021304605F020FB78
:101400002E4B1E6822462B4600202E49FEF7DCFE9E
:10141000FFF76AFBF063E7E7002200232046294636
:10142000FFF7FCFAF0B90022002320462946FFF717
:1014300013FB50BB0022002320462946FFF7E4FAA5
:101440000028D1D01D4B1B680024DC631C4D2246B4
:101450001021284605F0F4FA22462021284605F0FE
:10146000EFFAC1E7164E00221021304605F0E8FAE7
:1014700001222021304605F0E3FA104B1E68204679
:101480002946FFF731FBF063AEE70D4E0122102134
:10149000304605F0D5FA00222021304605F0D0FA7A
:1014A0000022084B20462946FEF790FE034B1C689D
:1014B000FFF71AFBE06397E7C00A002078150020C9
:1014C0000000024000408F40F8B504460D465348E6
:1014D00003F078FE002851D0264605F1004700228F
:1014E000002320462946FFF7B7FAE8B90022002377
:1014F00020462946FFF792FA48BB002200232046E7
:101500002946FFF781FA08B3454C002210212046F6
:1015100005F096FA00222021204605F091FA414B71
:101520001B6800225A6311E03D4C01221021204625
:1015300005F086FA00222021204605F081FA394B79
:101540001C6830463946FFF7CFFA6063F8BD344E69
:1015500000221021304605F073FA01222021304686
:1015600005F06EFA2F4B1E6822462B4600202E49AE
:10157000FEF72AFEFFF7B8FA7063E7E700220023C0
:1015800020462946FFF74AFAF0B9002200232046F8
:101590002946FFF761FA50BB002200232046294666
:1015A000FFF732FA0028D1D01E4B1B6800245C6381
:1015B0001B4D22461021284605F042FA22462021E2
:1015C000284605F03DFAC1E7154E002210213046AD
:1015D00005F036FA01222021304605F031FA114B90
:1015E0001E6820462946FFF77FFA7063AEE70C4E6F
:1015F00001221021304605F023FA00222021304636
:1016000005F01EFA0022084B20462946FEF7DEFDB3
:10161000044B1C68FFF768FA606397E7B009002085
:10162000000802407815002000408F40F8B50446BD
:101630000D46534803F0C6FD002851D0264605F15B
:1016400000470022002320462946FFF705FAE8B9A3
:101650000022002320462946FFF7E0F948BB00227C
:10166000002320462946FFF7CFF908B3454B1B68F6
:1016700000249C63444D22464021284605F0E0F9B1
:1016800022468021284605F0DBF911E03E4C01227C
:101690004021204605F0D4F900228021204605F0A3
:1016A000CFF9384B1C6830463946FFF71DFAA06366
:1016B000F8BD354E00224021304605F0C1F9012227
:1016C0008021304605F0BCF92E4B1E6822462B4681
:1016D00000202E49FEF778FDFFF706FAB063E7E732
:1016E0000022002320462946FFF798F9F0B900228E
:1016F000002320462946FFF7AFF950BB0022002304
:1017000020462946FFF780F90028D1D01D4B1B68E1
:1017100000249C631C4D22464021284605F090F988
:1017200022468021284605F08BF9C1E7164E00229B
:101730004021304605F084F901228021304605F031
:101740007FF9104B1E6820462946FFF7CDF9B0639C
:10175000AEE70D4E01224021304605F071F900221E
:101760008021304605F06CF90022084B20462946BE
:10177000FEF72CFD034B1C68FFF7B6F9A06397E753
:10178000380A0020781500200018024000408F40E1
:10179000F8B504460D46534803F014FD002851D017
:1017A000264605F100470022002320462946FFF780
:1017B00053F9E8B90022002320462946FFF72EF905
:1017C00048BB0022002320462946FFF71DF908B335
:1017D000454B1B6800241C64444D224602212846C8
:1017E00005F02EF922460421284605F029F911E0DA
:1017F0003E4C01220221204605F022F9002204215C
:10180000204605F01DF9384B1C6830463946FFF775
:101810006BF92064F8BD354E00220221304605F0F8
:101820000FF901220421304605F00AF92E4B1E68FB
:1018300022462B4600202E49FEF7C6FCFFF754F93E
:101840003064E7E70022002320462946FFF7E6F848
:10185000F0B90022002320462946FFF7FDF850BBCF
:101860000022002320462946FFF7CEF80028D1D0D9
:101870001D4B1B6800241C641C4D22460221284677
:1018800005F0DEF822460421284605F0D9F8C1E724
:10189000164E00220221304605F0D2F80122042122
:1018A000304605F0CDF8104B1E6820462946FFF75C
:1018B0001BF93064AEE70D4E01220221304605F0DF
:1018C000BFF800220421304605F0BAF80022084B88
:1018D00020462946FEF77AFC034B1C68FFF704F903
:1018E000206497E7280900207815002000040240B2
:1018F00000408F40F8B504460D4616461F46FFF7D8
:1019000097F8B0B120462946FFF7C6F8044606E02E
:10191000134B1B689C63052004F0A4FC0134204693
:10192000FEF7A0FD32463B46FFF782F80028EFD1D4
:10193000F8BD20462946FFF7AFF8044606E0084BFD
:101940001B689C63052004F08DFC013C2046FEF7DB
:1019500089FD32463B46FFF775F80028EFD1E7E7EF
:1019600080130020F8B504460D4616461F46FFF7C3
:101970005FF8B0B120462946FFF78EF8044606E02E
:10198000134B1B685C63052004F06CFC013420469B
:10199000FEF768FD32463B46FFF74AF80028EFD1D4
:1019A000F8BD20462946FFF777F8044606E0084BC5
:1019B0001B685C63052004F055FC013C2046FEF7E3
:1019C00051FD32463B46FFF73DF80028EFD1E7E7EF
:1019D0008013002000000000012800D070474FF65F
:1019E000FF739942FAD12DE9F04F85B0504E304641
:1019F00003F0A8FB4F4C504D22462946304606F0D6
:101A00003BFE4E4E304603F09DFB224629463046B3
:101A100006F032FE4A4E304603F094FB2246294639
:101A2000304606F029FE474E304603F08BFB224637
:101A30002946304606F020FE434D284603F0B0F814
:101A400022464249284606F017FE414D284602F03C
:101A500015F922463F49284606F00EFE0FF2C80946
:101A6000D9E90089DFF8F0B04FF0010ACDF808A0FD
:101A700000260027CDE9006742464B4651465846AE
:101A800001F0DDFE354D22462946584606F0F4FDAC
:101A9000DFF8CCB002230293CDE9006742464B4603
:101AA0005146584601F0CBFE22462946584606F0DC
:101AB000E3FDDFF8B0B003230293CDE900674246AF
:101AC0004B465146584601F0BAFE22462946584632
:101AD00006F0D2FDDFF890904FF00008CDF80880B6
:101AE000CDE900670022214B4146484601F0A7FEA0
:101AF00022462946484606F0BFFDDFF87490CDF82F
:101B00000880CDE9006700221A4B4146484601F0A3
:101B100096FE22462946484606F0AEFD05B0BDE8D1
:101B2000F08F00BFAFF3008065732D3852C10040C5
:101B3000C00A00200000002073510008380A00206D
:101B4000B009002028090020A8080020394C00080E
:101B5000B8070020D13C0008880700206B38000837
:101B60006007002038070020100700200080764022
:101B7000E8060020000049402DE9F04F85B0704C88
:101B800063A3D3E90023CDE9022363A2D2E90012C3
:101B9000CDE9001262A3D3E90023204603F0F0FA56
:101BA0000FF28419D9E900890026664FCDE9006754
:101BB00042464B46204603F0F4FA0022002320461A
:101BC00003F002FB6049204603F008FB0121204698
:101BD00003F0F6FADFF874B155A1D1E90001CDE9BF
:101BE000020155A3D3E90023CDE900230022584B7D
:101BF000584603F0C5FACDE9006742464B465846C1
:101C000003F0CFFA00220023584603F0DDFA5149D1
:101C1000584603F0E3FA0021584603F0D1FADFF802
:101C200038A13BA3D3E90023CDE902233AA2D2E9AC
:101C30000012CDE900123AA3D3E90023504603F085
:101C40009FFACDE9006742464B46504603F0A9FA99
:101C500000220023504603F0B7FA4049504603F0F3
:101C6000BDFA0121504603F0ABFA3D4D30A1D1E958
:101C70000001CDE9020130A3D3E90023CDE900231F
:101C80000022334B284603F07BFACDE90067424639
:101C90004B46284603F085FA00220023284603F02D
:101CA00093FA3049284603F099FA0021284603F0B8
:101CB00087FA2D4F2146384602F0C5FF594638466F
:101CC00002F0BBFF5146384602F0B9FF29463846BC
:101CD00002F0B7FF254E5946304602F052F8514601
:101CE000304602F054F82946304602F04DF82146BD
:101CF000304602F04FF83946304602F03FF83046A1
:101D000002F028F81A4BC3E9000105B0BDE8F08FD6
:101D1000713D0AD7A370CD3F302AA913D0041040DB
:101D20003333333333F332400000000000408FC0C0
:101D30009A9999999999C93F85EB51B81E05104018
:101D40002809002000408F4091170008C00A002099
:101D50000000334065130008380A00202D160008E3
:101D6000B0090020C9140008A8080020B807002006
:101D7000B007002038B5194B1B68596A00245C6213
:101D8000174D09B2284603F02BFA284603F041FA12
:101D9000144B1B68596A5C62134D09B2284603F064
:101DA0001FFA284603F035FA104B1B68596A5C622B
:101DB0000F4D09B2284603F013FA284603F029FA1A
:101DC0000C4B1B68596A5C620B4C09B2204603F04D
:101DD00007FA204603F01DFA38BD00BFC8130020E3
:101DE0002809002030150020380A0020E8140020BF
:101DF000B0090020A0140020C00A0020000000004C
:101E000030B583B004460D461046194600220A4BF1
:101E1000FEF7BCFC06A3D3E90023FEF78DFBCDE95A
:101E2000000122462B46054802F036FF03B030BDC4
:101E300000000000004CED4000003E40A8080020DB
:101E400008B518B1034802F09BFA08BD014802F03A
:101E5000C3FAFAE7B807002008B50449044801F0BE
:101E600008FD0449044801F004FD08BDF518000808
:101E70001007002065190008E80600200000000097
:101E800030B583B00024224DCDE9004518A3D3E935
:101E90000023204801F044FDCDE9004516A3D3E915
:101EA00000231D4801F03CFDCDE9004514A3D3E912
:101EB00000231A4801F034FD4FF4FA7004F0D2F90F
:101EC0004FF4B473009310A3D3E90023144801F036
:101ED000D3FCB42300930022124B134801F0CCFC36
:101EE0004FF4487004F0BEF903B030BDAFF300808A
:101EF0007889C9C25472F53F82110127B844034062
:101F000065732D3852C100409A9999999999654005
:101F100000408F406007002088070020380700201D
:101F20001007002000405040E8060020000000009C
:101F300030B583B00024224DCDE9004518A3D3E984
:101F40000023204801F0ECFCCDE9004516A3D3E9BD
:101F500000231D4801F0E4FCCDE9004514A3D3E9BA
:101F600000231A4801F0DCFC4FF4FA7004F07AF90F
:101F70004FF4B473009310A3D3E90023144801F085
:101F80007BFCB42300930022124B134801F074FC35
:101F90004FF4487004F066F903B030BDAFF3008031
:101FA0007889C9C25472F53F82110127B8440340B1
:101FB00065732D3852C100400000000000087640D3
:101FC00000408F406007002088070020380700206D
:101FD0001007002000805640E806002000000000A6
:101FE0002DE9F04F87B00024554DCDE900454CA3B5
:101FF000D3E90023534801F093FCCDE900454AA3FF
:10200000D3E90023504801F08BFCCDE9004548A3FB
:10201000D3E900234D4801F083FC4FF4E16004F064
:1020200021F94FF4B473009343A3D3E90023484844
:1020300001F022FCB42300930022464B464801F0F5
:102040001BFC4FF4FA7004F00DF90025434B1D60A2
:102050000BE0012224E0002A40F07181404B1B6814
:10206000012B23D0002D40F095803C4B1B68B3F52D
:10207000487F00F364813B4B00221A603A4C0122F6
:102080003A49204606F07FFA4FF4FA6004F0EAF885
:10209000204605F08DFF364B1B68002BD9D000225F
:1020A000002BD8D0324B00211960D4E72C490020F6
:1020B0000860304909783529D4D12E494978352925
:1020C000D0D12C4989783529CCD12A49C9783529EC
:1020D000C8D12849097C3829C4D12649C97B382967
:1020E000C0D12449897B3829BCD12249497B382970
:1020F000B8D12049C87A302808D03028B2D11D4B39
:102100001B7B343BDBB2012BACD818E1097B3139A6
:10211000C9B20129F1D81D46EFE700BFAFF3008037
:102120007889C9C25472F53F223265D7406E0240A9
:102130008C99388B1B1701403333333333B35440FE
:1021400000408F40600700208807002038070020EB
:102150001007002000805640E8060020500B0020A9
:10216000540B00204C0B0020201600206E0B00208A
:10217000480B00205C0B0020131D8549C85C02F150
:1021800018036B4403F8080C02F10800095C03F81B
:10219000041C0132022AEFDD04A80EF04BFE0546B6
:1021A00005A80EF047FE0446C5F1A000FEF75AF957
:1021B00065A3D3E90023FEF7BFF906460F46DFF813
:1021C000D491484601F052FB02460B463046394650
:1021D000FDF7FCFF02460B464FF4B47ACDF800A0A1
:1021E000484601F049FB642004F03CF8A4F1780073
:1021F000FEF738F956A3D3E90023FEF79DF9002234
:10220000654BFEF7C3FA54A3D3E90023FEF794F914
:1022100004460D46614E304601F028FBCDE90245EB
:1022200022462B46FDF7D0FF02460B4600245C4DAC
:10223000CDE90045304601F073FB4FF47A7004F0AD
:1022400011F8584F4FF0B408CDF800800022564BDB
:10225000384601F011FB4FF4FA7004F003F8DFF890
:102260004CB1CDE900453EA3D3E90023584601F027
:1022700057FBDDE902233CA1D1E90001FDF7A4FFF2
:1022800002460B46CDE90045304601F049FBCDE959
:10229000004537A3D3E90023454801F041FB40F254
:1022A000DC5003F0DFFFCDF800800022414B3846C0
:1022B00001F0E2FA4FF4966003F0D4FF304601F0EB
:1022C000D5FA2DA3D3E90023FDF780FF02460B4684
:1022D000CDE90045304601F023FB4FF47A7003F05E
:1022E000C1FFCDE9004526A3D3E90023584601F0FC
:1022F00017FBCDE9004524A3D3E900232C4801F0C6
:102300000FFB40F2DC5003F0ADFFCDF800A000223F
:102310000023484601F0B0FA4FF47A7003F0A2FFB0
:10232000CDF800800022244B384601F0A5FA4FF486
:102330007A7003F097FF214A13780133137007B0C6
:10234000BDE8F08FAFF30080EC51B81E85EBB13FD4
:10235000B81E85EB51B8BE3F182D4454FB210940EF
:102360000D2823D1B5D5FF3FFD0B5A8477180240C5
:102370001A271792BF150040E0F09C762F1BC43F30
:10238000182D4454FB21F93F65732D3852C100408C
:102390005C0B0020100700200080664088070020AA
:1023A00000408F40E8060020000049406007002000
:1023B000380700200000324000805640700B00209B
:1023C0002DE9F04F85B000245B4DCDE9004552A3C7
:1023D000D3E90023594801F0A3FACDE9004550A301
:1023E000D3E90023564801F09BFACDE900454EA3FE
:1023F000D3E90023534801F093FA4FF4B4730093E8
:102400004BA3D3E90023504801F036FAB4230093DC
:1024100000224E4B4E4801F02FFA4FF4FA6003F0C1
:1024200021FF4C4B00221A600CE0012225E0002A1B
:1024300040F06B81484B1B68012B24D01346002BC6
:1024400040F0A480434B1B68B3F5487F00F35D81E7
:10245000424B00221A60424C01224249204606F0BB
:1024600092F84FF4FA6003F0FDFE204605F0A0FD5F
:102470003D4B1B68002BD8D00022002BD7D03A4B05
:1024800000211960D3E734490020086037490978F2
:10249000352901D01346D2E734494978352901D08E
:1024A0001346CCE731498978352901D01346C6E770
:1024B0002E49C978352901D01346C0E72B49097C3C
:1024C000382901D01346BAE72849C97B382901D0F9
:1024D0001346B4E72549897B382901D01346AEE776
:1024E0002249497B382901D01346A8E71F49C87AF9
:1024F000302809D013463028A1D11C49097B343932
:10250000C9B201299BD800E1097B3139C9B201293F
:10251000F1D91346EFE700BFE0F09C762F1B044093
:102520002B43E0DEFDD2FD3F041DD58B347DED3F16
:102530003333333333B3544000408F4060070020BF
:102540008807002038070020100700200080564030
:10255000E8060020500B0020540B00204C0B0020FC
:10256000201600206E0B0020480B00205C0B002082
:10257000131D7949C85C02F110036B4403F8080C81
:1025800002F10800095C03F8041C0132022AEFDDA5
:1025900002A80EF04FFC054603A80EF04BFC0446C3
:1025A000C5F1A000FDF75EFF59A3D3E90023FDF7B5
:1025B000C3FF80468946694F384601F057F9024605
:1025C0000B4640464946FDF701FE02460B464FF4D6
:1025D000B479CDF80090384601F04EF9642003F04C
:1025E00041FEA4F17800FDF73DFF4BA3D3E90023A2
:1025F000FDF7A2FF00225A4BFEF7C8F848A3D3E923
:102600000023FDF799FF82468B46564E304601F077
:102610002DF952465B46FDF7D7FD02460B460024D6
:10262000514DCDE90045304601F07AF94FF47A700A
:1026300003F018FE52465B463BA1D1E90001FDF7CD
:10264000C3FD02460B46CDE90045304601F068F96E
:10265000DFF818B1CDE9004535A3D3E9002358468A
:1026600001F05EF9DFF808A1CDE9004532A3D3E916
:102670000023504601F054F940F2DC5003F0F2FD23
:102680004FF0B408CDF8008000223A4B3A4801F0F0
:10269000F3F84FF47A7003F0E5FD0022374BCDE9F3
:1026A000002327A3D3E90023304601F039F9CDE90F
:1026B000004525A3D3E90023584601F031F9CDE9BF
:1026C000004523A3D3E90023504601F029F94FF434
:1026D000E16003F0C7FDCDF80090002200233846EA
:1026E00001F0CAF840F2E24003F0BCFDCDF80080F2
:1026F0000022234B204801F0BFF840F2E24003F0F3
:10270000B1FD204A13780133137005B0BDE8F08F96
:10271000EC51B81E85EBB13FB81E85EB51B8BE3FFA
:10272000182D4454FB2109403E534FA7C47709405C
:1027300063795AFA8DCDF93F65732D3852C1F03F58
:10274000E0F09C762F1BF43FE0F09C762F1B0440BA
:1027500065732D3852C100405C0B0020100700202B
:10276000008066406007002000408F4088070020FE
:102770003807002000002E40E806002000409F405F
:10278000008056406F0B00202DE9F04F87B00024E9
:102790005D4DCDE9004554A3D3E900235B4801F02A
:1027A000BFF8CDE9004552A3D3E90023584801F012
:1027B000B7F8CDE9004550A3D3E90023554801F00F
:1027C000AFF84FF4E16003F04DFD4FF4B4730093A4
:1027D0004BA3D3E90023504801F04EF8B4230093F3
:1027E00000224E4B4E4801F047F84FF4FA7003F0C8
:1027F00039FD4C4B00221A600CE0012225E0002A32
:1028000040F08281484B1B68012B24D01346002BDB
:1028100040F0A480434B1B68B3F5487F00F37481FC
:10282000424B00221A60424C01224249204605F0E8
:10283000AAFE4FF4FA6003F015FD204605F0B8FB40
:102840003D4B1B68002BD8D00022002BD7D03A4B31
:1028500000211960D3E7344900200860374909781E
:10286000352901D01346D2E734494978352901D0BA
:102870001346CCE731498978352901D01346C6E79C
:102880002E49C978352901D01346C0E72B49097C68
:10289000382901D01346BAE72849C97B382901D025
:1028A0001346B4E72549897B382901D01346AEE7A2
:1028B0002249497B382901D01346A8E71F49C87A25
:1028C000302809D013463028A1D11C49097B34395E
:1028D000C9B201299BD817E1097B3139C9B2012955
:1028E000F1D91346EFE700BF7889C9C25472F53FAA
:1028F000223265D7406E02408C99388B1B170140FD
:10290000CDCCCCCCCC4C704000408F406007002038
:10291000880700203807002010070020008056405C
:10292000E8060020500B0020540B00204C0B002028
:10293000201600206E0B0020480B00205C0B0020AE
:10294000131D8749C85C02F118036B4403F8080C97
:1029500002F10800095C03F8041C0132022AEFDDD1
:1029600004A80EF067FA054605A80EF063FA0446BF
:10297000C5F1A000FDF776FD65A3D3E90023FDF7BF
:10298000DBFD06460F46DFF8DC91484600F06EFF9F
:1029900002460B4630463946FDF718FC02460B4608
:1029A0004FF4B47ACDF800A0484600F065FF6420EB
:1029B00003F058FCA4F17800FDF754FD56A3D3E9C9
:1029C0000023FDF7B9FD0022674BFDF7DFFE54A39E
:1029D000D3E90023FDF7B0FD04460D46634E3046B3
:1029E00000F044FFCDE9024522462B46FDF7ECFB03
:1029F00002460B4600245E4DCDE90045304600F00E
:102A00008FFF4FF47A7003F02DFC5A4F4FF0B4084B
:102A1000CDF800800022584B384600F02DFF4FF4CF
:102A2000487003F01FFCDFF854B1CDE900453EA328
:102A3000D3E90023584600F073FFDDE902233CA1EF
:102A4000D1E90001FDF7C0FB02460B46CDE9004588
:102A5000304600F065FFCDE9004537A3D3E90023F8
:102A6000474800F05DFF4FF4FA6003F0FBFBCDF840
:102A700000800022434B384600F0FEFE40F2E24068
:102A800003F0F0FB304600F0F1FE2DA3D3E9002364
:102A9000FDF79CFB02460B46CDE90045304600F0B1
:102AA0003FFF4FF47A7003F0DDFBCDE9004526A32C
:102AB000D3E90023584600F033FFCDE9004524A3B5
:102AC000D3E900232E4800F02BFF40F2E24003F050
:102AD000C9FBCDF800A020A3D3E90023484600F0AD
:102AE000CBFE40F2E24003F0BDFBCDF800800022B7
:102AF000254B384600F0C0FE40F2E24003F0B2FB46
:102B0000224A13780133137007B0BDE8F08F00BF7D
:102B1000EC51B81E85EBB13FB81E85EB51B8BE3FF6
:102B2000182D4454FB2109400D2823D1B5D5FF3F72
:102B3000FD0B5A84771802401A271792BF150040E0
:102B4000E0F09C762F1BC43F182D4454FB21F93F25
:102B500065732D3852C10040CDCCCCCCCC0C764026
:102B60005C0B0020100700200080664088070020D2
:102B700000408F40E8060020000049406007002028
:102B8000380700200000324000805640700B0020C3
:102B90002DE9F04F85B000245B4DCDE9004552A3EF
:102BA000D3E90023594800F0BBFECDE9004550A30E
:102BB000D3E90023564800F0B3FECDE900454EA30B
:102BC000D3E90023534800F0ABFE4FF4B4730093F5
:102BD0004BA3D3E90023504800F04EFEB4230093EA
:102BE00000224E4B4E4800F047FE4FF4FA6003F0CF
:102BF00039FB4C4B00221A600CE0012225E0002A30
:102C000040F06C81484B1B68012B24D01346002BED
:102C100040F0A480434B1B68B3F5487F00F35E810E
:102C2000424B00221A60424C01224249204605F0E4
:102C3000AAFC4FF4FA6003F015FB204605F0B8F942
:102C40003D4B1B68002BD8D00022002BD7D03A4B2D
:102C500000211960D3E7344900200860374909781A
:102C6000352901D01346D2E734494978352901D0B6
:102C70001346CCE731498978352901D01346C6E798
:102C80002E49C978352901D01346C0E72B49097C64
:102C9000382901D01346BAE72849C97B382901D021
:102CA0001346B4E72549897B382901D01346AEE79E
:102CB0002249497B382901D01346A8E71F49C87A21
:102CC000302809D013463028A1D11C49097B34395A
:102CD000C9B201299BD801E1097B3139C9B2012967
:102CE000F1D91346EFE700BFE0F09C762F1B0440BC
:102CF0002B43E0DEFDD2FD3F5069EB31C728EE3FAC
:102D0000CDCCCCCCCC6C704000408F406007002014
:102D10008807002038070020100700200080564058
:102D2000E8060020500B0020540B00204C0B002024
:102D3000201600206E0B0020480B00205C0B0020AA
:102D4000131D7D49C85C02F110036B4403F8080CA5
:102D500002F10800095C03F8041C0132022AEFDDCD
:102D600002A80EF067F8054603A80EF063F80446C3
:102D7000C5F1A000FDF776FB5BA3D3E90023FDF7C7
:102D8000DBFB804689466D4F384600F06FFD0246FA
:102D90000B4640464946FDF719FA02460B464FF4EA
:102DA000B479CDF80090384600F066FD642003F059
:102DB00059FAA4F17800FDF755FB4DA3D3E90023A0
:102DC000FDF7BAFB00225E4BFDF7E0FC4AA3D3E916
:102DD0000023FDF7B1FB82468B465A4E304600F089
:102DE00045FD52465B46FDF7EFF902460B460024CF
:102DF000554DCDE90045304600F092FD4FF47A7014
:102E000003F030FA52465B463DA1D1E90001FDF7DF
:102E1000DBF902460B46CDE90045304600F080FD67
:102E2000DFF828B1CDE9004537A3D3E900235846A0
:102E300000F076FDDFF818A1CDE9004534A3D3E911
:102E40000023504600F06CFD40F2DC5003F00AFA1B
:102E50004FF0B408CDF8008000223E4B3E4800F011
:102E60000BFD4FF47A7003F0FDF900223B4BCDE9E6
:102E7000002329A3D3E90023304600F051FDCDE91A
:102E8000004527A3D3E90023584600F049FDCDE9CA
:102E9000004525A3D3E90023504600F041FD40F64C
:102EA000340003F0DFF9CDF8009021A3D3E900232B
:102EB000384600F0E1FC40F2E24003F0D3F9CDF8EF
:102EC00000800022264B244800F0D6FC40F2E2406D
:102ED00003F0C8F9234A13780133137005B0BDE835
:102EE000F08F00BFAFF30080EC51B81E85EBB13F0F
:102EF000B81E85EB51B8BE3F182D4454FB21094044
:102F00009E14F9CFD4C20940AFC570A02079FA3F12
:102F1000E801187EEC7FEF3FE0F09C762F1BF43F3A
:102F2000E0F09C762F1B044065732D3852C10040A1
:102F3000CDCCCCCCCC0C76405C0B00201007002014
:102F4000008066406007002000408F408807002016
:102F50003807002000002E40E806002000409F4077
:102F6000008056406F0B00202DE9F04F85B04FF4E4
:102F7000B473009352A3D3E90023574800F07CFCBC
:102F8000B42300930022554B554800F075FC4EA722
:102F9000D7E900670024534DCDE9004532463B4652
:102FA000514800F0BDFCCDE9004532463B464F4854
:102FB00000F0B6FCCDE9004545A3D3E900234C4819
:102FC00000F0AEFC4FF4FA6003F04CF9494B0022DC
:102FD0001A600CE0012225E0002A40F06781464B90
:102FE0001B68012B24D01346002B40F09F80414BDF
:102FF0001B68B3F5487F00F35981404B00221A60EB
:103000003F4C01223F49204605F0BDFA4FF4FA60DB
:1030100003F028F9204604F0CBFF3B4B1B68002B44
:10302000D8D00022002BD7D0374B00211960D3E72E
:1030300031490020086035490978352901D0134607
:10304000D2E732494978352901D01346CCE72F49D8
:103050008978352901D01346C6E72C49C978352926
:1030600001D01346C0E72949097C382901D013460D
:10307000BAE72649C97B382901D01346B4E723496A
:10308000897B382901D01346AEE72049497B38298E
:1030900001D01346A8E71D49C87A302809D0134645
:1030A0003028A1D11949097B3439C9B201299BD8EB
:1030B000FCE0097B3139C9B20129F1D91346EFE7A8
:1030C000CDCCCCCCCC6C704065732D3852C1004057
:1030D0004073108FE5CEEA3F100700200080564075
:1030E000E806002000408F4060070020880700208D
:1030F00038070020500B0020540B00204C0B002000
:10310000201600206E0B0020480B00205C0B0020D6
:10311000131D7D49C85C02F110036B4403F8080CD1
:1031200002F10800095C03F8041C0132022AEFDDF9
:1031300002A80DF07FFE054603A80DF07BFE0446B5
:10314000C5F1A000FDF78EF95BA3D3E90023FDF7DD
:10315000F3F9804689466D4F384600F087FB0246FA
:103160000B4640464946FDF731F802460B464FF400
:10317000B479CDF80090384600F07EFB642003F06F
:1031800071F8A4F17800FDF76DF94DA3D3E90023A0
:10319000FDF7D2F900225E4BFDF7F8FA4AA3D3E916
:1031A0000023FDF7C9F982468B465A4E304600F09F
:1031B0005DFB52465B46FDF707F802460B460024CE
:1031C000554DCDE90045304600F0AAFB4FF47A702A
:1031D00003F048F852465B463DA1D1E90001FCF7F7
:1031E000F3FF02460B46CDE90045304600F098FB60
:1031F000DFF828B1CDE9004537A3D3E900235846CD
:1032000000F08EFBDFF818A1CDE9004534A3D3E927
:103210000023504600F084FB40F2DC5003F022F81B
:103220004FF0B408CDF8008000223E4B3E4800F03D
:1032300023FB40F2E24003F015F800223B4BCDE9BE
:10324000002329A3D3E90023304600F069FBCDE930
:10325000004527A3D3E90023584600F061FBCDE9E0
:10326000004525A3D3E90023504600F059FB40F662
:10327000340002F0F7FFCDF8009021A3D3E900233A
:10328000384600F0F9FA40F2E24002F0EBFFCDF8E8
:1032900000800022264B244800F0EEFA40F2E24083
:1032A00002F0E0FF234A13780133137005B0BDE844
:1032B000F08F00BFAFF30080EC51B81E85EBB13F3B
:1032C0007B14AE47E17AA43F182D4454FB210940FA
:1032D0009EAFD4151EC80540223265D7406EF23F1E
:1032E000182D4454FB21F93FE0F09C762F1BF43F4E
:1032F000E0F09C762F1B044065732D3852C10040CE
:10330000CDCCCCCCCC0C76405C0B00201007002040
:10331000008066406007002000408F408807002042
:103320003807002000002E40E806002000409F40A3
:10333000008056406F0B00202DE9F04F85B04FF410
:10334000B473009352A3D3E90023574800F094FAD2
:10335000B42300930022554B554800F08DFA4EA738
:10336000D7E900670024534DCDE9004532463B467E
:10337000514800F0D5FACDE9004532463B464F486A
:1033800000F0CEFACDE9004545A3D3E900234C482F
:1033900000F0C6FA4FF4FA6002F064FF494B0022D5
:1033A0001A600CE0012225E0002A40F06681464BBD
:1033B0001B68012B24D01346002B40F09F80414B0B
:1033C0001B68B3F5487F00F35881404B00221A6018
:1033D0003F4C01223F49204605F0D5F84FF4FA60F2
:1033E00002F040FF204604F0E3FD3B4B1B68002B3E
:1033F000D8D00022002BD7D0374B00211960D3E75B
:1034000031490020086035490978352901D0134633
:10341000D2E732494978352901D01346CCE72F4904
:103420008978352901D01346C6E72C49C978352952
:1034300001D01346C0E72949097C382901D0134639
:10344000BAE72649C97B382901D01346B4E7234996
:10345000897B382901D01346AEE72049497B3829BA
:1034600001D01346A8E71D49C87A302809D0134671
:103470003028A1D11949097B3439C9B201299BD817
:10348000FBE0097B3139C9B20129F1D91346EFE7D5
:103490003333333333B3544065732D3852C1004056
:1034A000D6225FF3E9CEEA3F1007002000805640A5
:1034B000E806002000408F406007002088070020B9
:1034C00038070020500B0020540B00204C0B00202C
:1034D000201600206E0B0020480B00205C0B002003
:1034E000131D7949C85C02F110036B4403F8080C02
:1034F00002F10800095C03F8041C0132022AEFDD26
:1035000002A80DF097FC054603A80DF093FC0446B5
:10351000C5F1A000FCF7A6FF59A3D3E90023FDF7EE
:103520000BF880468946694F384600F09FF90246FD
:103530000B4640464946FCF749FE02460B464FF40F
:10354000B479CDF80090384600F096F9642002F086
:1035500089FEA4F17800FCF785FF4BA3D3E9002393
:10356000FCF7EAFF00225A4BFDF710F948A3D3E914
:103570000023FCF7E1FF82468B46564E304600F0B2
:1035800075F952465B46FCF71FFE02460B460024C7
:10359000514DCDE90045304600F0C2F94FF47A7044
:1035A00002F060FE52465B463BA1D1E90001FCF708
:1035B0000BFE02460B46CDE90045304600F0B0F95F
:1035C000DFF818B1CDE9004535A3D3E9002358460B
:1035D00000F0A6F9DFF808A1CDE9004532A3D3E950
:1035E0000023504600F09CF940F2DC5002F03AFE15
:1035F0004FF0B408CDF8008000223A4B3A4800F072
:103600003BF940F2E24002F02DFE0022374BCDE9BB
:10361000002327A3D3E90023304600F081F9CDE948
:10362000004525A3D3E90023584600F079F9CDE9F8
:10363000004523A3D3E90023504600F071F940F67A
:10364000340002F00FFECDF800900022002338462F
:1036500000F012F940F2E24002F004FECDF80080E2
:103660000022234B204800F007F940F2E24002F02C
:10367000F9FD204A13780133137005B0BDE8F08FCF
:10368000EC51B81E85EBB13F7B14AE47E17AA43F05
:10369000182D4454FB2109409EAFD4151EC8054087
:1036A000223265D7406EF23F182D4454FB21F93F7A
:1036B000E0F09C762F1BF43FE0F09C762F1B04403B
:1036C00065732D3852C100405C0B002010070020AC
:1036D000008066406007002000408F40880700207F
:1036E0003807002000002E40E806002000409F40E0
:1036F000008056406F0B002010B5044602681D4B39
:103700009A4204D022681C4B9A4225D010BD1B4B14
:1037100001221A601A4B19781A4B1A681A488154F8
:103720001A6801321A601B68112B01DC0A2905D1C5
:10373000144B00221A60154B01221A60144A1368B8
:1037400001331360134A13680133136001220C49DB
:10375000114804F018FFD5E7104B01221A6000232E
:1037600004E00F4AD15C0F4AD1540133B3F5806FA6
:10377000F7DBCBE70014014000440040480B002079
:103780006E0B0020580B00205C0B0020540B002017
:10379000500B00204C0B002020160020740B002042
:1037A0007C0F00207C0B0020F0B58FB005460F4643
:1037B0000846FDF725FD0146C6B2FD238DF804300D
:1037C00000248DF80540F31C8DF8063001238DF898
:1037D00007302D011D438DF80850234606E003F104
:1037E00038026A4412F8342C54400133042BF6D9C1
:1037F000002302E0FA5C54400133CDB2AB42F9D36E
:103800002A4639460DF10900FDF74AFC05F13D0352
:103810000DEB030505F8344C4FF0FF33B21D01A941
:10382000024804F01AFB0FB0F0BD00BF40170020A3
:1038300008B54FF6FF710120FEF7CEF808BD30B491
:1038400000240025C0E90045C0E9024501240477B1
:10385000002404620177C0E90023DDE90223C0E906
:103860000223049B036130BC70477047D0E900011C
:1038700070470162704700002DE9F0478246144608
:103880001D460898FCF7EEFD06460F4602460B461D
:1038900020462946FCF77AFF0022104BFCF74CFE2D
:1038A00000220F4BFCF792FC8046894632463B468D
:1038B000DAE90001FCF76AFF0022084BFCF73CFE46
:1038C0000022074BFCF782FCDAF8206016B1424672
:1038D0004B46B047CAE90045BDE8F08700408F403D
:1038E00000406F4038B515461C460CF0CBF8FDF78C
:1038F000D3F803122B70207038BD9DF800C0084427
:103900000244002104E0585C024492B20131C9B281
:103910006145F8D3D0B2C043C0B270470000000088
:1039200010B588B00446DDE90A01C4E90023C4E902
:1039300002010DF112030DF11302FFF7D3FF002274
:10394000294BD4E90001FCF7F7FD23A3D3E90023B9
:10395000FCF71CFF22A3D3E90023FCF717FF04ABFD
:103960000DF11102FFF7BEFF55238DF814308DF8CD
:103970001530207C8DF8160007218DF817100122D4
:103980008DF818209DF810E08DF819E09DF811C011
:103990008DF81AC09DF812408DF81B409DF8133029
:1039A0008DF81C308DF80CE08DF80DC08DF80E40B0
:1039B0008DF80F300423009303ABFFF79EFF8DF8C3
:1039C0001D004FF0FF330A2205A9084804F045FA0C
:1039D00008B010BDAFF30080182D4454FB210940FE
:1039E000B81E85EB51B8CE3F008066408817002096
:1039F000F0B585B005460FC804AC04E90F00A5F189
:103A0000100409E0D4E90023C5E90023D4E9022326
:103A1000C5E902232546103CDDE90267D4E902230B
:103A200030463946FCF7FAFF0028EBD1DDE90023E8
:103A3000C5E90023C5E9026705B0F0BD38B50D46FC
:103A4000044605E04FF000012046FFF7D1FF103497
:103A5000AC42F7D138BD2DE9F04106460C46174679
:103A60004D1E05EBD5756D100EE006EB0414D8E97C
:103A70000023C4E90023D8E90201C4E902016B1E56
:103A800003EBD3732C465D10BC4209DD06EB051831
:103A9000DDE90823D8E90201FCF7C0FF0028E4D1E2
:103AA00006EB0416DDE90623C6E90023DDE9082359
:103AB000C6E90223BDE8F0812DE9F04389B005464F
:103AC0000F4616460C460CE005EB081105EB0414F6
:103AD000D1E90023C4E90023D1E90223C4E9022388
:103AE0004446731E03EBD373B4EB630F12DA631C0B
:103AF0004FEA430905EB431309F1FF3805EB0811C1
:103B0000D3E90223D1E90201FCF7A6FF0028DBD1AB
:103B1000C846D9E716F0010F05D1023E06EBD6766E
:103B2000B4EB660F0DD007AB049310AB0FCB8DE851
:103B30000F003A4621462846FFF78DFF09B0BDE841
:103B4000F083611C4900013905EB011005EB0414F9
:103B5000D0E90023C4E90023D0E90223C4E9022309
:103B60000C46E0E7091A102921DDF0B58BB00546B7
:103B700016460F11BC1E04EBD474641000E0013C27
:103B800005EB04130DF1180C0FCB8CE80F00337804
:103B90008DF810309CE80F008DE80F003A46214662
:103BA0002846FFF789FF002CE9D10BB0F0BD704724
:103BB00070B58AB004460D4696461E460DF1180CA7
:103BC0000FCA8CE80F00D4E90023CEE90023D4E922
:103BD0000223CEE902232D1B33788DF810309CE8A8
:103BE0000F008DE80F002A1100212046FFF764FF27
:103BF0000AB070BD2DE9F04182B0064688461746EE
:103C00008DF8043001AAFFF7ADFF444601E005F14D
:103C100010042546BC420ED2D6E90223D4E90201A3
:103C2000FCF7FCFE0028F2D001AB224641463046AC
:103C3000FFF7BEFFEBE702B0BDE8F08170B50546C7
:103C40000C46164606E0103C3346224621462846DE
:103C5000FFF7AEFF611B1029F5DC70BD30B583B0F6
:103C600004460D468DF80430DBB2FFF7C3FF01AA0E
:103C700029462046FFF7E2FF03B030BD70B5054688
:103C800000F0BAFC0026C5F8A46000220023C5E9B4
:103C90002A2300220C4BC5E92C2305F1B80C0B4C50
:103CA0000FCCACE80F000FCCACE80F0094E8030099
:103CB0008CE80300C5F8E060C5F8E460C5F8E8608A
:103CC000C5F8EC60284670BD00004E40C87501087C
:103CD00010B5044600F091FC204610BD0000000025
:103CE00010B504464FF480621149124804F0B0FC4C
:103CF000114B01221A60114B1B689342F2D11049FB
:103D0000204600F0B9FC0028ECD00C4B00221A60D1
:103D1000204600F06FFC4069FCF7B6FB02A3D3E934
:103D200000230BF083FE10BD182D4454FB211940D5
:103D30007C0F0020B0160020780B0020740B0020B0
:103D40007C0B0020D0F8A40018B108B501F07AF976
:103D500008BD704708B5FFF7C3FF08BDD0F8A40041
:103D600058B12DE9004882B0DDE904BCCDE900BCC2
:103D700001F084F902B0BDE800887047C0F8A410D3
:103D80007047C0F8E0107047C0F8E8107047C0F8FE
:103D9000E4107047C0F8EC10704710B50446006896
:103DA000A168091A08B104F06DFC204610BD4068F6
:103DB0001038704710B584B0844601914468036898
:103DC000E31A18116FF0784EAEEB23138B4210D329
:103DD0000390814210D803AB1B681844DCF8003014
:103DE000E41AB0EB241F09D3B0F1006F09D204B07C
:103DF00010BD104605F0D4F901ABEDE76FF0784047
:103E0000F5E76FF07840F2E708B5B1F1006F03D243
:103E1000080105F041F808BDB1F1805F01D305F05C
:103E200097F905F085F900002DE9F04F83B00746BA
:103E30000E4693469A46234A0121FFF7BBFFD7F867
:103E400000907D683446A6EB0906019088B10146D2
:103E500000223846FFF7D8FF80464644DBE90023BE
:103E6000C6E90023DAE90023C6E902234646CC4628
:103E700009E04FF00008F0E79CE80F0086E80F002B
:103E80000CF1100C1036A445F6D1103605E094E87C
:103E90000F0086E80F0010341036A542F7D1B9683C
:103EA000A1EB0901B9F1000F02D0484604F0EAFB8A
:103EB000C7F800807E60019B08EB0313BB6003B072
:103EC000BDE8F08FF075010838B504464568836891
:103ED0009D420ED0D1E90001C5E90001D2E90023DD
:103EE000C5E902236368103363602046FFF75FFF74
:103EF00038BD13460A462946FFF796FFF5E730B46A
:103F0000D0E90045D1E90023C0E90023C1E900451B
:103F1000D0E90245D1E90223C0E90223C1E9024503
:103F200030BC7047F8B507460E4614461D46D1E929
:103F30000223D4E90201FCF78FFDE0B1D5E90223A9
:103F4000D4E90201FCF76AFD58B9D5E90223D6E9A4
:103F50000201FCF763FD48B129463846FFF7CFFF61
:103F6000F8BD21463846FFF7CAFFF9E73146384623
:103F7000FFF7C5FFF4E7D5E90223D6E90201FCF714
:103F80004DFD58B9D5E90223D4E90201FCF746FDFD
:103F900048B129463846FFF7B2FFE1E731463846D7
:103FA000FFF7ADFFDCE721463846FFF7A8FFD7E76C
:103FB00070B505460C46164600E01035D6E90223DA
:103FC000D5E90201FCF72AFD0028F6D1103C00E0FB
:103FD000103CD4E90223D6E90201FCF71FFD0028BA
:103FE000F6D1A54205D221462846FFF788FF1035B5
:103FF000E4E7284670BDF0B583B004460D4616468A
:104000000B1AD90F01EB2311491000F110078DF89D
:104010000020A5F1100300EB01123946FFF782FFE3
:104020003346224629463846FFF7C2FF03B0F0BDAB
:104030002DE9F04106460C4615461F46A11BB1F579
:10404000807F14DD6DB1013D3A4621463046FFF7D1
:10405000D2FF80463B462A462146FFF7E9FF444609
:10406000ECE73B46224621463046FFF7F7FDBDE828
:10407000F081704738B505460C46FFF7FAFF201A65
:10408000284438BD03461046CB1A1B11002B0DDD0A
:1040900030B471E9044560E90445D1E90245C0E95D
:1040A0000245013B002BF4DC30BC7047704770B513
:1040B0000E461446FFF7DDFF05463046FFF7D9FFF1
:1040C00006462046FFF7D5FF024631462846FFF751
:1040D000D9FF01462046FFF7CDFF70BD08B5FFF7B9
:1040E000E6FF08BD884231D02DE9F04385B0064691
:1040F0000F4600F1100406E04FF000012046FFF7E4
:1041000077FC05F110042546A7421CD0D4E90289AA
:10411000D6E9022340464946FCF780FC0028EBD054
:1041200095E80F000DF1100C0CE90F0005F11002DD
:1041300021463046FFF7D2FFDDE90023C6E9002320
:10414000C6E90289DDE705B0BDE8F083704770B5C8
:104150000C4615460B1AB3F5807F0ADD00F5807614
:104160003146FFF7BFFF2A4621463046FFF766FC7F
:1041700070BDFFF7B7FFFBE7814214D070B504466E
:104180000D461646091A0911B1FA81F1C1F11F0154
:1041900013464A002946FFF74BFF32462946204680
:1041A000FFF7D5FF70BD70472DE9F04FBDB08046D9
:1041B000104619466AA3D3E90023FCF707F868A55F
:1041C000D5E9004522462B460BF030FC22462B4613
:1041D000FBF7FCFF06460F46D8E93223CDE9022360
:1041E000D8E93023CDE90023D8E92E23022110A8F5
:1041F00001F05BF8D8E93623CDE90023D8E9342370
:1042000010A92EA801F091F8D8E92C01024601F17D
:104210000043CDE9000110A932A801F0A2F832460E
:104220003B4610A801F079F87FE004460D464FF0B8
:104230000009514BC3F80090CDE9064548A3D3E9E6
:104240000023FBF7C3FFCDE9080147A3D3E900230F
:1042500020462946FBF7BAFFCDE90A01CDF8349094
:10426000CDF83890CDF83C9032463B462046294662
:10427000FBF7AAFF369021F00043379336AA06A930
:104280000DA8FFF721FE32463B46DDE90801FBF7AA
:104290009BFF389021F00043399338AA08A90DA854
:1042A000FFF712FE32463B46DDE90A01FBF78CFFC1
:1042B0003A9021F000433B933AAA0AA90DA8FFF7D0
:1042C00003FE4FF000020E990D98FFF755FF0D9B6E
:1042D000D3E9004532463B4620462946FBF774FFAA
:1042E00021F0004B22A3D3E900235946FCF796FBAB
:1042F000F8B922462B4610A801F00AF810A801F0E0
:104300001DF910A801F00EF8049001F10043059387
:1043100010A801F007F8CDE90001DDE904234046CB
:10432000FFF71CFD0DA8FFF738FD4046FFF7D8FC4E
:104330007BE70DA8FFF731FD4046FFF703FD10A80E
:1043400000F0D3FF3DB0BDE8F08F0DA8FFF725FDCD
:1043500010A800F0CAFF04F097F9F9E7AFF3008066
:10436000182D4454FB211940182D4454FB21294099
:10437000FA7E6ABC7493683F740B00200000000052
:1043800010B504464FF480620F49104804F060F9FC
:104390000F4B01221A600F4B1B68012BFBD10D4BF9
:1043A00000221A602046FFF79BFC05A3D3E90023F7
:1043B000FBF70AFF02460B462046FFF7F5FE10BD4D
:1043C000182D4454FB21F93F7C0F0020B01600202B
:1043D000780B0020740B002010B504464FF4806267
:1043E0000F49104804F034F90F4B01221A600F4BAB
:1043F0001B68012BFBD10D4B00221A602046FFF7F2
:104400006FFC05A3D3E90023FBF7E0FE02460B4651
:104410002046FFF7C9FE10BD5FE768211D15F93F73
:104420007C0F0020B0160020780B0020740B0020B9
:1044300000B583B000210191094B1A6B42F40012C0
:104440001A631B6B03F400130193019B0A461020AF
:1044500001F070FF102001F07DFF03B05DF804FB58
:10446000003802402DE9F04F8DB0002407940894E5
:1044700009940A940B940094454B1A6B42F0100275
:104480001A631A6B02F010020092009A01941A6BE0
:1044900042F080021A631A6B02F080020192019AC4
:1044A00002941A6B42F004021A631A6B02F00402BF
:1044B0000292029A03941A6B42F001021A631A6B79
:1044C00002F001020392039A04941A6B42F0020272
:1044D0001A631A6B02F002020492049A05941A6B92
:1044E00042F008021A631A6B02F008020592059A5C
:1044F00006941A6B42F040021A631B6B03F04003F0
:104500000693069BDFF88CB022463621584602F00F
:1045100097FADFF884A022463021504602F090FA44
:10452000DFF8788022463621404602F089FA1C4F97
:104530002246C021384602F083FA4FF03609CDF802
:104540001C9001260896022509950A9407A9584649
:1045500002F07CF930230793089609950A9407A97D
:10456000504602F073F9CDF81C90089609950A940C
:1045700007A9404602F06AF9C023079308960995F7
:104580000A9407A9384602F061F90DB0BDE8F08F32
:1045900000380240000802400000024000040240CF
:1045A0000018024084460023184605E01CF803204A
:1045B0005040034A105C01339942F7DC704700BF5A
:1045C0000C78010884460023184699420FDD10B488
:1045D0001CF8032082EA1022054C34F8122082EAEB
:1045E000002080B201339942F2DC10BC7047704762
:1045F0000C760108343070477047704710B50B4691
:104600001146402B04D0412B17D0422B2FD010BD88
:10461000134630321C68D3F804E0D3F808C0D968D8
:104620000460C0F804E0C0F808C0C1601033103066
:104630009342EFD11B680360E9E713463430203220
:10464000D3F800E0D3F804C09C68D968C0F800E053
:10465000C0F804C08460C160103310309342EFD1C1
:1046600019685A689B68016042608360CFE7442202
:104670006030FCF715FDCAE72DE9F84306460D4604
:10468000002400E00134B4F57F7F17DA04212819F3
:10469000FFF788FF2B5DFC2BF4D12B191B7983428C
:1046A000F0D1012363B904212846FFF77BFF2B7863
:1046B000FC2B0CD000242046BDE8F8830023F1E752
:1046C000C4F5806229192846FCF7EAFCEBE72B7950
:1046D000834201D00024EEE795F80190AF786B7922
:1046E000AC7944EA032405F1070839464046FFF750
:1046F00069FF844209D0002407F10801C7F57E72E2
:1047000029442846FCF7CCFCD5E73B4642464946BF
:104710003046FFF773FF0124EEE7000010B50446B2
:104720000268094B9A4204D02268084B9A4203D08F
:1047300010BDFDF71FFBF7E7054B1B680022DA638E
:104740005A639A631A64F3E70014004000100040B3
:104750007815002072B6FEE700B595B03022002132
:1047600008A80DF0EDFD0023039304930593069331
:10477000079301931F4A116C41F080511164126C30
:1047800002F080520192019A02931B4A116841F48F
:1047900080411160126802F480420292029A022261
:1047A000089201210B9110210C910E920F93082376
:1047B0001093A823119312920423139308A802F0D4
:1047C00045F998B90F23039302230493002305931B
:1047D0004FF4A05306934FF480530793052103A889
:1047E00002F084FB20B915B05DF804FBFFF7B2FFBF
:1047F000FFF7B0FF003802400070004000000000EA
:1048000080B501F003FDFFF7A7FFFFF72BFEFFF7D1
:104810000FFE01F0D7F900F085FF00F051FF00F026
:10482000B3FF01F033F801F009F801F0C9FA01F023
:10483000E1FA01F0F9FA01F055FA01F0A7FA01F0F6
:1048400027FB01F00BFB00F0D1FF41F2883001F0B3
:1048500009FDC14B1A68D36823F02003D360BF4C15
:104860000021204603F036F80421204603F032F8F8
:104870000821204603F02EF80C21204603F02AF8E8
:10488000B74C0021204603F025F80421204603F010
:1048900021F80421B34803F09FF80421B24803F043
:1048A0009BF80421B14803F097F80421B04803F0C5
:1048B00093F8B04802F0B6FCFDF75EF9FDF7CCFACC
:1048C0004FF4FA7001F0CEFCAB490020FEF76CFF0C
:1048D00041F2941001F0C6FC0024A84D0022A84B20
:1048E00020462946FDF78CFAFDF7CAFAFDF768FD68
:1048F000FDF7C6FAFDF748FFFDF7C2FA0026A14F03
:1049000032463B4620462946FDF77AFAFDF7B8FACB
:10491000FDF766FBFDF7B4FAFEF73AF9FDF7B0FADA
:1049200032463B4620462946FDF76AFAFDF7A8FACB
:10493000FDF746FDFDF7A4FAFDF726FFFDF7F8FAAF
:104940004FF00008DFF8409242464B462046294689
:10495000FDF756FA0020FDF773FA79A3D3E9002397
:1049600020462946FDF74CFA0020FDF769FA00229F
:10497000864B20462946FDF743FAFDF781FAFDF7FD
:104980001FFDFDF77DFAFDF7FFFEFDF779FA3246D0
:104990003B4620462946FDF733FAFDF771FAFDF74D
:1049A0001FFBFDF76DFAFEF7F3F8FDF769FA3246E3
:1049B0003B4620462946FDF723FAFDF761FAFDF74D
:1049C000FFFCFDF75DFAFDF7DFFEFDF7B1FA4246A9
:1049D0004B4620462946FDF713FA0120FDF730FA31
:1049E00059A3D3E9002320462946FDF709FA0120FF
:1049F000FDF726FA0022664B20462946FDF700FA0D
:104A0000FDF73EFAFEF7B0FAFDF73AFAFEF794FC2E
:104A1000FDF736FA22462B4620462946FDF7F0F9E7
:104A2000FEF7A2FAFDF72CFAFEF786FCFDF728FA4E
:104A300022462B4620462946FDF7E2F9FEF794FA76
:104A4000FDF71EFAFEF778FCFDF71AFA22462B4610
:104A500020462946FDF7D4F9FEF786FAFDF710FA4D
:104A6000FEF76AFCFDF70CFA22462B462046294643
:104A7000FDF7C6F9FEF778FAFDF702FAFEF75CFCDF
:104A8000FDF7FEF9FDF754FA0022424B2046294675
:104A9000FDF7B6F90020FDF7D3F92DA3D3E90023E4
:104AA00020462946FDF7ACF90020FDF7C9F90022A0
:104AB000394B20462946FDF7A3F9FEF755FAFDF7D5
:104AC000DFF9FEF739FCFDF7DBF922462B462046DD
:104AD0002946FDF795F9FEF747FAFDF7D1F9FEF7FC
:104AE0002BFCFDF7CDF922462B4620462946FDF743
:104AF00087F9FEF739FAFDF7C3F9FEF71DFCFDF75C
:104B0000BFF922462B4620462946FDF779F9FEF7E4
:104B10002BFAFDF7B5F9FEF70FFCFDF7B1F92246C8
:104B20002B4620462946FDF76BF9FEF71DFAFDF7E7
:104B3000A7F9FEF701FCFDF7A3F9FEE7AFF300804C
:104B40000000000000C058400000000000605F400E
:104B50000000000000605A40B016002078150020C8
:104B60008013002030150020E8140020A01400203D
:104B7000C8130020101400200C79010800004440E4
:104B8000000048400000594000004D400000364001
:104B90000000464000805440008046400000000075
:104BA00030B40022026042608260C26000240025AE
:104BB000C0E90445C0E90645C0E90845C0E90A4521
:104BC000C0E90C45C0E90E45C0E9104510A5D5E97E
:104BD0000045C0E91245012280F850200EA5D5E914
:104BE0000045C0E916450EA5D5E90045C0E91845C0
:104BF0000DA5D5E90045C0E91A4500240C4DC0E9D2
:104C00001C4500240B4DC0E91E4530BC704700BF59
:104C10000000000000E06F405D8AABCABE2BB23FCF
:104C20007B14AE47E17A843FF168E388B5F8243F0E
:104C3000000024C0000024407047016070474160BC
:104C4000704781607047C160704700220023C0E94F
:104C50000423C0E90623C0E90823C0E90A237047FA
:104C600010B50446C06818B1D4E90A2300F0ACFAC4
:104C7000206818B1D4E9042300F0A6FA606818B1DE
:104C8000D4E9062300F0A0FAA06818B1D4E90823FB
:104C900000F09AFA10BD00002DE9F047ADF5247D33
:104CA000824690469946DDE9AC67D0E91A23CDE902
:104CB0000223D0E91823CDE90023D0E916230221ED
:104CC00066A800F0F2FADAE91A23CDE90223DAE95C
:104CD0001823CDE90023DAE91623022148A800F0C1
:104CE000E4FADAE91A23CDE90223DAE91823CDE957
:104CF0000023DAE9162302212AA800F0D6FADAE91D
:104D00001A23CDE90223DAE91823CDE90023DAE9F1
:104D1000162302210CA800F0C8FA00220023404606
:104D20004946FBF77BFE50B9DAE91E23CDE90023A3
:104D3000DAE91C2366A984A800F0F7FA03E009F178
:104D400000439946F0E7DAE91E23CDE90023DAE9CA
:104D50001C2348A988A800F0E8FADAE91E23CDE967
:104D60000023DAE91C232AA98CA800F0DEFADAE98C
:104D70001E23CDE90023DAE91C230CA990A800F03A
:104D8000D4FA00220023CDE90623CDF8188009F1DA
:104D900000430793CDE90089DDE9062366A994A8BD
:104DA00000F0DFFACDE90089DDE9062348A998A8DB
:104DB00000F0D7FACDE90089DDE906232AA99CA8ED
:104DC00000F0CFFACDE90089DDE906230CA9A0A8FF
:104DD00000F0C7FADAF80C0000F017FADAF804006D
:104DE00000F013FADAF8080000F00FFADAF8000021
:104DF00000F00BFA0021DAF8000000F0E1F90021E0
:104E0000DAF8080000F0DCF90121DAF8040000F01B
:104E1000D7F90121DAF80C0000F0D2F932463B460E
:104E200066A800F07AFA32463B4648A800F075FAC8
:104E300032463B462AA800F070FA32463B460CA8A0
:104E400000F06BFA7CA3D3E9002330463946FBF728
:104E500073FBFBF721FE8046C6E0FBF703FB3246FF
:104E60003B46FBF7B1F921F000450022744B29467F
:104E7000FBF7D4FD38B9B8F1000F46DDDAF80C00C5
:104E800000F0C1F948E0DAF8080000F0BCF9FBF7DF
:104E9000E9FA32463B46FBF797F9049021F00043CC
:104EA00005930022664BDDE90401FBF7B7FD0028FE
:104EB000E1D0DAF8040000F0A6F9FBF7D3FA3246A5
:104EC0003B46FBF781F9089021F00043099300224B
:104ED0005B4BDDE90801FBF7A1FD0028CBD0DAF838
:104EE0000C0000F090F9FBF7BDFA32463B46FBF7A9
:104EF0006BF90A9021F000430B930022504BDDE93F
:104F00000A01FBF78BFD0028B5D05046FFF79DFE48
:104F10005046FFF7A5FE6CE0FBF7A4FA02460B46ED
:104F200066A800F0F5F966A800F008FBDAF80800BA
:104F300000F069F9FBF796FA02460B462AA800F042
:104F4000E7F92AA800F0FAFADAF8040000F05BF9B1
:104F5000FBF788FA02460B4648A800F0D9F948A8A2
:104F600000F0ECFADAF8000000F04DF9FBF77AFAFD
:104F700002460B460CA800F0CBF90CA800F0DEFAB4
:104F80005046FFF762FE66A800F0CCF902460B46D9
:104F9000DAE90A01FBF71AF9CAE90A012AA800F0BE
:104FA000C1F902460B46DAE90801FBF70FF9CAE935
:104FB000080148A800F0B6F902460B46DAE90601F6
:104FC000FBF704F9CAE906010CA800F0ABF90246A8
:104FD0000B46DAE90401FBF7F9F8CAE90401504687
:104FE000FFF73EFE08F1FF38DAF8000000F00BF999
:104FF00033E70CA800F079F92AA800F076F948A860
:1050000000F073F966A800F070F90DF5247DBDE895
:10501000F0870CA800F069F92AA800F066F948A802
:1050200000F063F966A800F060F903F02DFBF3E7E8
:10503000F5E7F7E7AFF30080CDCCCCCCCCCCE43FA8
:105040000000144010B50446FFF7FFFD2046FFF7AF
:1050500007FE206810B1002100F0B2F8A06810B17E
:10506000002100F0ADF8606810B1012100F0A8F84F
:10507000E06810B1012100F0A3F810BD2DE9D04384
:10508000044616461F46DDE9068900220023304605
:105090003946FBF7C3FC98B9002200234046494635
:1050A000FBF7BCFC68BBC4E90467C4E90867C4E952
:1050B0000689C4E90A892046FFF7D2FDBDE8D083FE
:1050C0000022002340464946FBF7C6FC0028E3D0F7
:1050D00007F100431F46206810B1012100F070F86D
:1050E000A06810B1012100F06BF8E06810B1012157
:1050F00000F066F860680028D5D0012100F060F863
:10510000D1E70022002330463946FBF7A5FC0028F2
:10511000C9D009F100439946206810B1002100F080
:105120004FF8A06810B1002100F04AF8E06810B113
:10513000002100F045F860680028B4D0002100F09C
:105140003FF8B0E738B5044600230370436083603E
:1051500000F11005284600F093F80121284600F0E0
:10516000C5F804E0284600F0C0F803F08DFA2046A8
:1051700038BD10B50446103000F0B7F8204610BD19
:1051800010B500F11004204600F0B3F8DDE9022369
:10519000204600F0B3F8DDE90423204600F0B3F820
:1051A00010BD2DE9004886B0DDE908BCCDE900BCA2
:1051B00000F1100102A800F0D4F806B0BDE80088A4
:1051C000017070470078704738B5017811B103F16C
:1051D00000452B46103000F0A0F838BD81607047C4
:1051E00038B504460D460846FBF73CF902460B4627
:1051F00004F1100000F08CF8237803B16D42606870
:105200002844606038BD40687047034600205860FD
:10521000704738B5044600F11005284600F08EF9B5
:10522000A4681CB1284600F07DF8A04738BD2DE9E0
:10523000F84316461F46089BD3E90089D3E9024587
:1052400022462B4640464946FBF7DEFB90B93246E4
:105250003B4640464946FBF7FFFB08B9B046B94616
:1052600042464B4620462946FBF7D8FB20B9444628
:105270004D4601E034463D4620462946BDE8F883C8
:1052800030B40122026000240025C0E90245C0E9D3
:105290000445C0E90645C0E91645C0E91845C0E91E
:1052A0001A45C0E91C4530BC704730B40124046085
:1052B00000240025C0E90245C0E90445C0E90645CF
:1052C000C0E91645C0E91845C0E91A45C0E91C45C2
:1052D0000160C0E90223DDE90223C0E90423DDE91E
:1052E0000423C0E9062330BC7047704701600846BC
:1052F0007047C0E90223104619467047C0E90423ED
:10530000104619467047C0E90623104619467047F3
:10531000C0E90823104619467047C0E90A23104621
:1053200019467047D0E91401704730B484B0844600
:10533000DDE90645CDE90023CDE90245C1E91623A3
:10534000C1E9184558310FC98CE80F00604604B018
:1053500030BC7047844658310FC98CE80F00604656
:10536000704730B484B08446DDE90645CDE90023BA
:10537000CDE90245C1E91A23C1E91C4568310FC9CD
:105380008CE80F00604604B030BC7047844668313A
:105390000FC98CE80F00604670472DE9F04786B0D2
:1053A0008246D0E91023C0E91223D0E90C23C0E9DA
:1053B0001023D0E90A01DAE90823FAF705FFCAE960
:1053C0000C01DAE90245DAE90C01DAE91023FAF70F
:1053D000FBFE02460B4620462946FBF7ADF8044685
:1053E0000D46DAE90C23DAE90401FBF7A5F80246D9
:1053F0000B4620462946FAF7E9FE04460D46DAE94F
:105400000667DAE90C89DAE9100102460B46FAF779
:10541000DDFE02460B4640464946FAF7D5FEDAE97C
:105420001223FAF7D3FE02460B4630463946FBF705
:1054300083F802460B4620462946FAF7C7FE024685
:105440000B46DAE91401FAF7C1FECAE91401DAE9F8
:10545000146702AC51462046FFF798FF009432468D
:105460003B465046FFF7E3FECAE9140106B0BDE82B
:10547000F0872DE9D0438AB00446D0E90C23C0E977
:105480001023D0E90A01D4E90823FAF79DFEC4E904
:105490000C01D4E90C23D4E90E01FAF797FEC4E914
:1054A0000E01D4E90E8902AE21463046FFF752FFC5
:1054B000009642464B462046FFF7B9FEC4E90E016E
:1054C000D4E90C23D4E90201FBF736F806460F466F
:1054D000D4E90E23D4E90401FBF72EF802460B466B
:1054E00030463946FAF772FE06460F46D4E9068979
:1054F000D4E90C01D4E91023FAF766FE02460B4604
:1055000040464946FBF718F802460B4630463946F6
:10551000FAF75CFEC4E91401D4E9148906AE214609
:105520003046FFF733FF009642464B462046FFF7D2
:105530007EFEC4E914010AB0BDE8D08310B504466C
:105540000368012B05D0022B06D02046FFF7EAFEA8
:1055500010BDFFF722FFF8E7FFF78BFFF5E700002C
:1055600082B0002100910B4B5A6C42F480425A6485
:105570005A6C02F480420092009A01911A6C42F037
:1055800080521A641B6C03F080530193019B02B09C
:10559000704700BF00380240FEE7FEE7FEE7FEE787
:1055A000FEE770477047704708B500F049FE08BD38
:1055B00008B5024801F05CF808BD00BFC015002026
:1055C00008B5024802F026FE08BD00BFB016002054
:1055D00008B5024801F06FFE08BD00BF5814002056
:1055E00008B5024801F067FE08BD00BF1014002096
:1055F00008B5024802F00EFE08BD00BF20160020CC
:105600000120704708B50CF0D9FF162303604FF056
:10561000FF3008BD08B54FF0FF31FFF7F3FFFEE79D
:1056200070B50C461646002506E0AFF30080214613
:1056300001F8010B01350C46B542F6DB304670BD72
:1056400070B50C461646002504E014F8010BAFF3C4
:1056500000800135B542F8DB304670BD4FF0FF30B9
:1056600070474FF400534B60002070470120704793
:105670000020704710B503460C4A0D490D480068DC
:1056800040B10C4800680344521A934206D8094AB4
:10569000136010BD0748084C0460F2E70CF08EFF61
:1056A0000C2303604FF0FF30F3E700BF000002203F
:1056B000000400007C130020201B00207047000025
:1056C00000B58DB02422002103A80CF039FE002380
:1056D0000193029312484FF080420260436083605E
:1056E0004FF0FF32C2600361836103230393012300
:1056F0000593099303A901F051FF50B900230193C9
:10570000029301A9064802F0CDF928B90DB05DF861
:1057100004FBFFF71FF8F1E7FFF71CF8F6E700BFFF
:105720003015002000B58DB02422002103A80CF014
:1057300007FE0023019302931148124A026043605E
:1057400083604FF6FF72C26003618361032303939A
:1057500001230593099303A901F020FF50B9002309
:105760000193029301A9064802F09CF928B90DB0F3
:105770005DF804FBFEF7EEFFF1E7FEF7EBFFF6E75F
:10578000E81400200004004000B58DB02422002160
:1057900003A80CF0D5FD0023019302931148124A8F
:1057A0000260436083604FF6FF72C26003618361F1
:1057B0000323039301230593099303A901F0EEFE4C
:1057C00050B900230193029301A9064802F06AF937
:1057D00028B90DB05DF804FBFEF7BCFFF1E7FEF75A
:1057E000B9FFF6E7A01400200008004000B583B020
:1057F0000023009301930F480F4A026040F63302E2
:10580000426083604FF6FF72C260836101F06EFEFA
:1058100050B90023009301936946064802F042F90B
:1058200028B903B05DF804FBFEF794FFF1E7FEF73B
:1058300091FFF6E7581400200010004000B583B037
:105840000023009301930F480F4A026053224260E5
:10585000836040F2E732C260836101F047FE50B9D5
:105860000023009301936946064802F01BF928B90A
:1058700003B05DF804FBFEF76DFFF1E7FEF76AFF8A
:10588000F6E700BF101400200014004000B58DB0F2
:105890002422002103A80CF053FD0023019302935E
:1058A0001248134A0260436083604FF6FF72C26081
:1058B00003614361836103230393012305930993E8
:1058C00003A901F06BFE50B900230193029301A9D3
:1058D000064802F0E7F828B90DB05DF804FBFEF7C2
:1058E00039FFF1E7FEF736FFF6E700BFC8130020E7
:1058F0000004014000B585B00368284A93420BD0EC
:10590000274A934215D0274A934226D0264A9342EB
:1059100037D005B05DF804FB00230093234B5A6C8D
:1059200042F001025A645B6C03F001030093009B98
:10593000EFE7002101911D4B1A6C42F010021A642E
:105940001B6C03F010030193019B0A46362000F004
:10595000F1FC362000F0FEFCDBE700210291134B46
:105960001A6C42F020021A641B6C03F020030293AD
:10597000029B0A46372000F0DDFC372000F0EAFCED
:10598000C7E700230393094B5A6C42F480325A64F0
:105990005B6C03F480330393039BBAE70000014080
:1059A0000010004000140040004001400038024058
:1059B00070B58EB0002309930A930B930C930D934B
:1059C0000368B3F1804F0AD0514A93423ED0514A06
:1059D00093425BD0504A934279D00EB070BD002400
:1059E000009403F50E331A6C42F001021A641A6C2B
:1059F00002F001020092009A01941A6B42F0010237
:105A00001A631A6B02F001020192019A02941A6B56
:105A100042F002021A631B6B03F002030293029B23
:105A20004FF40043099302260A9601250D9509A912
:105A30003A4800F00BFF082309930A960B940C9444
:105A40000D9509A9364800F001FFC6E70021039132
:105A5000344B1A6C42F002021A641A6C02F0020211
:105A60000392039A04911A6B42F001021A631B6BB2
:105A700003F001030493049BC023099302230A93B8
:105A80000D9309A9254800F0E1FEA6E70021059144
:105A9000244B1A6C42F004021A641A6C02F00402DD
:105AA0000592059A06911A6B42F008021A631B6B65
:105AB00003F008030693069B4FF440530993022317
:105AC0000A930D9309A9184800F0C0FE85E700214C
:105AD0000791144B5A6C42F002025A645A6C02F05D
:105AE00002020792079A08911A6B42F004021A63A5
:105AF0001B6B03F004030893089BC0230993022344
:105B00000A9303230D9309A9084800F09FFE64E758
