:020000040800F2
:1000000000000220CD4B0008894000088B4000080A
:100010008D4000088F40000891400008000000005B
:1000200000000000000000000000000093400008F5
:100030009540000800000000974000089940000823
:100040001D4C00081D4C00081D4C00081D4C0008EC
:100050001D4C00081D4C00081D4C00081D4C0008DC
:100060001D4C00081D4C00081D4C00081D4C0008CC
:100070001D4C00081D4C00081D4C00081D4C0008BC
:10008000A14000081D4C00081D4C00081D4C000834
:100090001D4C00081D4C00081D4C00081D4C00089C
:1000A0001D4C00081D4C00081D4C00081D4C00088C
:1000B0001D4C00081D4C00081D4C00081D4C00087C
:1000C0001D4C00081D4C00081D4C00081D4C00086C
:1000D0001D4C00081D4C0008B14000081D4C0008D4
:1000E0001D4C00081D4C00081D4C00081D4C00084C
:1000F0001D4C00081D4C00081D4C00081D4C00083C
:100100001D4C00081D4C00081D4C00081D4C00082B
:100110001D4C00081D4C00081D4C0008C140000883
:100120001D4C00081D4C00081D4C00081D4C00080B
:100130001D4C00081D4C00081D4C00081D4C0008FB
:100140001D4C00081D4C00081D4C00081D4C0008EB
:100150001D4C00081D4C00081D4C0008D140000833
:100160001D4C00081D4C00081D4C00081D4C0008CB
:100170001D4C00081D4C00081D4C0008000000002C
:080180001D4C00081D4C000895
:1001C00081F0004102E000BF83F0004330B54FEA08
:1001D00041044FEA430594EA050F08BF90EA020F75
:1001E0001FBF54EA000C55EA020C7FEA645C7FEA08
:1001F000655C00F0E2804FEA5454D4EB5555B8BF2B
:100200006D420CDD2C4480EA020281EA030382EA9B
:10021000000083EA010180EA020281EA0303362D2D
:1002200088BF30BD11F0004F4FEA01314FF4801C00
:100230004CEA113102D0404261EB410113F0004F12
:100240004FEA03334CEA133302D0524263EB4303C9
:1002500094EA050F00F0A780A4F10104D5F1200E67
:100260000DDB02FA0EFC22FA05F2801841F10001C2
:1002700003FA0EF2801843FA05F359410EE0A5F196
:1002800020050EF1200E012A03FA0EFC28BF4CF0C7
:10029000020C43FA05F3C01851EBE37101F000457D
:1002A00007D54FF0000EDCF1000C7EEB00006EEB8A
:1002B0000101B1F5801F1BD3B1F5001F0CD3490814
:1002C0005FEA30004FEA3C0C04F101044FEA44526B
:1002D00012F5800F80F09A80BCF1004F08BF5FEAF2
:1002E000500C50F1000041EB045141EA050130BDD2
:1002F0005FEA4C0C404141EB0101013C28BFB1F5E4
:10030000801FE9D291F0000F04BF01460020B1FA2E
:1003100081F308BF2033A3F10B03B3F120020CDA01
:100320000C3208DD02F1140CC2F10C0201FA0CF0DF
:1003300021FA02F10CE002F11402D8BFC2F1200C44
:1003400001FA02F120FA0CFCDCBF41EA0C019040FA
:10035000E41AA2BF01EB0451294330BD6FEA040443
:100360001F3C1CDA0C340EDC04F11404C4F120022E
:1003700020FA04F001FA02F340EA030021FA04F340
:1003800045EA030130BDC4F10C04C4F1200220FA97
:1003900002F001FA04F340EA0300294630BD21FAD5
:1003A00004F0294630BD94F0000F83F4801306BF9B
:1003B00081F480110134013D4EE77FEA645C18BF8F
:1003C0007FEA655C29D094EA050F08BF90EA020F26
:1003D00005D054EA000C04BF1946104630BD91EA1E
:1003E000030F1EBF0021002030BD5FEA545C05D121
:1003F0004000494128BF41F0004130BD14F5800460
:100400003CBF01F5801130BD01F0004545F0FE41D3
:1004100041F470014FF0000030BD7FEA645C1ABF08
:10042000194610467FEA655C1CBF0B46024650EA3F
:10043000013406BF52EA033591EA030F41F400216B
:1004400030BD00BF90F0000F04BF0021704730B5F1
:100450004FF4806404F132044FF000054FF00001C6
:1004600050E700BF90F0000F04BF0021704730B587
:100470004FF4806404F1320410F0004548BF40425C
:100480004FF000013EE700BF42004FEAE2014FEAB1
:1004900031014FEA02701FBF12F07F4393F07F4F8C
:1004A00081F06051704732F07F4208BF704793F08F
:1004B0007F4F04BF41F40021704730B54FF46074A2
:1004C00001F0004521F000411CE700BF50EA0102A5
:1004D00008BF704730B54FF000050AE050EA01024E
:1004E00008BF704730B511F0004502D5404261EBBE
:1004F00041014FF4806404F132045FEA915C3FF4FF
:10050000D8AE4FF003025FEADC0C18BF03325FEA9B
:10051000DC0C18BF033202EBDC02C2F1200300FA4C
:1005200003FC20FA02F001FA03FE40EA0E0021FA71
:1005300002F11444BDE600BF70B54FF0FF0C4CF45F
:10054000E06C1CEA11541DBF1CEA135594EA0C0F11
:1005500095EA0C0F00F0DEF82C4481EA030621EA4C
:100560004C5123EA4C5350EA013518BF52EA033587
:1005700041F4801143F4801338D0A0FB02CE4FF039
:100580000005E1FB02E506F00042E0FB03E54FF069
:100590000006E1FB03569CF0000F18BF4EF0010E61
:1005A000A4F1FF04B6F5007F64F5407404D25FEA5D
:1005B0004E0E6D4146EB060642EAC62141EA555110
:1005C0004FEAC52040EA5E504FEACE2EB4F1FD0C52
:1005D00088BFBCF5E06F1ED8BEF1004F08BF5FEAD0
:1005E000500E50F1000041EB045170BD06F0004682
:1005F00046EA010140EA020081EA0301B4EB5C042F
:10060000C2BFD4EB0C0541EA045170BD41F4801126
:100610004FF0000E013C00F3AB8014F1360FDEBF4B
:10062000002001F0004170BDC4F10004203C35DA27
:100630000C341BDC04F11404C4F1200500FA05F3AA
:1006400020FA04F001FA05F240EA020001F000424B
:1006500021F0004110EBD37021FA04F642EB0601C1
:100660005EEA430E08BF20EAD37070BDC4F10C04EB
:10067000C4F1200500FA04F320FA05F001FA04F2AF
:1006800040EA020001F0004110EBD37041F100019B
:100690005EEA430E08BF20EAD37070BDC4F12005A6
:1006A00000FA05F24EEA020E20FA04F301FA05F20E
:1006B00043EA020321FA04F001F0004121FA04F2B6
:1006C00020EA020000EBD3705EEA430E08BF20EA86
:1006D000D37070BD94F0000F0FD101F000464000C0
:1006E00041EB010111F4801F08BF013CF7D041EA42
:1006F000060195F0000F18BF704703F00046520046
:1007000043EB030313F4801F08BF013DF7D043EA16
:100710000603704794EA0C0F0CEA135518BF95EACC
:100720000C0F0CD050EA410618BF52EA4306D1D153
:1007300081EA030101F000414FF0000070BD50EA72
:10074000410606BF1046194652EA430619D094EAFC
:100750000C0F02D150EA013613D195EA0C0F05D1E6
:1007600052EA03361CBF104619460AD181EA03013A
:1007700001F0004141F0FE4141F470014FF00000F2
:1007800070BD41F0FE4141F4780170BD70B54FF08D
:10079000FF0C4CF4E06C1CEA11541DBF1CEA13550D
:1007A00094EA0C0F95EA0C0F00F0A7F8A4EB0504EF
:1007B00081EA030E52EA03354FEA013100F08880E6
:1007C0004FEA03334FF0805545EA131343EA1263AF
:1007D0004FEA022245EA111545EA10654FEA002664
:1007E0000EF000419D4208BF964244F1FD0404F51D
:1007F000407402D25B084FEA3202B61A65EB030579
:100800005B084FEA32024FF480104FF4002CB6EB35
:10081000020E75EB030E22BFB61A754640EA0C00B5
:100820005B084FEA3202B6EB020E75EB030E22BFF5
:10083000B61A754640EA5C005B084FEA3202B6EB36
:10084000020E75EB030E22BFB61A754640EA9C00F5
:100850005B084FEA3202B6EB020E75EB030E22BFC5
:10086000B61A754640EADC0055EA060E18D04FEA83
:10087000051545EA16754FEA06164FEAC30343EA23
:1008800052734FEAC2025FEA1C1CC0D111F4801FF0
:100890000BD141EA00014FF000004FF0004CB6E7E9
:1008A00011F4801F04BF01430020B4F1FD0C88BF88
:1008B000BCF5E06F3FF6AFAEB5EB030C04BFB6EB93
:1008C000020C5FEA500C50F1000041EB045170BD86
:1008D0000EF0004E4EEA113114EB5C04C2BFD4EBB3
:1008E0000C0541EA045170BD41F480114FF0000E37
:1008F000013C90E645EA060E8DE60CEA135594EAB3
:100900000C0F08BF95EA0C0F3FF43BAF94EA0C0FB5
:100910000AD150EA01347FF434AF95EA0C0F7FF42A
:1009200025AF104619462CE795EA0C0F06D152EA7E
:1009300003353FF4FDAE1046194622E750EA410662
:1009400018BF52EA43067FF4C5AE50EA41047FF473
:100950000DAF52EA43057FF4EBAE12E74FF0FF3CD8
:1009600006E000BF4FF0010C02E000BF4FF0010CA9
:100970004DF804CD4FEA410C7FEA6C5C4FEA430C22
:1009800018BF7FEA6C5C1BD001B050EA410C0CBF71
:1009900052EA430C91EA030F02BF90EA020F0020D3
:1009A000704710F1000F91EA030F58BF994208BF3A
:1009B00090422CBFD8176FEAE37040F001007047F7
:1009C0004FEA410C7FEA6C5C02D150EA013C07D14E
:1009D0004FEA430C7FEA6C5CD6D152EA033CD3D099
:1009E0005DF8040B704700BF8446104662468C4693
:1009F0001946634600E000BF01B5FFF7B7FF0028C6
:100A000048BF10F1000F01BD4DF808EDFFF7F4FFEE
:100A10000CBF012000205DF808FB00BF4DF808ED79
:100A2000FFF7EAFF34BF012000205DF808FB00BF9C
:100A30004DF808EDFFF7E0FF94BF012000205DF8BE
:100A400008FB00BF4DF808EDFFF7CEFF94BF012073
:100A500000205DF808FB00BF4DF808EDFFF7C4FF6C
:100A600034BF012000205DF808FB00BF4FEA410CB5
:100A70007FEA6C5C02D150EA013C0AD14FEA430C98
:100A80007FEA6C5C02D152EA033C02D14FF00000D5
:100A900070474FF0010070474FEA410212F5001213
:100AA00015D211D56FF47873B3EB625212D94FEAB5
:100AB000C12343F0004343EA505311F0004F23FA9F
:100AC00002F018BF404270474FF00000704750EAF4
:100AD000013005D111F0004008BF6FF000407047B1
:100AE0004FF00000704700BF4A0011D212F500120B
:100AF00011D20DD56FF47873B3EB62520ED44FEA76
:100B0000C12343F0004343EA505323FA02F07047F5
:100B10004FF00000704750EA013002D14FF0FF3033
:100B200070474FF00000704753B94AB9002908BF19
:100B300000281CBF4FF0FF314FF0FF3000F0E2B84B
:100B4000ADF1080C6DE904CE0DF0CAFCDDF804E04F
:100B5000DDE9022304B0704700F1340191E8380068
:100B60009C46A6464CF8045D90E8FF0FE54600BDA4
:100B700090EC210B704700BF80EC210B704700BF49
:100B800090EC200B704700BF80EC200B704700BF3B
:100B9000D0EC200B704700BFC0EC200B704700BFAB
:100BA000F0EC0201F0EC0211F0EC0221F0EC023169
:100BB000F0EC0241F0EC0251F0EC0261F0EC027159
:100BC000F0EC0281F0EC0291F0EC02A1F0EC02B149
:100BD000F0EC02C1F0EC02D1F0EC02E1F0EC02F139
:100BE000704700BFE0EC0201E0EC0211E0EC0221F2
:100BF000E0EC0231E0EC0241E0EC0251E0EC026199
:100C0000E0EC0271E0EC0281E0EC0291E0EC02A188
:100C1000E0EC02B1E0EC02C1E0EC02D1E0EC02E178
:100C2000E0EC02F1704700BFB0FC0181B0FC019123
:100C3000B0FC01A1B0FC01B1704700BFA0FC018174
:100C4000A0FC0191A0FC01A1A0FC01B1704700BF74
:100C5000EC4600B52DE900502DE9FF1F4FF00003D1
:100C60002DE90C0001A90DF0EDFEDDF840E012B019
:100C7000704700BFEC4600B52DE900502DE9FF1F7D
:100C80004FF000032DE90C0001A90DF017FFDDF86E
:100C900040E012B0704700BFEC4600B52DE90050AF
:100CA0002DE9FF1F4FF000032DE90C0001A90DF005
:100CB00025FFDDF840E012B0704700BFEC4600B5FC
:100CC0002DE900502DE9FF1F4FF000032DE90C0026
:100CD00001AB0DF0EBFEDDF840E012B0704700BF55
:100CE000EC4600B52DE900502DE9FF1F4FF0000341
:100CF0002DE90C0001AA0DF05DFFDDF840E012B017
:100D0000704700BF704700BF0000000000000000F7
:100D100000000000000000000000000000000000D3
:100D200002780B78012A28BF9A4240F0D8806DE9FA
:100D3000044540EA0104CDE902676FF0000C4FEA78
:100D400044721AB380EA010414F0070F6BD100F06B
:100D5000070420F0070004F0030521F007014FEA23
:100D6000C505F0E8042314F0040FF1E804670CFA59
:100D700005F462EA040266EA04060BD063EA04039F
:100D8000624667EA0407664604E000BFF0E8042311
:100D9000F1E8046782FA4CF582EA0604A4FA8CF4BE
:100DA0006CBB83FA4CF583EA0705A5FA8CF595B977
:100DB00050E9022351E9026782FA4CF582EA0604FF
:100DC000A4FA8CF483FA4CF583EA0705A5FA8CF5AE
:100DD0002543DBD09CB92DBAB5FA85F424F007047D
:100DE00027FA04F1DDE9026723FA04F303F0FF00B8
:100DF00001F0FF01FDE80445A0EB0100704724BAB3
:100E0000B4FA84F424F0070426FA04F1DDE9026759
:100E100022FA04F202F0FF0001F0FF01FDE80445B0
:100E2000A0EB0100704714F0030F3CD110F0030455
:100E300028D150F8082B51F8083B82FA4CF582EA89
:100E40000305A5FA8CF55DB950F8042C51F8043C63
:100E500082FA4CF582EA0305A5FA8CF5002DE8D05C
:100E60002DBAB5FA85F424F0070423FA04F122FA26
:100E700004F202F0FF0001F0FF01FDE80445A0EBE1
:100E8000010070474FEAC40420F0030050F8082B1B
:100E900021F0030151F8083B0CFA04F462EA040261
:100EA00063EA0403C9E710F003041DD0A1EB0401B9
:100EB00020F00300E40750F8042B06D012D28B7800
:100EC0005FFAA2F4E41A06D12BB1CB785FFAB2F440
:100ED000E41A00D133B920465DF8104B7047A2EBFD
:100EE0000300704701F1040150F8042BCC0721F0F6
:100EF000030151F8043B48D824D222F07F4482FAFF
:100F00004CF594EA1325A5FA8CF50AD165B951F888
:100F1000043B84EA0204B4EB036F0ED150F8042BB7
:100F2000EBE74FEA132355E035F07F454DD10878C4
:100F3000FDE80445C0F1000070474FEA126203F07B
:100F4000FF0347E002EA1C4482FA4CF594EA134599
:100F5000A5FA8CF50AD165B951F8043B84EA02047C
:100F6000B4EB034F0CD150F8042BEBE74FEA1343DB
:100F700030E015EA1C4528D10B884FEA124229E0DF
:100F80004FEA124203EA1C4324E002F0FF0482FA13
:100F90004CF594EA1365A5FA8CF50AD165B951F8B8
:100FA000043B84EA0204B4EB032F09D150F8042B6C
:100FB000EBE74FEA13630DE015F0FF0F05D10B6867
:100FC0004FEA122223F07F4304E04FF00000FDE8D7
:100FD0000445704712BA1BBA82FA4CF482EA030441
:100FE000A4FA8CF5B5FA85F402FA04F203FA04F3D4
:100FF0004FEA1260FDE80445A0EB1360704700BFA4
:1010000001F0FF01102A2BDB10F0070F08D010F8B9
:10101000013B013A8B422DD010F0070F42B3F6D1BD
:10102000F0B441EA012141EA014122F007047FF0D6
:1010300000070023F0E80256083C85EA010586EA2D
:10104000010685FA47F5A3FA87F586FA47F6A5FA69
:1010500087F68EB9EED1F0BC01F0FF0102F0070275
:1010600032B110F8013B013A83EA010313B1F8D120
:101070000020704701387047002D06BF3546033801
:10108000073815F0010F07D1013015F4807F02BF3A
:10109000013015F4C03F0130F0BC0138704700BF8B
:1010A000844641EA000313F003036DD1403A41D373
:1010B00051F8043B40F8043B51F8043B40F8043B32
:1010C00051F8043B40F8043B51F8043B40F8043B22
:1010D00051F8043B40F8043B51F8043B40F8043B12
:1010E00051F8043B40F8043B51F8043B40F8043B02
:1010F00051F8043B40F8043B51F8043B40F8043BF2
:1011000051F8043B40F8043B51F8043B40F8043BE1
:1011100051F8043B40F8043B51F8043B40F8043BD1
:1011200051F8043B40F8043B51F8043B40F8043BC1
:10113000403ABDD2303211D351F8043B40F8043B61
:1011400051F8043B40F8043B51F8043B40F8043BA1
:1011500051F8043B40F8043B103AEDD20C3205D371
:1011600051F8043B40F8043B043AF9D2043208D069
:10117000D2071CBF11F8013B00F8013B01D30B88DB
:1011800003806046704700BF082A13D38B078DD0B9
:1011900010F003038AD0C3F10403D21ADB071CBF8B
:1011A00011F8013B00F8013B80D331F8023B20F8F5
:1011B000023B7BE7043AD9D3013A11F8013B00F82E
:1011C000013BF9D20B7803704B7843708B788370B6
:1011D00060467047000000000000000000000000B2
:1011E00000000000000000000000000000000000FF
:1011F00000000000000000000000000000000000EF
:1012000030B490F800F020F007016FF0000C10F0FF
:10121000070491F820F040F048804FF000046FF090
:101220000700D1E9002391F840F000F1080082FAAC
:101230004CF2A4FA8CF283FA4CF3A2FA8CF34BBB77
:10124000D1E9022382FA4CF200F10800A4FA8CF2F0
:1012500083FA4CF3A2FA8CF3E3B9D1E9042382FABE
:101260004CF200F10800A4FA8CF283FA4CF3A2FAD3
:101270008CF37BB9D1E9062301F1200182FA4CF20B
:1012800000F10800A4FA8CF283FA4CF3A2FA8CF372
:10129000002BC6D0002A04BF04301A4612BAB2FA94
:1012A00082F200EBD20030BC7047D1E9002304F099
:1012B0000305C4F100004FEAC50514F0040F91F8CE
:1012C00040F00CFA05F562EA05021CBF63EA05036B
:1012D00062464FF00004AAE70348044B834202D061
:1012E000034B03B118477047C8060020C80600200A
:1012F000000000000548064B1B1AD90F01EBA301A3
:10130000491002D0034B03B118477047C8060020AC
:10131000C80600200000000010B5064C237843B931
:10132000FFF7DAFF044B13B10448AFF30080012349
:10133000237010BDC8060020000000009C5C01085E
:1013400008B5054B1BB105490548AFF30080BDE862
:101350000840FFF7CFBF00BF00000000CC06002010
:101360009C5C0108F8B504460D46534802F0A2FC07
:10137000002851D0264605F10047002200232046D0
:101380002946FFF769FBE8B90022002320462946D9
:10139000FFF744FB48BB0022002320462946FFF705
:1013A00033FB08B3454B1B680024DC63444D2246E5
:1013B0001021284604F074F822462021284604F023
:1013C0006FF811E03E4C01221021204604F068F82D
:1013D00000222021204604F063F8384B1C68304678
:1013E0003946FFF781FBE063F8BD354E002210213E
:1013F000304604F055F801222021304604F050F820
:101400002E4B1E6822462B4600202E49FEF7DCFE9E
:10141000FFF76AFBF063E7E7002200232046294636
:10142000FFF7FCFAF0B90022002320462946FFF717
:1014300013FB50BB0022002320462946FFF7E4FAA5
:101440000028D1D01D4B1B680024DC631C4D2246B4
:101450001021284604F024F822462021284604F0D2
:101460001FF8C1E7164E00221021304604F018F88C
:1014700001222021304604F013F8104B1E6820464C
:101480002946FFF731FBF063AEE70D4E0122102134
:10149000304604F005F800222021304604F000F820
:1014A0000022084B20462946FEF790FE034B1C689D
:1014B000FFF71AFBE06397E7C00A00203015002011
:1014C0000000024000408F40F8B504460D465348E6
:1014D00002F0F0FB002851D0264605F1004700221B
:1014E000002320462946FFF7B7FAE8B90022002377
:1014F00020462946FFF792FA48BB002200232046E7
:101500002946FFF781FA08B3454C002210212046F6
:1015100003F0C6FF00222021204603F0C1FF414B0B
:101520001B6800225A6311E03D4C01221021204625
:1015300003F0B6FF00222021204603F0B1FF394B13
:101540001C6830463946FFF7CFFA6063F8BD344E69
:1015500000221021304603F0A3FF01222021304653
:1015600003F09EFF2F4B1E6822462B4600202E497B
:10157000FEF72AFEFFF7B8FA7063E7E700220023C0
:1015800020462946FFF74AFAF0B9002200232046F8
:101590002946FFF761FA50BB002200232046294666
:1015A000FFF732FA0028D1D01E4B1B6800245C6381
:1015B0001B4D22461021284603F072FF22462021AF
:1015C000284603F06DFFC1E7154E0022102130467A
:1015D00003F066FF01222021304603F061FF114B2A
:1015E0001E6820462946FFF77FFA7063AEE70C4E6F
:1015F00001221021304603F053FF00222021304603
:1016000003F04EFF0022084B20462946FEF7DEFD80
:10161000044B1C68FFF768FA606397E7B009002085
:10162000000802403015002000408F40F8B5044605
:101630000D46534802F03EFB002851D0264605F1E6
:1016400000470022002320462946FFF705FAE8B9A3
:101650000022002320462946FFF7E0F948BB00227C
:10166000002320462946FFF7CFF908B3454B1B68F6
:1016700000249C63444D22464021284603F010FF7D
:1016800022468021284603F00BFF11E03E4C012248
:101690004021204603F004FF00228021204603F071
:1016A000FFFE384B1C6830463946FFF71DFAA06331
:1016B000F8BD354E00224021304603F0F1FE0122F4
:1016C0008021304603F0ECFE2E4B1E6822462B464E
:1016D00000202E49FEF778FDFFF706FAB063E7E732
:1016E0000022002320462946FFF798F9F0B900228E
:1016F000002320462946FFF7AFF950BB0022002304
:1017000020462946FFF780F90028D1D01D4B1B68E1
:1017100000249C631C4D22464021284603F0C0FE55
:1017200022468021284603F0BBFEC1E7164E002268
:101730004021304603F0B4FE01228021304603F000
:10174000AFFE104B1E6820462946FFF7CDF9B06367
:10175000AEE70D4E01224021304603F0A1FE0022EB
:101760008021304603F09CFE0022084B204629468B
:10177000FEF72CFD034B1C68FFF7B6F9A06397E753
:10178000380A0020301500200018024000408F4029
:10179000F8B504460D46534802F08CFA002851D0A3
:1017A000264605F100470022002320462946FFF780
:1017B00053F9E8B90022002320462946FFF72EF905
:1017C00048BB0022002320462946FFF71DF908B335
:1017D000454B1B6800241C64444D224602212846C8
:1017E00003F05EFE22460421284603F059FE11E074
:1017F0003E4C01220221204603F052FE0022042129
:10180000204603F04DFE384B1C6830463946FFF742
:101810006BF92064F8BD354E00220221304603F0FA
:101820003FFE01220421304603F03AFE2E4B1E6893
:1018300022462B4600202E49FEF7C6FCFFF754F93E
:101840003064E7E70022002320462946FFF7E6F848
:10185000F0B90022002320462946FFF7FDF850BBCF
:101860000022002320462946FFF7CEF80028D1D0D9
:101870001D4B1B6800241C641C4D22460221284677
:1018800003F00EFE22460421284603F009FEC1E7BC
:10189000164E00220221304603F002FE01220421EE
:1018A000304603F0FDFD104B1E6820462946FFF729
:1018B0001BF93064AEE70D4E01220221304603F0E1
:1018C000EFFD00220421304603F0EAFD0022084B20
:1018D00020462946FEF77AFC034B1C68FFF704F903
:1018E000206497E7280900203015002000040240FA
:1018F00000408F40F8B504460D4616461F46FFF7D8
:1019000097F8B0B120462946FFF7C6F8044606E02E
:10191000134B1B689C63052003F0D4F90134204667
:10192000FEF7A0FD32463B46FFF782F80028EFD1D4
:10193000F8BD20462946FFF7AFF8044606E0084BFD
:101940001B689C63052003F0BDF9013C2046FEF7AF
:1019500089FD32463B46FFF775F80028EFD1E7E7EF
:1019600080130020F8B504460D4616461F46FFF7C3
:101970005FF8B0B120462946FFF78EF8044606E02E
:10198000134B1B685C63052003F09CF9013420466F
:10199000FEF768FD32463B46FFF74AF80028EFD1D4
:1019A000F8BD20462946FFF777F8044606E0084BC5
:1019B0001B685C63052003F085F9013C2046FEF7B7
:1019C00051FD32463B46FFF73DF80028EFD1E7E7EF
:1019D0008013002000000000012800D070474FF65F
:1019E000FF739942FAD12DE9F04F85B0504E304641
:1019F00002F020F94F4C504D22462946304605F062
:101A00006BFB4E4E304602F015F922462946304611
:101A100005F062FB4A4E304602F00CF92246294698
:101A2000304605F059FB474E304602F003F9224696
:101A30002946304605F050FB434D284601F0A8FEEC
:101A400022464249284605F047FB414D284601F011
:101A50009BFB22463F49284605F03EFB0FF2C80992
:101A6000D9E90089DFF8F0B04FF0010ACDF808A0FD
:101A700000260027CDE9006742464B4651465846AE
:101A800001F0A9FA354D22462946584605F024FBB7
:101A9000DFF8CCB002230293CDE9006742464B4603
:101AA0005146584601F097FA22462946584605F015
:101AB00013FBDFF8B0B003230293CDE90067424681
:101AC0004B465146584601F086FA2246294658466A
:101AD00005F002FBDFF890904FF00008CDF8088089
:101AE000CDE900670022214B4146484601F073FAD8
:101AF00022462946484605F0EFFADFF87490CDF803
:101B00000880CDE9006700221A4B4146484601F0A3
:101B100062FA22462946484605F0DEFA05B0BDE8DD
:101B2000F08F00BFAFF3008065732D3852C10040C5
:101B3000C00A002000000020633C0008380A002092
:101B4000B009002028090020A80800202938000832
:101B5000B8070020DD3100088807002003300008A6
:101B60006007002038070020100700200080764022
:101B7000E8060020000049402DE9F04F85B06A4C8E
:101B800061A3D3E90023CDE902230FF28419D9E937
:101B90000089CDE9008960A3D3E90023204602F043
:101BA00067F80026614FCDE900675DA3D3E9002304
:101BB000204602F06EF800220023204602F07CF856
:101BC0005B49204602F082F80021204602F070F8BE
:101BD000DFF860B14CA3D3E90023CDE90223CDE9BE
:101BE00000894DA3D3E90023584602F041F8CDE91E
:101BF00000674BA3D3E90023584602F04AF80022BD
:101C00000023584602F058F84B49584602F05EF857
:101C10000121584602F04CF8DFF820A13AA3D3E99D
:101C20000023CDE90223CDE900893BA3D3E90023BA
:101C3000504602F01DF8CDE9006739A3D3E900232F
:101C4000504602F026F800220023504602F034F8F5
:101C50003B49504602F03AF80021504602F028F87D
:101C6000384D29A3D3E90023CDE90223CDE900892A
:101C700029A3D3E90023284601F0FAFFCDE9006744
:101C800027A3D3E90023284602F003F8002200230B
:101C9000284602F011F82C49284602F017F80121D5
:101CA000284602F005F8294F2146384601F0C3FDC9
:101CB0005946384601F0B9FD5146384601F0B7FDA6
:101CC0002946384601F0B5FD214E5946304601F00F
:101CD000C4FA5146304601F0C6FA2946304601F0B2
:101CE000BFFA2146304601F0C1FA3946304601F0CC
:101CF000B1FA304601F0AAFA164BC3E9000105B06B
:101D0000BDE8F08FAFF30080FCA9F1D24D62503FE7
:101D100063F19BC24A05553FCDCCCCCCCCCC044022
:101D20000000000000408FC02809002000408F40C4
:101D300091170008C00A002065130008380A002027
:101D40002D160008B0090020C9140008A8080020BA
:101D5000B8070020B007002038B5194B1B68596A36
:101D600000245C62174D09B2284601F0B1FF2846F5
:101D700001F0C7FF144B1B68596A5C62134D09B22E
:101D8000284601F0A5FF284601F0BBFF104B1B6859
:101D9000596A5C620F4D09B2284601F099FF284646
:101DA00001F0AFFF0C4B1B68596A5C620B4C09B227
:101DB000204601F08DFF204601F0A3FF38BD00BF93
:101DC000C813002028090020E8140020380A002049
:101DD000A0140020B009002058140020C00A0020E0
:101DE00030B583B004460D461046194600220A4B12
:101DF000FEF7CCFC06A3D3E90023FEF79DFBCDE95B
:101E0000000122462B46054801F03EFD03B030BDDF
:101E100000000000004CED4000003E40A8080020FB
:101E200008B50449044801F0F0F80449044801F0F9
:101E3000ECF808BDF5180008100700206519000827
:101E4000E80600200000000030B583B00024224DD9
:101E5000CDE9004518A3D3E90023204801F02CF96F
:101E6000CDE9004516A3D3E900231D4801F024F96C
:101E7000CDE9004514A3D3E900231A4801F01CF969
:101E80004FF4FA7002F01EFF4FF4B473009310A3E6
:101E9000D3E90023144801F0BBF8B42300930022D7
:101EA000124B134801F0B4F84FF4487002F00AFFE7
:101EB00003B030BDAFF300807889C9C25472F53FDA
:101EC00082110127B844034065732D3852C1004088
:101ED0009A9999999999654000408F406007002030
:101EE0008807002038070020100700200080564097
:101EF000E8060020000000002DE9F04F87B0002424
:101F00005D4DCDE9004554A3D3E900235B4801F0C2
:101F1000D3F8CDE9004552A3D3E90023584801F096
:101F2000CBF8CDE9004550A3D3E90023554801F093
:101F3000C3F84FF4FA6002F0C5FE4FF4B473009397
:101F40004BA3D3E90023504801F062F8B423009377
:101F500000224E4B4E4801F05BF84FF4FA7002F04D
:101F6000B1FE4C4B00221A600CE0012225E0002A51
:101F700040F08181484B1B68012B24D01346002B75
:101F800040F0A480434B1B68B3F5487F00F3738196
:101F9000424B00221A60424C01224249204605F081
:101FA00022F840F6B83002F08DFE204604F030FDF5
:101FB0003D4B1B68002BD8D00022002BD7D03A4BCA
:101FC00000211960D3E734490020086037490978B7
:101FD000352901D01346D2E734494978352901D053
:101FE0001346CCE731498978352901D01346C6E735
:101FF0002E49C978352901D01346C0E72B49097C01
:10200000382901D01346BAE72849C97B382901D0BD
:102010001346B4E72549897B382901D01346AEE73A
:102020002249497B382901D01346A8E71F49C87ABD
:10203000302809D013463028A1D11C49097B3439F6
:10204000C9B201299BD816E1097B3139C9B20129EE
:10205000F1D91346EFE700BF0F22F60E7AC9F63F1B
:102060003101CFCEF3AF034065732D3852C100402C
:102070003333333333B3544000408F406007002084
:1020800088070020380700201007002000805640F5
:10209000E8060020500B0020540B00204C0B0020C1
:1020A000D81500206E0B0020480B00205C0B002090
:1020B000131D8349C85C02F118036B4403F8080C34
:1020C00002F10800095C03F8041C0132022AEFDD6A
:1020D00004A80DF027FA054605A80DF023FA0446DA
:1020E000C5F1A000FEF7BEF965A3D3E90023FEF712
:1020F00023FA06460F46DFF8CC91484600F082FFEF
:1021000002460B4630463946FEF760F802460B465B
:102110004FF4B47ACDF800A0484600F079FF64206F
:1021200002F0D0FDA4F17800FEF79CF956A3D3E9A4
:102130000023FEF701FA0022634BFEF727FB54A3AE
:10214000D3E90023FEF7F8F905460E465F4C20461A
:1021500000F058FFCDE902562A463346FEF734F820
:1021600002460B4600265A4FCDE90067204600F094
:10217000A3FF4FF47A7002F0A5FD564D4FF0B4085E
:10218000CDF800800022544B284600F041FF4FF468
:10219000FA7002F097FDDFF844B1CDE900673EA385
:1021A000D3E90023584600F087FFDDE902233CA174
:1021B000D1E90001FEF708F802460B46CDE90067B9
:1021C000204600F079FFCDE9006737A3D3E900236B
:1021D000434800F071FF40F2DC5002F073FDCDF88F
:1021E000008000223F4B284600F012FF4FF496601B
:1021F00002F068FD204600F005FF2DA3D3E900237F
:10220000FDF7E4FF02460B46CDE90067204600F0EB
:1022100053FF4FF47A7002F055FDCDE9006726A315
:10222000D3E90023584600F047FFCDE900671EA31D
:10223000D3E900232A4800F03FFF40F2DC5002F0CF
:1022400041FDCDF800A000220023484600F0E0FE4A
:102250004FF47A7002F036FDCDF800800022224B58
:10226000284600F0D5FE4FF47A7002F02BFD1F4A8D
:1022700013780133137007B0BDE8F08FAFF300801F
:10228000EC51B81E85EBB13FB81E85EB51B8BE3F8F
:10229000182D4454FB210940C452C987C9970140F5
:1022A000BACA912366C5034065732D3852C10040F8
:1022B000A6BA225B9F20C83FE0F09C762F1BF43F1C
:1022C0005C0B00201007002000806640880700207B
:1022D00000408F40E806002000405040600700208A
:1022E000380700200000364000805640700B002068
:1022F0002DE9F04F85B04FF4B473009352A3D3E9A6
:102300000023594800F084FEB42300930022574B69
:10231000574800F07DFE0024564DCDE900454CA302
:10232000D3E90023544800F0C7FECDE900454AA395
:10233000D3E90023514800F0BFFECDE9004548A392
:10234000D3E900234E4800F0B7FE4FF4FA6002F0E4
:10235000B9FC4C4B00221A600CE0012225E0002A57
:1023600040F06B81484B1B68012B24D01346002B97
:1023700040F0A480434B1B68B3F5487F00F35D81B8
:10238000424B00221A60424C01224249204604F08E
:102390002AFE40F6B83002F095FC204604F038FBE7
:1023A0003D4B1B68002BD8D00022002BD7D03A4BD6
:1023B00000211960D3E734490020086037490978C3
:1023C000352901D01346D2E734494978352901D05F
:1023D0001346CCE731498978352901D01346C6E741
:1023E0002E49C978352901D01346C0E72B49097C0D
:1023F000382901D01346BAE72849C97B382901D0CA
:102400001346B4E72549897B382901D01346AEE746
:102410002249497B382901D01346A8E71F49C87AC9
:10242000302809D013463028A1D11C49097B343902
:10243000C9B201299BD800E1097B3139C9B2012910
:10244000F1D91346EFE700BF3333333333B354408E
:102450009EAFD4151EC80540041DD58B347DFD3FAD
:102460009BB501D859D4EE3F10070020008056409C
:10247000E806002000408F40600700208807002009
:1024800038070020500B0020540B00204C0B00207C
:10249000D81500206E0B0020480B00205C0B00209C
:1024A000131D7949C85C02F110036B4403F8080C52
:1024B00002F10800095C03F8041C0132022AEFDD76
:1024C00002A80DF02FF8054603A80DF02BF80446DE
:1024D000C5F1A000FDF7C6FF59A3D3E90023FEF71D
:1024E0002BF880468946694F384600F08BFD02463E
:1024F0000B4640464946FDF769FE02460B464FF43F
:10250000B479CDF80090384600F082FD642002F0E6
:10251000D9FBA4F17800FDF7A5FF4BA3D3E9002375
:10252000FEF70AF800225A4BFEF730F948A3D3E928
:102530000023FEF701F882468B46564E304600F0E7
:1025400061FD52465B46FDF73FFE02460B46002406
:10255000514DCDE90045304600F0AEFD4FF47A70A4
:1025600002F0B0FB52465B463BA1D1E90001FDF70A
:102570002BFE02460B46CDE90045304600F09CFD9F
:10258000DFF818B1CDE9004535A3D3E9002358465B
:1025900000F092FDDFF808A1CDE9004532A3D3E9B0
:1025A0000023504600F088FD40F2DC5002F08AFB28
:1025B0004FF0B408CDF8008000223A4B3A4800F0C2
:1025C00027FD4FF47A7002F07DFB0022374BCDE9F6
:1025D000002327A3D3E90023304600F06DFDCDE9A9
:1025E000004525A3D3E90023584600F065FDCDE959
:1025F000004523A3D3E90023504600F05DFD4FF4CE
:10260000E16002F05FFBCDF8009000220023384625
:1026100000F0FEFC40F2E24002F054FBCDF80080F6
:102620000022234B204800F0F3FC40F2E24002F08D
:1026300049FB204A13780133137005B0BDE8F08FD1
:10264000EC51B81E85EBB13FB81E85EB51B8BE3FCB
:10265000182D4454FB210940D5EB7BF3E9CE0A4009
:10266000D5EB7BF3E9CEFA3F5069EB31C728EE3F5B
:10267000E0F09C762F1BF43FE0F09C762F1B04408B
:1026800065732D3852C100405C0B002010070020FC
:10269000008066406007002000408F4088070020CF
:1026A0003807002000003740E806002000409F4027
:1026B000008056406F0B00202DE9F04F87B00024BA
:1026C0005D4DCDE9004554A3D3E900235B4800F0FC
:1026D000F3FCCDE9004552A3D3E90023584800F0AC
:1026E000EBFCCDE9004550A3D3E90023554800F0A9
:1026F000E3FC4FF4FA6002F0E5FA4FF4B473009390
:102700004BA3D3E90023504800F082FCB42300938C
:1027100000224E4B4E4800F07BFC4FF4FA7002F062
:10272000D1FA4C4B00221A600CE0012225E0002A6D
:1027300040F08281484B1B68012B24D01346002BAC
:1027400040F0A480434B1B68B3F5487F00F37481CD
:10275000424B00221A60424C01224249204604F0BA
:1027600042FC41F2883002F0ADFA204604F050F904
:102770003D4B1B68002BD8D00022002BD7D03A4B02
:1027800000211960D3E734490020086037490978EF
:10279000352901D01346D2E734494978352901D08B
:1027A0001346CCE731498978352901D01346C6E76D
:1027B0002E49C978352901D01346C0E72B49097C39
:1027C000382901D01346BAE72849C97B382901D0F6
:1027D0001346B4E72549897B382901D01346AEE773
:1027E0002249497B382901D01346A8E71F49C87AF6
:1027F000302809D013463028A1D11C49097B34392F
:10280000C9B201299BD817E1097B3139C9B2012925
:10281000F1D91346EFE700BF5B6E0CB50C75F73FBF
:102820003101CFCEF3AF034065732D3852C1004064
:10283000CDCCCCCCCC4C704000408F406007002009
:10284000880700203807002010070020008056402D
:10285000E8060020500B0020540B00204C0B0020F9
:10286000D81500206E0B0020480B00205C0B0020C8
:10287000131D8549C85C02F118036B4403F8080C6A
:1028800002F10800095C03F8041C0132022AEFDDA2
:1028900004A80CF047FE054605A80CF043FE0446CC
:1028A000C5F1A000FDF7DEFD65A3D3E90023FDF728
:1028B00043FE06460F46DFF8D491484600F0A2FBDF
:1028C00002460B4630463946FDF780FC02460B4671
:1028D0004FF4B47ACDF800A0484600F099FB64208C
:1028E00002F0F0F9A4F17800FDF7BCFD56A3D3E99E
:1028F0000023FDF721FE0022654BFDF747FF54A39F
:10290000D3E90023FDF718FE05460E46614C20462C
:1029100000F078FBCDE902562A463346FDF754FC19
:1029200002460B4600265C4FCDE90067204600F0CA
:10293000C3FB4FF47A7002F0C5F9584D4FF0B4085C
:10294000CDF800800022564B284600F061FB4FF482
:10295000FA7002F0B7F9DFF84CB1CDE900673EA399
:10296000D3E90023584600F0A7FBDDE902233CA190
:10297000D1E90001FDF728FC02460B46CDE90067CE
:10298000204600F099FBCDE9006737A3D3E9002387
:10299000454800F091FB4FF4FA6002F093F9CDF84E
:1029A00000800022414B284600F032FB40F2E2401A
:1029B00002F088F9204600F025FB2DA3D3E900237F
:1029C000FDF704FC02460B46CDE90067204600F007
:1029D00073FB4FF47A7002F075F9CDE9006726A316
:1029E000D3E90023584600F067FBCDE900671EA33A
:1029F000D3E900232C4800F05FFB40F2E24002F0F4
:102A000061F9CDF800A01EA3D3E90023484600F0E9
:102A1000FFFA40F2E24002F055F9CDF800800022C2
:102A2000234B284600F0F4FA40F2E24002F04AF963
:102A3000204A13780133137007B0BDE8F08F00BF50
:102A4000EC51B81E85EBB13FB81E85EB51B8BE3FC7
:102A5000182D4454FB210940C452C987C99701402D
:102A6000E0F09C762F1B044065732D3852C1004066
:102A7000A6BA225B9F20C83FE0F09C762F1BF43F54
:102A8000CDCCCCCCCC0C76405C0B002010070020C9
:102A9000008066408807002000408F40E806002044
:102AA00000004E406007002038070020000037403B
:102AB00000805640700B00202DE9F04F85B04FF498
:102AC000B473009352A3D3E90023594800F0A0FA4D
:102AD000B42300930022574B574800F099FA002482
:102AE000564DCDE900454CA3D3E90023544800F0EE
:102AF000E3FACDE900454AA3D3E90023514800F0A9
:102B0000DBFACDE9004548A3D3E900234E4800F0A5
:102B1000D3FA4FF4FA6002F0D5F84C4B00221A6059
:102B20000CE0012225E0002A40F06C81484B1B6834
:102B3000012B24D01346002B40F0A480434B1B688C
:102B4000B3F5487F00F35E81424B00221A60424C8D
:102B500001224249204604F046FA40F6B83002F01D
:102B6000B1F8204603F054FF3D4B1B68002BD8D032
:102B70000022002BD7D03A4B00211960D3E734490B
:102B80000020086037490978352901D01346D2E77B
:102B900034494978352901D01346CCE73149897841
:102BA000352901D01346C6E72E49C978352901D009
:102BB0001346C0E72B49097C382901D01346BAE7F0
:102BC0002849C97B382901D01346B4E72549897BB8
:102BD000382901D01346AEE72249497B382901D074
:102BE0001346A8E71F49C87A302809D01346302871
:102BF000A1D11C49097B3439C9B201299BD801E113
:102C0000097B3139C9B20129F1D91346EFE700BF79
:102C1000CDCCCCCCCC6C70409EAFD4151EC805403A
:102C20002B43E0DEFDD2FD3F041DD58B347DED3F0F
:102C30001007002000805640E806002000408F402A
:102C4000600700208807002038070020500B002074
:102C5000540B00204C0B0020D81500206E0B0020D8
:102C6000480B00205C0B0020131D7D49C85C02F15D
:102C700010036B4403F8080C02F10800095C03F828
:102C8000041C0132022AEFDD02A80CF04BFC0546C1
:102C900003A80CF047FC0446C5F1A000FDF7E2FBD9
:102CA0005BA3D3E90023FDF747FC804689466D4FBF
:102CB000384600F0A7F902460B4640464946FDF764
:102CC00085FA02460B464FF4B479CDF800903846A9
:102CD00000F09EF9642001F0F5FFA4F17800FDF703
:102CE000C1FB4DA3D3E90023FDF726FC00225E4B78
:102CF000FDF74CFD4AA3D3E90023FDF71DFC8246F6
:102D00008B465A4E304600F07DF952465B46FDF741
:102D10005BFA02460B460024554DCDE9004530468E
:102D200000F0CAF94FF47A7001F0CCFF52465B46CE
:102D30003DA1D1E90001FDF747FA02460B46CDE976
:102D40000045304600F0B8F9DFF828B1CDE900457C
:102D500037A3D3E90023584600F0AEF9DFF818A1F5
:102D6000CDE9004534A3D3E90023504600F0A4F98F
:102D700040F2DC5001F0A6FF4FF0B408CDF800801F
:102D800000223E4B3E4800F043F940F2E24001F0A1
:102D900099FF00223B4BCDE9002329A3D3E900236F
:102DA000304600F089F9CDE9004527A3D3E9002397
:102DB000584600F081F9CDE9004525A3D3E9002369
:102DC000504600F079F940F6340001F07BFFCDF871
:102DD000009021A3D3E90023384600F019F940F20E
:102DE000E24001F06FFFCDF800800022264B24481E
:102DF00000F00EF940F2E24001F064FF234A13783C
:102E00000133137005B0BDE8F08F00BFAFF3008051
:102E1000EC51B81E85EBB13FB81E85EB51B8BE3FF3
:102E2000182D4454FB210940D5EB7BF3E9CE0A4031
:102E3000D5EB7BF3E9CEFA3F5069EB31C728EE3F83
:102E4000E0F09C762F1BF43FE0F09C762F1B0440B3
:102E500065732D3852C10040CDCCCCCCCC0C764023
:102E60005C0B0020100700200080664060070020F7
:102E700000408F40880700203807002000003640BF
:102E8000E806002000409F40008056406F0B002065
:102E900010B5044602681D4B9A4204D022681C4BB0
:102EA0009A4225D010BD1B4B01221A601A4B19788B
:102EB0001A4B1A681A4881541A6801321A601B6842
:102EC000112B01DC0A2905D1144B00221A60154B85
:102ED00001221A60144A136801331360134A1368FD
:102EE0000133136001220C49114804F07CF8D5E746
:102EF000104B01221A60002304E00F4AD15C0F4AF4
:102F0000D1540133B3F5806FF7DBCBE700140140F8
:102F100000440040480B00206E0B0020580B00209E
:102F20005C0B0020540B0020500B00204C0B0020A9
:102F3000D8150020740B00207C0F00207C0B002093
:102F4000F0B58FB005460F460846FEF759F9014621
:102F5000C6B2FD238DF8043000248DF80540F31C23
:102F60008DF8063001238DF807302D011D438DF8B3
:102F70000850234606E003F138026A4412F8342C64
:102F800054400133042BF6D9002302E0FA5C54408C
:102F90000133CDB2AB42F9D32A4639460DF10900CF
:102FA000FEF77EF805F13D030DEB030505F8344C03
:102FB0004FF0FF33B21D01A9024803F07EFC0FB0B1
:102FC000F0BD00BFF816002008B54FF6FF710120D4
:102FD000FEF702FD08BD30B400240025C0E900451D
:102FE000C0E9024501240477002404620177C0E9A6
:102FF0000023DDE90223C0E90223049B036130BC06
:1030000070477047D0E900017047016270470000C7
:103010002DE9F047824614461D460898FDF722FA2E
:1030200006460F4602460B4620462946FDF7AEFBF4
:103030000022104BFDF780FA00220F4BFDF7C6F877
:103040008046894632463B46DAE90001FDF79EFBA1
:103050000022084BFDF770FA0022074BFDF7B6F887
:10306000DAF8206016B142464B46B047CAE900453F
:10307000BDE8F08700408F4000406F4038B51546EE
:103080001C460BF077F8FDF707FD03122B7020703C
:1030900038BD9DF800C008440244002104E0585C9B
:1030A000024492B20131C9B26145F8D3D0B2C043F3
:1030B000C0B270470000000010B588B00446DDE9DA
:1030C0000A01C4E90023C4E902010DF112030DF164
:1030D0001302FFF7D3FF0022294BD4E90001FDF7CB
:1030E0002BFA23A3D3E90023FDF750FB22A3D3E956
:1030F0000023FDF74BFB04AB0DF11102FFF7BEFF00
:1031000055238DF814308DF81530207C8DF816007D
:1031100007218DF8171001228DF818209DF810E076
:103120008DF819E09DF811C08DF81AC09DF8124075
:103130008DF81B409DF813308DF81C308DF80CE095
:103140008DF80DC08DF80E408DF80F3004230093DC
:1031500003ABFFF79EFF8DF81D004FF0FF330A22EF
:1031600005A9084803F0A9FB08B010BDAFF3008023
:10317000182D4454FB210940B81E85EB51B8CE3FB1
:10318000008066404017002070B5054600F056F9F3
:103190000026C5F8A46000220023C5E92A230022E6
:1031A0000C4BC5E92C2305F1B80C0B4C0FCCACE84B
:1031B0000F000FCCACE80F0094E803008CE803008C
:1031C000C5F8E060C5F8E460C5F8E860C5F8EC60F3
:1031D000284670BD00004E40B85C010810B504469A
:1031E00000F02DF9204610BD10B504464FF4806262
:1031F0001149124803F05CFF114B01221A60114B78
:103200001B689342F2D11049204600F057F900287C
:10321000ECD00C4B00221A60204600F00DF94069FA
:10322000FDF732F902A3D3E900230AF077FF10BDBE
:10323000182D4454FB2119407C0F002068160020F3
:10324000780B0020740B00207C0B002008B5FFF7E2
:10325000CBFF08BDC0F8A4107047C0F8E01070475D
:10326000C0F8E8107047C0F8E4107047C0F8EC10E0
:103270007047000000B583B000210191094B1A6B23
:1032800042F400121A631B6B03F400130193019BB9
:103290000A46102001F07EFD102001F08BFD03B0E6
:1032A0005DF804FB003802402DE9F04F8DB000249A
:1032B0000794089409940A940B940094454B1A6B54
:1032C00042F010021A631A6B02F010020092009A88
:1032D00001941A6B42F080021A631A6B02F08002AA
:1032E0000192019A02941A6B42F004021A631A6B5B
:1032F00002F004020292029A03941A6B42F0010255
:103300001A631A6B02F001020392039A04941A6B77
:1033100042F002021A631A6B02F002020492049A4B
:1033200005941A6B42F008021A631A6B02F0080245
:103330000592059A06941A6B42F040021A631B6BC1
:1033400003F040030693069BDFF88CB0224636213B
:10335000584602F0A5F8DFF884A0224630215046F6
:1033600002F09EF8DFF8788022463621404602F0CF
:1033700097F81C4F2246C021384602F091F84FF0D2
:103380003609CDF81C9001260896022509950A9465
:1033900007A9584601F08AFF30230793089609953C
:1033A0000A9407A9504601F081FFCDF81C900896B9
:1033B00009950A9407A9404601F078FFC0230793B6
:1033C000089609950A9407A9384601F06FFF0DB0D9
:1033D000BDE8F08F003802400008024000000240C3
:1033E000000402400018024084460023184605E00D
:1033F0001CF803205040034A105C01339942F7DC6B
:10340000704700BFE05E01088446002318469942D9
:103410000FDD10B41CF8032082EA1022054C34F8AA
:10342000122082EA002080B201339942F2DC10BC03
:1034300070477047E05C0108343070477047704750
:1034400010B50B461146402B04D0412B17D0422B10
:103450002FD010BD134630321C68D3F804E0D3F8E7
:1034600008C0D9680460C0F804E0C0F808C0C160B2
:10347000103310309342EFD11B680360E9E7134625
:1034800034302032D3F800E0D3F804C09C68D96807
:10349000C0F800E0C0F804C08460C1601033103090
:1034A0009342EFD119685A689B680160426083605B
:1034B000CFE744226030FDF7F3FDCAE72DE9F8437A
:1034C00006460D46002400E00134B4F57F7F17DA8C
:1034D00004212819FFF788FF2B5DFC2BF4D12B1951
:1034E0001B798342F0D1012363B904212846FFF7F9
:1034F0007BFF2B78FC2B0CD000242046BDE8F88302
:103500000023F1E7C4F5806229192846FDF7C8FDBC
:10351000EBE72B79834201D00024EEE795F8019088
:10352000AF786B79AC7944EA032405F10708394692
:103530004046FFF769FF844209D0002407F10801E3
:10354000C7F57E7229442846FDF7AAFDD5E73B461C
:10355000424649463046FFF773FF0124EEE700007C
:1035600008B50268034B9A4200D008BDFEF7F4FB91
:10357000FBE700BF0014004072B6FEE700B595B04F
:103580003022002108A80DF053FA0023039304937E
:1035900005930693079301931F4A116C41F08051E4
:1035A0001164126C02F080520192019A02931B4A3C
:1035B000116841F480411160126802F48042029265
:1035C000029A0222089201210B9110210C910E9275
:1035D0000F9308231093A82311931292042313939B
:1035E00008A801F063FF98B90F2303930223049303
:1035F000002305934FF4A05306934FF48053079391
:10360000052103A802F0A2F920B915B05DF804FB6A
:10361000FFF7B2FFFFF7B0FF003802400070004034
:1036200080B501F023FBFFF7A9FFFFF73DFEFFF791
:1036300021FE00F0F7FF00F0E5FD00F0B1FD00F025
:1036400013FE00F06BFE00F041FE01F0E9F801F01E
:1036500001F901F019F901F075F801F0C7F801F06E
:1036600047F901F02BF941F2883001F02BFB3B4B7D
:103670001A68D36823F02003D360394C0021204618
:1036800002F058FE0421204602F054FE0821204694
:1036900002F050FE0C21204602F04CFE314C00217D
:1036A000204602F047FE0421204602F043FE04219A
:1036B0002D4802F0C1FE04212C4802F0BDFE042179
:1036C0002B4802F0B9FE04212A4802F0B5FE2A4830
:1036D00002F0D8FAFEF750FAFEF7A2FB4FF4FA70A8
:1036E00001F0F0FA25490020FFF72AFC41F294107E
:1036F00001F0E8FA0024224D0022224B2046294600
:10370000FEF76EFBFEF7A0FBFEF7F2FDFEF79CFB5B
:10371000FEF7D2FFFEF798FB00261B4F32463B46D2
:1037200020462946FEF75CFBFFF7C6F9FEF78CFB47
:10373000FEF7E2FBFEF788FB32463B462046294671
:10374000FEF74EFBFEF780FBFEF7D2FDFEF77CFB9B
:10375000FEF7B2FFFEF778FBFEE700BF6816002019
:103760003015002080130020E8140020A014002051
:1037700058140020C813002010140020E05F010836
:103780000000444000004840000059400000000094
:1037900030B40022026042608260C26000240025D2
:1037A000C0E90445C0E90645C0E90845C0E90A4545
:1037B000C0E90C45C0E90E45C0E9104510A5D5E9A2
:1037C0000045C0E91245012280F850200EA5D5E938
:1037D0000045C0E916450EA5D5E90045C0E91845E4
:1037E0000DA5D5E90045C0E91A4500240C4DC0E9F6
:1037F0001C4500240B4DC0E91E4530BC704700BF7E
:103800000000000000E06F405D8AABCABE2BB23FF3
:103810007B14AE47E17A843FF168E388B5F8243F32
:10382000000024C0000024407047016070474160E0
:10383000704781607047C160704700220023C0E973
:103840000423C0E90623C0E90823C0E90A2370471E
:1038500010B50446C06818B1D4E90A2300F02CFA68
:10386000206818B1D4E9042300F026FA606818B182
:10387000D4E9062300F020FAA06818B1D4E908239F
:1038800000F01AFA10BD00002DE9F047ADF5247DD7
:10389000824690469946DDE9AC67D0E91A23CDE926
:1038A0000223D0E91823CDE90023D0E91623022111
:1038B00066A800F072FADAE91A23CDE90223DAE900
:1038C0001823CDE90023DAE91623022148A800F0E5
:1038D00064FADAE91A23CDE90223DAE91823CDE9FB
:1038E0000023DAE9162302212AA800F056FADAE9C1
:1038F0001A23CDE90223DAE91823CDE90023DAE916
:10390000162302210CA800F048FA002200234046AA
:103910004946FDF783F850B9DAE91E23CDE90023C3
:10392000DAE91C2366A984A800F077FA03E009F11C
:1039300000439946F0E7DAE91E23CDE90023DAE9EE
:103940001C2348A988A800F068FADAE91E23CDE90B
:103950000023DAE91C232AA98CA800F05EFADAE930
:103960001E23CDE90023DAE91C230CA990A800F05E
:1039700054FA00220023CDE90623CDF8188009F17E
:1039800000430793CDE90089DDE9062366A994A8E1
:1039900000F05FFACDE90089DDE9062348A998A87F
:1039A00000F057FACDE90089DDE906232AA99CA891
:1039B00000F04FFACDE90089DDE906230CA9A0A8A3
:1039C00000F047FADAF80C0000F097F9DAF8040092
:1039D00000F093F9DAF8080000F08FF9DAF8000047
:1039E00000F08BF90021DAF8000000F061F9002105
:1039F000DAF8080000F05CF90121DAF8040000F0C0
:103A000057F90121DAF80C0000F052F932463B4632
:103A100066A800F0FAF932463B4648A800F0F5F9EE
:103A200032463B462AA800F0F0F932463B460CA845
:103A300000F0EBF97CA3D3E9002330463946FCF7CC
:103A40007BFDFDF729F88046C6E0FCF70BFD32460A
:103A50003B46FCF7B9FB21F000450022744B294698
:103A6000FCF7DCFF38B9B8F1000F46DDDAF80C00DE
:103A700000F041F948E0DAF8080000F03CF9FCF702
:103A8000F1FC32463B46FCF79FFB049021F00043DB
:103A900005930022664BDDE90401FCF7BFFF002817
:103AA000E1D0DAF8040000F026F9FCF7DBFC32463E
:103AB0003B46FCF789FB089021F000430993002264
:103AC0005B4BDDE90801FCF7A9FF0028CBD0DAF851
:103AD0000C0000F010F9FCF7C5FC32463B46FCF741
:103AE00073FB0A9021F000430B930022504BDDE959
:103AF0000A01FCF793FF0028B5D05046FFF79DFE62
:103B00005046FFF7A5FE6CE0FCF7ACFC02460B4606
:103B100066A800F075F966A800F088FADAF80800DF
:103B200000F0E9F8FCF79EFC02460B462AA800F0DC
:103B300067F92AA800F07AFADAF8040000F0DBF856
:103B4000FCF790FC02460B4648A800F059F948A83B
:103B500000F06CFADAF8000000F0CDF8FCF782FC17
:103B600002460B460CA800F04BF90CA800F05EFAD8
:103B70005046FFF762FE66A800F04CF902460B467D
:103B8000DAE90A01FCF722FBCAE90A012AA800F0D7
:103B900041F902460B46DAE90801FCF717FBCAE9CE
:103BA000080148A800F036F902460B46DAE906019A
:103BB000FCF70CFBCAE906010CA800F02BF9024641
:103BC0000B46DAE90401FCF701FBCAE9040150469F
:103BD000FFF73EFE08F1FF38DAF8000000F08BF83E
:103BE00033E70CA800F0F9F82AA800F0F6F848A886
:103BF00000F0F3F866A800F0F0F80DF5247DBDE8BC
:103C0000F0870CA800F0E9F82AA800F0E6F848A828
:103C100000F0E3F866A800F0E0F803F065FAF3E7D7
:103C2000F5E7F7E7AFF30080CDCCCCCCCCCCE43FCC
:103C30000000144038B504460023037043608360DD
:103C400000F11005284600F093F80121284600F005
:103C5000C5F804E0284600F0C0F803F045FA204615
:103C600038BD10B50446103000F0B7F8204610BD3E
:103C700010B500F11004204600F0B3F8DDE902238E
:103C8000204600F0B3F8DDE90423204600F0B3F845
:103C900010BD2DE9004886B0DDE908BCCDE900BCC7
:103CA00000F1100102A800F0D4F806B0BDE80088C9
:103CB000017070470078704738B5017811B103F191
:103CC00000452B46103000F0A0F838BD81607047E9
:103CD00038B504460D460846FCF7C4FB02460B46C1
:103CE00004F1100000F08CF8237803B16D42606895
:103CF0002844606038BD4068704703460020586023
:103D0000704738B5044600F11005284600F08EF9DA
:103D1000A4681CB1284600F07DF8A04738BD2DE905
:103D2000F84316461F46089BD3E90089D3E90245AC
:103D300022462B4640464946FCF766FE90B932467D
:103D40003B4640464946FCF787FE08B9B046B946AF
:103D500042464B4620462946FCF760FE20B94446C1
:103D60004D4601E034463D4620462946BDE8F883ED
:103D700030B40122026000240025C0E90245C0E9F8
:103D80000445C0E90645C0E91645C0E91845C0E943
:103D90001A45C0E91C4530BC704730B401240460AA
:103DA00000240025C0E90245C0E90445C0E90645F4
:103DB000C0E91645C0E91845C0E91A45C0E91C45E7
:103DC0000160C0E90223DDE90223C0E90423DDE943
:103DD0000423C0E9062330BC7047704701600846E1
:103DE0007047C0E90223104619467047C0E9042312
:103DF000104619467047C0E9062310461946704719
:103E0000C0E90823104619467047C0E90A23104646
:103E100019467047D0E91401704730B484B0844625
:103E2000DDE90645CDE90023CDE90245C1E91623C8
:103E3000C1E9184558310FC98CE80F00604604B03D
:103E400030BC7047844658310FC98CE80F0060467B
:103E5000704730B484B08446DDE90645CDE90023DF
:103E6000CDE90245C1E91A23C1E91C4568310FC9F2
:103E70008CE80F00604604B030BC7047844668315F
:103E80000FC98CE80F00604670472DE9F04786B0F7
:103E90008246D0E91023C0E91223D0E90C23C0E9FF
:103EA0001023D0E90A01DAE90823FCF78DF9CAE901
:103EB0000C01DAE90245DAE90C01DAE91023FCF732
:103EC00083F902460B4620462946FCF735FB04469B
:103ED0000D46DAE90C23DAE90401FCF72DFB024672
:103EE0000B4620462946FCF771F904460D46DAE9EF
:103EF0000667DAE90C89DAE9100102460B46FCF79D
:103F000065F902460B4640464946FCF75DF9DAE999
:103F10001223FCF75BF902460B4630463946FCF7A4
:103F20000BFB02460B4620462946FCF74FF902469A
:103F30000B46DAE91401FCF749F9CAE91401DAE998
:103F4000146702AC51462046FFF798FF00943246B2
:103F50003B465046FFF7E3FECAE9140106B0BDE850
:103F6000F0872DE9D0438AB00446D0E90C23C0E99C
:103F70001023D0E90A01D4E90823FCF725F9C4E9A4
:103F80000C01D4E90C23D4E90E01FCF71FF9C4E9B4
:103F90000E01D4E90E8902AE21463046FFF752FFEA
:103FA000009642464B462046FFF7B9FEC4E90E0193
:103FB000D4E90C23D4E90201FCF7BEFA06460F4609
:103FC000D4E90E23D4E90401FCF7B6FA02460B4605
:103FD00030463946FCF7FAF806460F46D4E906891A
:103FE000D4E90C01D4E91023FCF7EEF802460B46A5
:103FF00040464946FCF7A0FA02460B463046394691
:10400000FCF7E4F8C4E91401D4E9148906AE2146AA
:104010003046FFF733FF009642464B462046FFF7F7
:104020007EFEC4E914010AB0BDE8D08310B5044691
:104030000368012B05D0022B06D02046FFF7EAFECD
:1040400010BDFFF722FFF8E7FFF78BFFF5E7000051
:1040500082B0002100910B4B5A6C42F480425A64AA
:104060005A6C02F480420092009A01911A6C42F05C
:1040700080521A641B6C03F080530193019B02B0C1
:10408000704700BF00380240FEE7FEE7FEE7FEE7AC
:10409000FEE770477047704708B500F001FE08BDA5
:1040A00008B5024801F014F808BD00BF78150020DB
:1040B00008B5024802F0DEFD08BD00BF681600200A
:1040C00008B5024801F027FE08BD00BF101400200B
:1040D00008B5024802F0CEFD08BD00BFD81500208B
:1040E0000120704708B50CF0E1FD162303604FF086
:1040F000FF3008BD08B54FF0FF31FFF7F3FFFEE7D3
:1041000070B50C461646002506E0AFF30080214648
:1041100001F8010B01350C46B542F6DB304670BDA7
:1041200070B50C461646002504E014F8010BAFF3F9
:1041300000800135B542F8DB304670BD4FF0FF30EE
:1041400070474FF400534B600020704701207047C8
:104150000020704710B503460C4A0D490D48006811
:1041600040B10C4800680344521A934206D8094AE9
:10417000136010BD0748084C0460F2E70CF096FD90
:104180000C2303604FF0FF30F3E700BF0000022074
:10419000000400007C130020C01A002070470000BB
:1041A00000B58DB02422002103A80CF041FC0023AF
:1041B0000193029312484FF0804202604360836093
:1041C0004FF0FF32C2600361836103230393012335
:1041D0000593099303A901F011FF50B9002301933E
:1041E000029301A9064802F08DF928B90DB05DF8D7
:1041F00004FBFFF7C1F9F1E7FFF7BEF9F6E700BFEF
:10420000E814002000B58DB02422002103A80CF092
:104210000FFC0023019302931148124A026043608D
:1042200083604FF6FF72C2600361836103230393CF
:1042300001230593099303A901F0E0FE50B900237F
:104240000193029301A9064802F05CF928B90DB068
:104250005DF804FBFFF790F9F1E7FFF78DF9F6E75A
:10426000A01400200004004000B58DB024220021DD
:1042700003A80CF0DDFB0023019302931148124ABE
:104280000260436083604FF6FF72C2600361836126
:104290000323039301230593099303A901F0AEFEC1
:1042A00050B900230193029301A9064802F02AF9AC
:1042B00028B90DB05DF804FBFFF75EF9F1E7FFF7F1
:1042C0005BF9F6E7581400200008004000B583B001
:1042D0000023009301930F480F4A0260532242606B
:1042E000836040F2E732C260836101F02FFE50B973
:1042F0000023009301936946064802F003F928B9A8
:1043000003B05DF804FBFFF737F9F1E7FFF734F985
:10431000F6E700BF101400200014004000B58DB077
:104320002422002103A80CF083FB002301930293B5
:104330001248134A0260436083604FF6FF72C26006
:10434000036143618361032303930123059309936D
:1043500003A901F053FE50B900230193029301A970
:10436000064802F0CFF828B90DB05DF804FBFFF75E
:1043700003F9F1E7FFF700F9F6E700BFC8130020E3
:104380000004014000B585B003681D4A934208D07F
:104390001C4A934212D01C4A934223D005B05DF8C8
:1043A00004FB00230193194B5A6C42F001025A643A
:1043B0005B6C03F001030193019BEFE70021029185
:1043C000124B1A6C42F020021A641B6C03F020039B
:1043D0000293029B0A46372000F0DCFC372000F0F5
:1043E000E9FCDBE700230393084B5A6C42F480326C
:1043F0005A645B6C03F480330393039BCEE700BFE6
:10440000000001400014004000400140003802401C
:1044100070B58EB0002309930A930B930C930D9300
:104420000368B3F1804F0AD0514A93423ED0514ABB
:1044300093425BD0504A934279D00EB070BD0024B5
:10444000009403F50E331A6C42F001021A641A6CE0
:1044500002F001020092009A01941A6B42F00102EC
:104460001A631A6B02F001020192019A02941A6B0C
:1044700042F002021A631B6B03F002030293029BD9
:104480004FF40043099302260A9601250D9509A9C8
:104490003A4800F00BFF082309930A960B940C94FA
:1044A0000D9509A9364800F001FFC6E700210391E8
:1044B000344B1A6C42F002021A641A6C02F00202C7
:1044C0000392039A04911A6B42F001021A631B6B68
:1044D00003F001030493049BC023099302230A936E
:1044E0000D9309A9254800F0E1FEA6E700210591FA
:1044F000244B1A6C42F004021A641A6C02F0040293
:104500000592059A06911A6B42F008021A631B6B1A
:1045100003F008030693069B4FF4405309930223CC
:104520000A930D9309A9184800F0C0FE85E7002101
:104530000791144B5A6C42F002025A645A6C02F012
:1045400002020792079A08911A6B42F004021A635A
:104550001B6B03F004030893089BC02309930223F9
:104560000A9303230D9309A9084800F09FFE64E70E
:104570000004004000080040000401400000024028
:104580000004024000380240000C024000080240D3
:1045900000B589B000230393049305930693079312
:1045A00003681C4A934205D01B4A93421AD009B0B3
:1045B0005DF804FB00230193184B1A6B42F01002C4
:1045C0001A631B6B03F010030193019B4FF4D44358
:1045D0000393022304930123079303A9104800F0D7
:1045E00065FEE4E7002302930C4B1A6B42F01002C5
:1045F0001A631B6B03F010030293029B6023039367
:10460000022304930323079303A9054800F04EFEF9
:10461000CDE700BF000001400040014000380240EB
:104620000010024010B596B0002412941394149414
:1046300015941094119409940A940B940C940D946D
:104640000E940F942022214601A80CF0F1F93B486A
:104650003B4B036007234360846040F2E733C36051
:1046600004614461846101F071FC00284BD14FF476
:104670008053129312A9314801F0CEFD002845D194
:104680002E4801F08FFC002843D100231093119392
:1046900010A92A4801F036FF00283DD16023099374
:1046A00000220A920B920C920D920E920F9209A97F
:1046B000224801F037FD002831D1042209A91F4802
:1046C00001F030FD70BB082209A91C4801F02AFD49
:1046D00058BB0C2209A9194801F024FD40BB002356
:1046E000019302930393049305934FF400520692AF
:1046F000089301A9114801F04BFFE0B90F48FFF7FB
:1047000047FF16B010BDFEF737FFB0E7FEF734FFE6
:10471000B6E7FEF731FFB8E7FEF72EFFBEE7FEF77C
:104720002BFFCAE7FEF728FFCDE7FEF725FFD0E70E
:10473000FEF722FFD3E7FEF71FFFDFE7301500206B
:104740000000014000B58DB00023089309930A933F
:104750000B9301930293039304930593069307939A
:104760002048214A026040F24F124260836042F2C8
:104770000F72C2600361836101F0E8FB18BB4FF464
:104780008053089308A9174801F046FDF0B9154871
:1047900001F008FCE8B96023019300220292039221
:1047A000059201A90F4801F0BDFCA8B904220DEB48
:1047B00002010C4801F0B6FC88B90A48FFF7E8FE90
:1047C0000DB05DF804FBFEF7D7FED8E7FEF7D4FE88
:1047D000DDE7FEF7D1FEDEE7FEF7CEFEE6E7FEF709
:1047E000CBFEEAE7801300200040014008B50A48EC
:1047F0000A4B03604FF4E133436000238360C360DE
:1048000003610C2242618361C36102F026F800B9A2
:1048100008BDFEF7B1FEFBE740170020004C00404A
:1048200008B50A480A4B03604FF41653436000234F
:104830008360C36003610C2242618361C36102F043
:104840000CF800B908BDFEF797FEFBE7F81600204C
:104850000050004008B50A480A4B03604FF4E133AA
:10486000436000238360C36003610C224261836163
:10487000C36101F0F2FF00B908BDFEF77DFEFBE762
:10488000B01600200010014008B50A480A4B03602A
:104890004FF4E133436000238360C36003610C2263
:1048A00042618361C36101F0D8FF00B908BDFEF722
:1048B00063FEFBE7681600200044004008B50A4884
:1048C0000A4B03604FF4E133436000238360C3600D
:1048D00003610C2242618361C36101F0BEFF00B934
:1048E00008BDFEF749FEFBE7201600200048004007
:1048F00008B50A480A4B03604FF4E13343600023D4
:104900008360C36003610C2242618361C36101F073
:10491000A4FF00B908BDFEF72FFEFBE7D815002065
:1049200000140140F0B593B000230D930E930F9344
:10493000109311930368974A934214D00446964A01
:10494000934234D0954A934269D0954A934200F0FD
:104950008A80944A934200F0CC80934A934200F0BC
:10496000EC8013B0F0BD00210091904B1A6C42F422
:1049700000221A641A6C02F400220092009A01913B
:104980001A6B42F004021A631B6B03F004030193D9
:10499000019B4FF440630D9302230E930323109366
:1049A000082311930DA9824800F080FCD9E7002468
:1049B00002947E4B1A6C42F480121A641A6C02F450
:1049C00080120292029A03941A6B42F004021A6354
:1049D0001A6B02F004020392039A04941A6B42F0D9
:1049E00008021A631B6B03F008030493049B4FF443
:1049F00080530D9302270E970326109608251195D4
:104A00000DA96B4800F052FC04230D930E970F94F0
:104A1000109611950DA9674800F048FCA1E7002108
:104A20000591624B5A6C42F010025A645A6C02F0C3
:104A300010020592059A06911A6B42F001021A6360
:104A40001B6B03F001030693069B4FF4C0630D93A9
:104A500002230E9303231093072311930DA95648A5
:104A600000F024FC7DE700250795504B1A6C42F4BA
:104A700000321A641A6C02F400320792079A089501
:104A80001A6B42F001021A631B6B03F001030893D7
:104A9000089B0C230D9302230E93032310930723EB
:104AA00011930DA9444800F001FC4448444B0360B5
:104AB0004FF0006343608560C5604FF4806303611D
:104AC000456185614FF48073C3610562456200F002
:104AD00007FA58B9394BE3639C630022114626203C
:104AE00000F058F9262000F065F93AE7FEF744FD9A
:104AF000F0E7002109912D4B1A6C42F480221A64D0
:104B00001A6C02F480220992099A0A911A6B42F0F7
:104B100002021A631B6B03F002030A930A9B4FF411
:104B200040630D9302230E930323109307231193E5
:104B30000DA9244800F0BAFB13E700240B941B4B8B
:104B40005A6C42F020025A645A6C02F020020B9216
:104B50000B9A0C941A6B42F040021A631B6B03F021
:104B600040030C930C9B4FF484430D9302230E934C
:104B700003231093082311930DA9134800F096FB0B
:104B800022462146472000F005F9472000F012F99F
:104B9000E7E600BF004C004000500040001001401C
:104BA000004400400048004000140140003802402A
:104BB00000080240000C024000000240781500206E
:104BC000886002400004024000180240DFF834D040
:104BD000FFF7E4FA0C480D490D4A002302E0D458CF
:104BE000C4500433C4188C42F9D30A4A0A4C002337
:104BF00001E013600432A242FBD30CF05DF8FEF733
:104C00000FFD70470000022000000020C8060020B1
:104C1000CC7A0108C8060020C01A0020FEE7000078
:104C200010B504460E4B1A784FF47A73B3FBF2F3C7
:104C30000C4A1068B0FBF3F000F0C0F868B90F2C14
:104C400001D901200AE0002221464FF0FF3000F098
:104C5000A1F8054B1C60002000E0012010BD00BF42
:104C600008000020040000200C00002008B50B4BB9
:104C70001A6842F400721A601A6842F480621A607C
:104C80001A6842F480721A60032000F071F80F2055
:104C9000FFF7C6FFFFF7DCF9002008BD003C02402B
:104CA000034A1168034B1B780B441360704700BF25
:104CB0008817002008000020014B1868704700BFCB
:104CC0008817002038B50446FFF7F6FF0546B4F113
:104CD000FF3F02D0044B1B781C44FFF7EDFF401B45
:104CE000A042FAD338BD00BF08000020002807DB2F
:104CF00000F01F02400901239340024A42F820308D
:104D0000704700BF00E100E0002808DB0901C9B2DC
:104D100000F1604000F5614080F80013704700F03A
:104D20000F000901C9B2014B1954704714ED00E09E
:104D300000B500F00700C0F1070CBCF1040F28BF5C
:104D40004FF0040C031D062B0FD9C31E4FF0FF3E7E
:104D50000EFA0CF021EA000199400EFA03FE22EA55
:104D60000E0241EA02005DF804FB0023EEE70000BA
:104D7000074AD36823F4E0631B041B0C000200F411
:104D8000E060034343F0BF6343F40033D3607047F4
:104D900000ED00E010B50446054BD868C0F30220D2
:104DA000FFF7C6FF01462046FFF7AEFF10BD00BF6C
:104DB00000ED00E008B5FFF799FF08BD0138B0F13C
:104DC000807F0BD24FF0E0235861054AF02182F832
:104DD00023100020986107221A6170470120704754
:104DE00000ED00E030B405682C6824F480242C60C9
:104DF000046863608368402B05D00368996003688A
:104E0000DA6030BC704703689A600368D960F8E7DD
:104E100010B40368D9B210390B4AA2FB014212093F
:104E20000A4CA25CC2655F2908D923F47F7323F082
:104E3000030304338365806D10BC704723F47F73D4
:104E400023F003038365F6E7ABAAAAAA2060010852
:104E5000836A826992B9012B0AD0022B02D00BB16E
:104E600000207047C36A13F0807F28D1002070476C
:104E7000C36AB3F1C07F24D000207047B2F5005F51
:104E800009D0022B25D9032B25D1C36A13F0807FCB
:104E900023D100207047032B03D8DFE803F014046C
:104EA000140A00207047C36A13F0807F0DD10020E0
:104EB0007047C36AB3F1C07F09D00020704701205A
:104EC0007047012070470120704701207047012082
:104ED0007047012070470020704701207047000094
:104EE00070B50446FFF7E8FE002C5BD005460223B0
:104EF00084F83530002384F834302268136823F0B6
:104F00000103136023681A6812F0010F0AD0FFF73B
:104F1000D3FE431B052BF5D920236365032084F8BA
:104F2000350070BD1A68204911406268A0680243CC
:104F3000E06802432069024360690243A0690243BA
:104F4000E0690243206A02430A43616A04291ED0D1
:104F50001A602668756925F00705636A1D43042BEE
:104F600007D1A36A1D43E36A1BB12046FFF770FF18
:104F700090B975612046FFF74BFFE26D3F239340E8
:104F8000836000206065012384F83530C9E7E16A59
:104F9000206B01430A43DBE740236365012084F86B
:104FA0003500BEE70120BCE73F8010F038B504466D
:104FB000856D90F8340001282BD0012084F834004E
:104FC00094F83500C0B2012804D0002384F83430AE
:104FD000022038BD022084F835000020606520469C
:104FE000FFF700FFE26D3F239340AB602268136838
:104FF00043F016031360236C23B12268136843F057
:10500000080313602268136843F001031360002053
:10501000DFE70220DDE770B50446866DFFF74CFE42
:1050200094F83530DBB2022B06D080236365002371
:1050300084F83430012070BD05462268136823F0DF
:10504000160313602268536923F080035361236CB5
:10505000E3B12268136823F0080313602268136821
:1050600023F00103136023681B6813F0010F11D0B4
:10507000FFF722FE431B052BF5D920236365032090
:1050800084F83500002384F83430D4E7A36C002B77
:10509000DFD1E3E7E26D3F239340B360012384F85F
:1050A0003530002084F83400C5E790F83530DBB2A5
:1050B000022B03D08023436501207047052380F82D
:1050C00035300268136823F0010313600020704735
:1050D000F0B583B0044600230193724B1D68724BF8
:1050E000A3FB0535AD0A876D3E68C26D082393406A
:1050F000334210D003681A6812F0040F0BD01A68FC
:1051000022F004021A60C26D08239340BB60436D15
:1051100043F001034365E26D01239340334209D01C
:105120002268526912F0800F04D0BB60636D43F0B7
:1051300002036365E26D04239340334209D0226881
:10514000126812F0020F04D0BB60636D43F00403D9
:105150006365E26D10239340334224D022681268C5
:1051600012F0080F1FD0BB6023681A6812F4802F5A
:105170000DD01B6813F4002F04D1236C9BB1204683
:10518000984710E0A36C73B1204698470BE01A686B
:1051900012F4807F03D11A6822F008021A60236C8F
:1051A0000BB120469847E26D20239340334255D0FF
:1051B0002268126812F0100F50D0BB6094F835309E
:1051C000DBB2052B0ED023681A6812F4802F33D07F
:1051D0001B6813F4002F2AD1636C002B3ED02046AD
:1051E00098473BE02268136823F016031360226897
:1051F000536923F080035361236CA3B122681368C1
:1052000023F008031360E26D3F239340BB6001234A
:1052100084F83530002384F83430236D002B3FD0E0
:10522000204698473CE0A36C002BE7D1EBE7E36B0B
:10523000A3B12046984711E01A6812F4807F09D183
:105240001A6822F010021A60012384F83530002316
:1052500084F83430E36B0BB120469847636DFBB1A3
:10526000636D13F0010F17D0052384F835302268E1
:10527000136823F001031360019B01330193AB42D8
:1052800004D823681B6813F0010FF5D1012384F8BB
:105290003530002384F83430E36C0BB12046984756
:1052A00003B0F0BD04000020B5814E1B00230F2B7E
:1052B00000F2EC8030B583B068E085684FEA430EB9
:1052C000032404FA0EF425EA0405CC6804FA0EF46B
:1052D0002C438460446824EA02044A68C2F3001242
:1052E0009A40224342605FE0DC08083450F82420F2
:1052F00003F00705AD004FF00F0E0EFA05FE22EA8F
:105300000E0E0A69AA4042EA0E0240F824205FE02D
:10531000072200E0002202FA0EF22A4302345C4D1A
:1053200045F824205B4A94686FEA0C0224EA0C05D5
:10533000D1F804E01EF4801F01D04CEA0405554C5E
:10534000A560E46802EA0405D1F804E01EF4001F39
:1053500001D04CEA04054F4CE560646802EA04059C
:10536000D1F804E01EF4003F01D04CEA0405494C9A
:105370006560246822404D6815F4803F01D04CEAF6
:105380000402444C226001330F2B7DD801229A4045
:105390000C6804EA020C32EA0404F4D14C6804F00C
:1053A0000304013C012C88D94A6802F00302032A55
:1053B00009D0C4685D000322AA4024EA02048A6876
:1053C000AA402243C2604A6802F00302022A8BD03C
:1053D00004684FEA430E032202FA0EF224EA0204A2
:1053E0004A6802F0030202FA0EF2224302604A689F
:1053F00012F4403FC7D000220192274A546C44F473
:1054000080445464526C02F480420192019A9C08D8
:10541000A51C1F4A52F8255003F0030E4FEA8E0ECA
:105420000F2202FA0EF225EA02051C4A90423FF4CE
:1054300071AF02F5806290421AD002F5806290420C
:1054400018D002F58062904216D002F58062904238
:1054500014D002F58062904212D002F58062904230
:1054600010D002F5806290423FF452AF082252E71A
:10547000012250E702224EE703224CE704224AE7CA
:10548000052248E7062246E703B030BD704700BF5B
:1054900000380140003C014000380240000002405A
:1054A0000AB181617047090481617047002800F0EA
:1054B000E08170B582B00446036813F0010F3BD061
:1054C0009F4B9B6803F00C03042B2CD09C4B9B68D8
:1054D00003F00C03082B21D06368B3F5803F4FD055
:1054E000B3F5A02F52D0964B1A6822F480321A607E
:1054F0001A6822F480221A606368002B50D0FFF7EC
:10550000DBFB05468E4B1B6813F4003F14D1FFF7FD
:10551000D3FB401B6428F5D90320B1E1884B5B68BD
:1055200013F4800FD8D0864B1B6813F4003F03D0D0
:105530006368002B00F09F81236813F0020F54D0A2
:105540007F4B9B6813F00C0F3ED07D4B9B6803F0A4
:105550000C03082B33D0E368002B68D0794B012271
:105560001A60FFF7A9FB0546754B1B6813F0020F85
:1055700054D1FFF7A1FB401B0228F5D903207FE19E
:105580006F4A136843F480331360B5E76C4B1A68B5
:1055900042F480221A601A6842F480321A60ABE743
:1055A000FFF78AFB0546664B1B6813F4003FC3D028
:1055B000FFF782FB401B6428F5D9032060E1604BB4
:1055C0005B6813F4800FC6D15D4B1B6813F0020FAC
:1055D00003D0E368012B40F05081594A136823F04F
:1055E000F803216943EAC1031360236813F0080F2D
:1055F00042D063696BB3534B0122C3F8802EFFF78F
:105600005BFB05464E4B5B6F13F0020F34D1FFF787
:1056100053FB401B0228F5D9032031E1484A1368A7
:1056200023F0F803216943EAC1031360DDE7454B2A
:1056300000221A60FFF740FB0546414B1B6813F040
:10564000020FD2D0FFF738FB401B0228F5D9032008
:1056500016E13C4B0022C3F8802EFFF72DFB0546D8
:10566000374B5B6F13F0020F06D0FFF725FB401B93
:105670000228F5D9032003E1236813F0040F77D043
:105680002F4B1B6C13F0805F33D1002301932C4B05
:105690001A6C42F080521A641B6C03F08053019321
:1056A000019B0125284B1B6813F4807F23D0A3683E
:1056B000012B34D0052B38D0214B1A6F22F0010278
:1056C0001A671A6F22F004021A67A368002B3DD0F4
:1056D000FFF7F2FA06461A4B1B6F13F0020F46D182
:1056E000FFF7EAFA801B41F288339842F3D903208E
:1056F000C6E00025D6E7144A136843F480731360AC
:10570000FFF7DAFA0646104B1B6813F4807FCED100
:10571000FFF7D2FA801B0228F5D90320B0E0084A2F
:10572000136F43F001031367CFE7054B1A6F42F085
:1057300004021A671A6F42F001021A67C5E700BF38
:10574000003802400000474200700040FFF7B4FA02
:105750000646524B1B6F13F0020F08D0FFF7ACFA4E
:10576000801B41F288339842F3D9032088E0EDB9D9
:10577000A369002B00F08380484A926802F00C0273
:10578000082A51D0022B17D0454B00221A66FFF78A
:1057900093FA0446414B1B6813F0007F42D0FFF799
:1057A0008BFA001B0228F5D9032069E03B4A136CF1
:1057B00023F080531364DBE7394B00221A66FFF7AE
:1057C0007BFA0546354B1B6813F0007F06D0FFF7C8
:1057D00073FA401B0228F5D9032051E0E369226ADD
:1057E0001343626A43EA8213A26A5208013A43EA07
:1057F0000243E26A43EA0263284A5360284B0122CB
:105800001A66FFF759FA0446244B1B6813F0007F11
:1058100006D1FFF751FA001B0228F5D903202FE02B
:1058200000202DE000202BE0012B2BD01B4B5B68D0
:1058300003F48001E269914226D103F03F02216A1C
:105840008A4223D1616A47F6C0721A40B2EB811FC7
:105850001ED103F44031A26A5208013AB1EB024F63
:1058600018D103F07063E26AB3EB026F14D1002029
:1058700006E001207047012002E0012000E0002046
:1058800002B070BD0120FBE70120F9E70120F7E736
:105890000120F5E70120F3E70120F1E7003802409D
:1058A0000000474208B5264B9B6803F00C03042B0D
:1058B00041D0082B41D1224B5A6802F03F025B686D
:1058C00013F4800F12D01E4B5968C1F388111D4884
:1058D0000023A1FB0001FBF727F9194B5B68C3F319
:1058E000014301335B00B0FBF3F027E0144B586831
:1058F000C0F388104FEA401CBCEB000C6EEB0E0EA0
:105900004FEA8E1343EA9C634FEA8C11B1EB0C0112
:1059100063EB0E03DB0043EA5173C90011EB000C8B
:1059200043F10003990200234FEA8C2041EA9C5185
:10593000FBF7FAF8D1E7034800E0034808BD00BFD1
:105940000038024040787D010024F400002800F077
:105950009B8070B50D4604464F4B1B6803F0070350
:105960008B4208D2CBB24C4A1370136803F0070382
:105970008B4240F08B80236813F0020F17D013F096
:10598000040F04D0454A936843F4E05393602368BE
:1059900013F0080F04D0414A936843F460439360C6
:1059A0003E4A936823F0F003A1680B439360236899
:1059B00013F0010F32D06368012B21D09A1E012A07
:1059C00025D9364A126812F0020F61D033498A682D
:1059D00022F0030213438B60FFF76EF906462F4B4C
:1059E0009B6803F00C036268B3EB820F16D0FFF7DD
:1059F00063F9801B41F288339842F0D9032042E0DA
:105A0000264A126812F4003FE0D101203BE0234A0D
:105A1000126812F0007FD9D1012034E01E4B1B68C0
:105A200003F00703AB4207D9EAB21B4B1A701B689D
:105A300003F00703AB422DD1236813F0040F06D007
:105A4000164A936823F4E053E1680B43936023689C
:105A500013F0080F07D0114A936823F460432169BB
:105A600043EAC1039360FFF71DFF0C4B9B68C3F330
:105A700003130B4AD35CD8400A4B18600A4B1868D2
:105A8000FFF7CEF8002070BD012070470120FAE733
:105A90000120F8E70120F6E7003C02400038024010
:105AA00010600108040000200C000020014B186861
:105AB000704700BF0400002008B5FFF7F7FF044B54
:105AC0009B68C3F38223034AD35CD84008BD00BF60
:105AD000003802400860010808B5FFF7E7FF044BF3
:105AE0009B68C3F34233034AD35CD84008BD00BF70
:105AF000003802400860010830B4036A026A22F0EC
:105B0000010202624268846924F0730C0C6844EA62
